{
  "_format": "hh-sol-artifact-1",
  "contractName": "NFTminting",
  "sourceName": "contracts/NFTminting.sol",
  "abi": [
    {
      "inputs": [],
      "stateMutability": "nonpayable",
      "type": "constructor"
    },
    {
      "inputs": [
        {
          "internalType": "address",
          "name": "sender",
          "type": "address"
        },
        {
          "internalType": "uint256",
          "name": "tokenId",
          "type": "uint256"
        },
        {
          "internalType": "address",
          "name": "owner",
          "type": "address"
        }
      ],
      "name": "ERC721IncorrectOwner",
      "type": "error"
    },
    {
      "inputs": [
        {
          "internalType": "address",
          "name": "operator",
          "type": "address"
        },
        {
          "internalType": "uint256",
          "name": "tokenId",
          "type": "uint256"
        }
      ],
      "name": "ERC721InsufficientApproval",
      "type": "error"
    },
    {
      "inputs": [
        {
          "internalType": "address",
          "name": "approver",
          "type": "address"
        }
      ],
      "name": "ERC721InvalidApprover",
      "type": "error"
    },
    {
      "inputs": [
        {
          "internalType": "address",
          "name": "operator",
          "type": "address"
        }
      ],
      "name": "ERC721InvalidOperator",
      "type": "error"
    },
    {
      "inputs": [
        {
          "internalType": "address",
          "name": "owner",
          "type": "address"
        }
      ],
      "name": "ERC721InvalidOwner",
      "type": "error"
    },
    {
      "inputs": [
        {
          "internalType": "address",
          "name": "receiver",
          "type": "address"
        }
      ],
      "name": "ERC721InvalidReceiver",
      "type": "error"
    },
    {
      "inputs": [
        {
          "internalType": "address",
          "name": "sender",
          "type": "address"
        }
      ],
      "name": "ERC721InvalidSender",
      "type": "error"
    },
    {
      "inputs": [
        {
          "internalType": "uint256",
          "name": "tokenId",
          "type": "uint256"
        }
      ],
      "name": "ERC721NonexistentToken",
      "type": "error"
    },
    {
      "anonymous": false,
      "inputs": [
        {
          "indexed": true,
          "internalType": "address",
          "name": "owner",
          "type": "address"
        },
        {
          "indexed": true,
          "internalType": "address",
          "name": "approved",
          "type": "address"
        },
        {
          "indexed": true,
          "internalType": "uint256",
          "name": "tokenId",
          "type": "uint256"
        }
      ],
      "name": "Approval",
      "type": "event"
    },
    {
      "anonymous": false,
      "inputs": [
        {
          "indexed": true,
          "internalType": "address",
          "name": "owner",
          "type": "address"
        },
        {
          "indexed": true,
          "internalType": "address",
          "name": "operator",
          "type": "address"
        },
        {
          "indexed": false,
          "internalType": "bool",
          "name": "approved",
          "type": "bool"
        }
      ],
      "name": "ApprovalForAll",
      "type": "event"
    },
    {
      "anonymous": false,
      "inputs": [
        {
          "indexed": false,
          "internalType": "uint256",
          "name": "_fromTokenId",
          "type": "uint256"
        },
        {
          "indexed": false,
          "internalType": "uint256",
          "name": "_toTokenId",
          "type": "uint256"
        }
      ],
      "name": "BatchMetadataUpdate",
      "type": "event"
    },
    {
      "anonymous": false,
      "inputs": [
        {
          "indexed": false,
          "internalType": "uint256",
          "name": "id",
          "type": "uint256"
        },
        {
          "indexed": false,
          "internalType": "uint256",
          "name": "storedId",
          "type": "uint256"
        },
        {
          "indexed": false,
          "internalType": "address",
          "name": "caller",
          "type": "address"
        },
        {
          "indexed": false,
          "internalType": "address",
          "name": "owner",
          "type": "address"
        },
        {
          "indexed": false,
          "internalType": "uint256",
          "name": "price",
          "type": "uint256"
        }
      ],
      "name": "Debug",
      "type": "event"
    },
    {
      "anonymous": false,
      "inputs": [
        {
          "indexed": false,
          "internalType": "uint256",
          "name": "ticketId",
          "type": "uint256"
        }
      ],
      "name": "DebugTicketCount",
      "type": "event"
    },
    {
      "anonymous": false,
      "inputs": [
        {
          "indexed": false,
          "internalType": "uint256",
          "name": "_tokenId",
          "type": "uint256"
        }
      ],
      "name": "MetadataUpdate",
      "type": "event"
    },
    {
      "anonymous": false,
      "inputs": [
        {
          "indexed": true,
          "internalType": "address",
          "name": "from",
          "type": "address"
        },
        {
          "indexed": true,
          "internalType": "address",
          "name": "to",
          "type": "address"
        },
        {
          "indexed": true,
          "internalType": "uint256",
          "name": "tokenId",
          "type": "uint256"
        }
      ],
      "name": "Transfer",
      "type": "event"
    },
    {
      "anonymous": false,
      "inputs": [
        {
          "indexed": false,
          "internalType": "uint256",
          "name": "eventId",
          "type": "uint256"
        },
        {
          "indexed": false,
          "internalType": "string",
          "name": "eventName",
          "type": "string"
        },
        {
          "indexed": false,
          "internalType": "string",
          "name": "eventDescription",
          "type": "string"
        },
        {
          "indexed": false,
          "internalType": "string",
          "name": "venue",
          "type": "string"
        },
        {
          "indexed": false,
          "internalType": "uint256",
          "name": "ticketPrice",
          "type": "uint256"
        },
        {
          "indexed": false,
          "internalType": "uint256",
          "name": "totalTickets",
          "type": "uint256"
        },
        {
          "indexed": false,
          "internalType": "uint256",
          "name": "resalePrice",
          "type": "uint256"
        }
      ],
      "name": "newEventCreated",
      "type": "event"
    },
    {
      "anonymous": false,
      "inputs": [
        {
          "indexed": false,
          "internalType": "uint256",
          "name": "ticketId",
          "type": "uint256"
        },
        {
          "indexed": false,
          "internalType": "uint256",
          "name": "eventId",
          "type": "uint256"
        },
        {
          "indexed": false,
          "internalType": "uint256",
          "name": "seatNum",
          "type": "uint256"
        },
        {
          "indexed": false,
          "internalType": "uint256",
          "name": "Price",
          "type": "uint256"
        },
        {
          "indexed": false,
          "internalType": "uint256",
          "name": "ntickets",
          "type": "uint256"
        }
      ],
      "name": "newTicketCreated",
      "type": "event"
    },
    {
      "inputs": [
        {
          "internalType": "address",
          "name": "to",
          "type": "address"
        },
        {
          "internalType": "uint256",
          "name": "tokenId",
          "type": "uint256"
        }
      ],
      "name": "approve",
      "outputs": [],
      "stateMutability": "nonpayable",
      "type": "function"
    },
    {
      "inputs": [
        {
          "internalType": "address",
          "name": "owner",
          "type": "address"
        }
      ],
      "name": "balanceOf",
      "outputs": [
        {
          "internalType": "uint256",
          "name": "",
          "type": "uint256"
        }
      ],
      "stateMutability": "view",
      "type": "function"
    },
    {
      "inputs": [
        {
          "internalType": "address",
          "name": "addr",
          "type": "address"
        },
        {
          "internalType": "uint256",
          "name": "_eventId",
          "type": "uint256"
        }
      ],
      "name": "createNFTticket",
      "outputs": [],
      "stateMutability": "payable",
      "type": "function"
    },
    {
      "inputs": [
        {
          "internalType": "uint256",
          "name": "tokenId",
          "type": "uint256"
        }
      ],
      "name": "getApproved",
      "outputs": [
        {
          "internalType": "address",
          "name": "",
          "type": "address"
        }
      ],
      "stateMutability": "view",
      "type": "function"
    },
    {
      "inputs": [
        {
          "internalType": "address",
          "name": "addr",
          "type": "address"
        }
      ],
      "name": "getBuyer",
      "outputs": [
        {
          "components": [
            {
              "internalType": "address",
              "name": "buyerAddress",
              "type": "address"
            },
            {
              "internalType": "uint256[]",
              "name": "ticketIds",
              "type": "uint256[]"
            },
            {
              "internalType": "uint256[]",
              "name": "pastEventIds",
              "type": "uint256[]"
            }
          ],
          "internalType": "struct NFTminting.buyer",
          "name": "",
          "type": "tuple"
        }
      ],
      "stateMutability": "view",
      "type": "function"
    },
    {
      "inputs": [],
      "name": "getEventCount",
      "outputs": [
        {
          "internalType": "uint256",
          "name": "",
          "type": "uint256"
        }
      ],
      "stateMutability": "view",
      "type": "function"
    },
    {
      "inputs": [
        {
          "internalType": "address",
          "name": "addr",
          "type": "address"
        }
      ],
      "name": "getOrgDetails",
      "outputs": [
        {
          "components": [
            {
              "internalType": "address",
              "name": "orgAddress",
              "type": "address"
            },
            {
              "internalType": "uint256[]",
              "name": "eventIds",
              "type": "uint256[]"
            },
            {
              "internalType": "string",
              "name": "logo",
              "type": "string"
            },
            {
              "internalType": "string",
              "name": "orgName",
              "type": "string"
            }
          ],
          "internalType": "struct NFTminting.organiser",
          "name": "",
          "type": "tuple"
        }
      ],
      "stateMutability": "view",
      "type": "function"
    },
    {
      "inputs": [
        {
          "internalType": "uint256",
          "name": "_ticketId",
          "type": "uint256"
        }
      ],
      "name": "getTicket",
      "outputs": [
        {
          "components": [
            {
              "internalType": "uint256",
              "name": "ticketId",
              "type": "uint256"
            },
            {
              "internalType": "uint256",
              "name": "eventId",
              "type": "uint256"
            },
            {
              "internalType": "uint256",
              "name": "seatNum",
              "type": "uint256"
            },
            {
              "internalType": "uint256",
              "name": "Price",
              "type": "uint256"
            },
            {
              "internalType": "bool",
              "name": "isAvailablebid",
              "type": "bool"
            }
          ],
          "internalType": "struct NFTminting.ticket",
          "name": "",
          "type": "tuple"
        }
      ],
      "stateMutability": "view",
      "type": "function"
    },
    {
      "inputs": [],
      "name": "getTicketCount",
      "outputs": [
        {
          "internalType": "uint256",
          "name": "",
          "type": "uint256"
        }
      ],
      "stateMutability": "nonpayable",
      "type": "function"
    },
    {
      "inputs": [
        {
          "internalType": "uint256",
          "name": "_eventId",
          "type": "uint256"
        }
      ],
      "name": "getevent",
      "outputs": [
        {
          "components": [
            {
              "internalType": "address",
              "name": "orgAddress",
              "type": "address"
            },
            {
              "internalType": "uint256",
              "name": "eventId",
              "type": "uint256"
            },
            {
              "internalType": "string",
              "name": "eventName",
              "type": "string"
            },
            {
              "internalType": "string",
              "name": "eventDescription",
              "type": "string"
            },
            {
              "internalType": "string",
              "name": "venue",
              "type": "string"
            },
            {
              "internalType": "string",
              "name": "uri",
              "type": "string"
            },
            {
              "internalType": "uint256",
              "name": "ticketPrice",
              "type": "uint256"
            },
            {
              "internalType": "uint256",
              "name": "totalTickets",
              "type": "uint256"
            },
            {
              "internalType": "uint256",
              "name": "ticketsSold",
              "type": "uint256"
            },
            {
              "internalType": "uint256",
              "name": "resalePrice",
              "type": "uint256"
            },
            {
              "internalType": "uint256[]",
              "name": "ticketIds",
              "type": "uint256[]"
            }
          ],
          "internalType": "struct NFTminting.Event",
          "name": "",
          "type": "tuple"
        }
      ],
      "stateMutability": "view",
      "type": "function"
    },
    {
      "inputs": [
        {
          "internalType": "address",
          "name": "owner",
          "type": "address"
        },
        {
          "internalType": "address",
          "name": "operator",
          "type": "address"
        }
      ],
      "name": "isApprovedForAll",
      "outputs": [
        {
          "internalType": "bool",
          "name": "",
          "type": "bool"
        }
      ],
      "stateMutability": "view",
      "type": "function"
    },
    {
      "inputs": [
        {
          "internalType": "address",
          "name": "addr",
          "type": "address"
        }
      ],
      "name": "isBuyer",
      "outputs": [
        {
          "internalType": "bool",
          "name": "",
          "type": "bool"
        }
      ],
      "stateMutability": "view",
      "type": "function"
    },
    {
      "inputs": [
        {
          "internalType": "uint256",
          "name": "_ticketId",
          "type": "uint256"
        },
        {
          "internalType": "uint256",
          "name": "_eventId",
          "type": "uint256"
        },
        {
          "internalType": "address",
          "name": "to",
          "type": "address"
        }
      ],
      "name": "mintNFT",
      "outputs": [],
      "stateMutability": "nonpayable",
      "type": "function"
    },
    {
      "inputs": [],
      "name": "name",
      "outputs": [
        {
          "internalType": "string",
          "name": "",
          "type": "string"
        }
      ],
      "stateMutability": "view",
      "type": "function"
    },
    {
      "inputs": [
        {
          "internalType": "address",
          "name": "addr",
          "type": "address"
        },
        {
          "internalType": "string",
          "name": "_eventName",
          "type": "string"
        },
        {
          "internalType": "string",
          "name": "uri",
          "type": "string"
        },
        {
          "internalType": "string",
          "name": "_eventDescription",
          "type": "string"
        },
        {
          "internalType": "string",
          "name": "_venue",
          "type": "string"
        },
        {
          "internalType": "uint256",
          "name": "_ticketPrice",
          "type": "uint256"
        },
        {
          "internalType": "uint256",
          "name": "_totalTickets",
          "type": "uint256"
        },
        {
          "internalType": "uint256",
          "name": "_resalePrice",
          "type": "uint256"
        }
      ],
      "name": "newEvent",
      "outputs": [],
      "stateMutability": "nonpayable",
      "type": "function"
    },
    {
      "inputs": [
        {
          "internalType": "address",
          "name": "addr",
          "type": "address"
        }
      ],
      "name": "newOrganiser",
      "outputs": [],
      "stateMutability": "nonpayable",
      "type": "function"
    },
    {
      "inputs": [
        {
          "internalType": "uint256",
          "name": "tokenId",
          "type": "uint256"
        }
      ],
      "name": "ownerOf",
      "outputs": [
        {
          "internalType": "address",
          "name": "",
          "type": "address"
        }
      ],
      "stateMutability": "view",
      "type": "function"
    },
    {
      "inputs": [
        {
          "internalType": "uint256",
          "name": "id",
          "type": "uint256"
        },
        {
          "internalType": "uint256",
          "name": "_price",
          "type": "uint256"
        },
        {
          "internalType": "address",
          "name": "addr",
          "type": "address"
        }
      ],
      "name": "resaleNFT",
      "outputs": [],
      "stateMutability": "nonpayable",
      "type": "function"
    },
    {
      "inputs": [
        {
          "internalType": "address",
          "name": "from",
          "type": "address"
        },
        {
          "internalType": "address",
          "name": "to",
          "type": "address"
        },
        {
          "internalType": "uint256",
          "name": "tokenId",
          "type": "uint256"
        }
      ],
      "name": "safeTransferFrom",
      "outputs": [],
      "stateMutability": "nonpayable",
      "type": "function"
    },
    {
      "inputs": [
        {
          "internalType": "address",
          "name": "from",
          "type": "address"
        },
        {
          "internalType": "address",
          "name": "to",
          "type": "address"
        },
        {
          "internalType": "uint256",
          "name": "tokenId",
          "type": "uint256"
        },
        {
          "internalType": "bytes",
          "name": "data",
          "type": "bytes"
        }
      ],
      "name": "safeTransferFrom",
      "outputs": [],
      "stateMutability": "nonpayable",
      "type": "function"
    },
    {
      "inputs": [
        {
          "internalType": "address",
          "name": "operator",
          "type": "address"
        },
        {
          "internalType": "bool",
          "name": "approved",
          "type": "bool"
        }
      ],
      "name": "setApprovalForAll",
      "outputs": [],
      "stateMutability": "nonpayable",
      "type": "function"
    },
    {
      "inputs": [
        {
          "internalType": "bytes4",
          "name": "interfaceId",
          "type": "bytes4"
        }
      ],
      "name": "supportsInterface",
      "outputs": [
        {
          "internalType": "bool",
          "name": "",
          "type": "bool"
        }
      ],
      "stateMutability": "view",
      "type": "function"
    },
    {
      "inputs": [],
      "name": "symbol",
      "outputs": [
        {
          "internalType": "string",
          "name": "",
          "type": "string"
        }
      ],
      "stateMutability": "view",
      "type": "function"
    },
    {
      "inputs": [],
      "name": "ticketId",
      "outputs": [
        {
          "internalType": "uint256",
          "name": "",
          "type": "uint256"
        }
      ],
      "stateMutability": "view",
      "type": "function"
    },
    {
      "inputs": [
        {
          "internalType": "uint256",
          "name": "tokenId",
          "type": "uint256"
        }
      ],
      "name": "tokenURI",
      "outputs": [
        {
          "internalType": "string",
          "name": "",
          "type": "string"
        }
      ],
      "stateMutability": "view",
      "type": "function"
    },
    {
      "inputs": [
        {
          "internalType": "address",
          "name": "from",
          "type": "address"
        },
        {
          "internalType": "address",
          "name": "to",
          "type": "address"
        },
        {
          "internalType": "uint256",
          "name": "tokenId",
          "type": "uint256"
        }
      ],
      "name": "transferFrom",
      "outputs": [],
      "stateMutability": "nonpayable",
      "type": "function"
    },
    {
      "inputs": [
        {
          "internalType": "address",
          "name": "_to",
          "type": "address"
        },
        {
          "internalType": "uint256",
          "name": "_ticketId",
          "type": "uint256"
        }
      ],
      "name": "transferNFT",
      "outputs": [],
      "stateMutability": "payable",
      "type": "function"
    },
    {
      "inputs": [
        {
          "internalType": "address",
          "name": "addr",
          "type": "address"
        },
        {
          "internalType": "string",
          "name": "_logo",
          "type": "string"
        },
        {
          "internalType": "string",
          "name": "_orgName",
          "type": "string"
        }
      ],
      "name": "updateOrgDetails",
      "outputs": [],
      "stateMutability": "nonpayable",
      "type": "function"
    }
  ],
  "bytecode": "0x60806040526000600b556000600c5534801561001a57600080fd5b506040518060400160405280600b81526020017f4e46545f4d494e54494e470000000000000000000000000000000000000000008152506040518060400160405280600481526020017f4e46544d00000000000000000000000000000000000000000000000000000000815250816000908161009691906102fe565b5080600190816100a691906102fe565b5050506103d0565b600081519050919050565b7f4e487b7100000000000000000000000000000000000000000000000000000000600052604160045260246000fd5b7f4e487b7100000000000000000000000000000000000000000000000000000000600052602260045260246000fd5b6000600282049050600182168061012f57607f821691505b602082108103610142576101416100e8565b5b50919050565b60008190508160005260206000209050919050565b60006020601f8301049050919050565b600082821b905092915050565b6000600883026101aa7fffffffffffffffffffffffffffffffffffffffffffffffffffffffffffffffff8261016d565b6101b4868361016d565b95508019841693508086168417925050509392505050565b6000819050919050565b6000819050919050565b60006101fb6101f66101f1846101cc565b6101d6565b6101cc565b9050919050565b6000819050919050565b610215836101e0565b61022961022182610202565b84845461017a565b825550505050565b600090565b61023e610231565b61024981848461020c565b505050565b5b8181101561026d57610262600082610236565b60018101905061024f565b5050565b601f8211156102b25761028381610148565b61028c8461015d565b8101602085101561029b578190505b6102af6102a78561015d565b83018261024e565b50505b505050565b600082821c905092915050565b60006102d5600019846008026102b7565b1980831691505092915050565b60006102ee83836102c4565b9150826002028217905092915050565b610307826100ae565b67ffffffffffffffff8111156103205761031f6100b9565b5b61032a8254610117565b610335828285610271565b600060209050601f8311600181146103685760008415610356578287015190505b61036085826102e2565b8655506103c8565b601f19841661037686610148565b60005b8281101561039e57848901518255600182019150602085019450602081019050610379565b868310156103bb57848901516103b7601f8916826102c4565b8355505b6001600288020188555050505b505050505050565b614e41806103df6000396000f3fe6080604052600436106101b75760003560e01c80637ccc85eb116100ec578063b88d4fde1161008a578063d9e48f5c11610064578063d9e48f5c14610634578063e785f7c21461065f578063e985e9c51461069c578063f9f0164a146106d9576101b7565b8063b88d4fde146105a5578063c87b56dd146105ce578063c885e9761461060b576101b7565b806391470318116100c6578063914703181461050c57806394ab67fe1461053557806395d89b4114610551578063a22cb4651461057c576101b7565b80637ccc85eb146104695780637dc379fa146104925780638bdfcab0146104cf576101b7565b80632a55feec116101595780636352211e116101335780636352211e1461039d5780636c52ab1f146103da57806370a082311461040357806379f1b7ff14610440576101b7565b80632a55feec146102fa57806342842e0e146103375780635721e41914610360576101b7565b8063081812fc11610195578063081812fc14610240578063095ea7b31461027d57806321c63a47146102a657806323b872dd146102d1576101b7565b806301ffc9a7146101bc57806305908878146101f957806306fdde0314610215575b600080fd5b3480156101c857600080fd5b506101e360048036038101906101de9190613733565b610704565b6040516101f0919061377b565b60405180910390f35b610213600480360381019061020e919061382a565b610765565b005b34801561022157600080fd5b5061022a610d9c565b60405161023791906138fa565b60405180910390f35b34801561024c57600080fd5b506102676004803603810190610262919061391c565b610e2e565b6040516102749190613958565b60405180910390f35b34801561028957600080fd5b506102a4600480360381019061029f919061382a565b610e4a565b005b3480156102b257600080fd5b506102bb610e60565b6040516102c89190613982565b60405180910390f35b3480156102dd57600080fd5b506102f860048036038101906102f3919061399d565b610ea3565b005b34801561030657600080fd5b50610321600480360381019061031c91906139f0565b610fa5565b60405161032e919061377b565b60405180910390f35b34801561034357600080fd5b5061035e6004803603810190610359919061399d565b611007565b005b34801561036c57600080fd5b50610387600480360381019061038291906139f0565b611027565b6040516103949190613b41565b60405180910390f35b3480156103a957600080fd5b506103c460048036038101906103bf919061391c565b611256565b6040516103d19190613958565b60405180910390f35b3480156103e657600080fd5b5061040160048036038101906103fc9190613b63565b611268565b005b34801561040f57600080fd5b5061042a600480360381019061042591906139f0565b61131f565b6040516104379190613982565b60405180910390f35b34801561044c57600080fd5b50610467600480360381019061046291906139f0565b6113d9565b005b34801561047557600080fd5b50610490600480360381019061048b9190613b63565b6115c0565b005b34801561049e57600080fd5b506104b960048036038101906104b4919061391c565b61177d565b6040516104c69190613c2d565b60405180910390f35b3480156104db57600080fd5b506104f660048036038101906104f1919061391c565b6117ed565b6040516105039190613d9d565b60405180910390f35b34801561051857600080fd5b50610533600480360381019061052e9190613ef4565b611b43565b005b61054f600480360381019061054a919061382a565b611e8d565b005b34801561055d57600080fd5b50610566611f6d565b60405161057391906138fa565b60405180910390f35b34801561058857600080fd5b506105a3600480360381019061059e9190614046565b611fff565b005b3480156105b157600080fd5b506105cc60048036038101906105c79190614127565b612015565b005b3480156105da57600080fd5b506105f560048036038101906105f0919061391c565b61203a565b60405161060291906138fa565b60405180910390f35b34801561061757600080fd5b50610632600480360381019061062d91906141aa565b61214d565b005b34801561064057600080fd5b506106496122c4565b6040516106569190613982565b60405180910390f35b34801561066b57600080fd5b50610686600480360381019061068191906139f0565b6122ce565b60405161069391906142a6565b60405180910390f35b3480156106a857600080fd5b506106c360048036038101906106be91906142c8565b6125cb565b6040516106d0919061377b565b60405180910390f35b3480156106e557600080fd5b506106ee61265f565b6040516106fb9190613982565b60405180910390f35b6000634906490660e01b7bffffffffffffffffffffffffffffffffffffffffffffffffffffffff1916827bffffffffffffffffffffffffffffffffffffffffffffffffffffffff1916148061075e575061075d82612665565b5b9050919050565b80806008600083815260200190815260200160002060010154146107be576040517f08c379a00000000000000000000000000000000000000000000000000000000081526004016107b590614354565b60405180910390fd5b60086000838152602001908152602001600020600801546008600084815260200190815260200160002060070154101561082d576040517f08c379a0000000000000000000000000000000000000000000000000000000008152600401610824906143c0565b60405180910390fd5b3460086000848152602001908152602001600020600601541115610886576040517f08c379a000000000000000000000000000000000000000000000000000000000815260040161087d9061442c565b60405180910390fd5b60006008600084815260200190815260200160002060000160009054906101000a900473ffffffffffffffffffffffffffffffffffffffff1673ffffffffffffffffffffffffffffffffffffffff1660086000858152602001908152602001600020600601546040516108f89061447d565b60006040518083038185875af1925050503d8060008114610935576040519150601f19603f3d011682016040523d82523d6000602084013e61093a565b606091505b505090508061097e576040517f08c379a0000000000000000000000000000000000000000000000000000000008152600401610975906144de565b60405180910390fd5b600c60008154809291906109919061452d565b919050555061099e613547565b600c548160000181815250508381602001818152505060086000858152602001908152602001600020600601548160600181815250506000816080019015159081151581525050600060086000868152602001908152602001600020600a01805490509050600181610a109190614575565b8260400181815250508160096000600c5481526020019081526020016000206000820151816000015560208201518160010155604082015181600201556060820151816003015560808201518160040160006101000a81548160ff02191690831515021790555090505060086000868152602001908152602001600020600a01600c549080600181540180825580915050600190039060005260206000200160009091909190915055600860008681526020019081526020016000206008016000815480929190610ae09061452d565b9190505550610af2600c548688611268565b8573ffffffffffffffffffffffffffffffffffffffff16600a60008873ffffffffffffffffffffffffffffffffffffffff1673ffffffffffffffffffffffffffffffffffffffff16815260200190815260200160002060000160009054906101000a900473ffffffffffffffffffffffffffffffffffffffff1673ffffffffffffffffffffffffffffffffffffffff1614610c8d57610b8f613578565b86816000019073ffffffffffffffffffffffffffffffffffffffff16908173ffffffffffffffffffffffffffffffffffffffff168152505080600a60008973ffffffffffffffffffffffffffffffffffffffff1673ffffffffffffffffffffffffffffffffffffffff16815260200190815260200160002060008201518160000160006101000a81548173ffffffffffffffffffffffffffffffffffffffff021916908373ffffffffffffffffffffffffffffffffffffffff1602179055506020820151816001019080519060200190610c6a9291906135af565b506040820151816002019080519060200190610c879291906135af565b50905050505b600a60008773ffffffffffffffffffffffffffffffffffffffff1673ffffffffffffffffffffffffffffffffffffffff168152602001908152602001600020600101600c5490806001815401808255809150506001900390600052602060002001600090919091909150557fdc47c78553b0e86c391324853af28f49dbe211176254c4ad77baf613483f7d9d600c548683600860008a815260200190815260200160002060060154600a60008c73ffffffffffffffffffffffffffffffffffffffff1673ffffffffffffffffffffffffffffffffffffffff16815260200190815260200160002060010180549050604051610d8c9594939291906145a9565b60405180910390a1505050505050565b606060008054610dab9061462b565b80601f0160208091040260200160405190810160405280929190818152602001828054610dd79061462b565b8015610e245780601f10610df957610100808354040283529160200191610e24565b820191906000526020600020905b815481529060010190602001808311610e0757829003601f168201915b5050505050905090565b6000610e3982612747565b50610e43826127cf565b9050919050565b610e5c8282610e5761280c565b612814565b5050565b60007f146afc5f5dcac635191725e04fb7edbb98afdefc7e26603ae3114ed30a2b9a66600c54604051610e939190613982565b60405180910390a1600c54905090565b600073ffffffffffffffffffffffffffffffffffffffff168273ffffffffffffffffffffffffffffffffffffffff1603610f155760006040517f64a0ae92000000000000000000000000000000000000000000000000000000008152600401610f0c9190613958565b60405180910390fd5b6000610f298383610f2461280c565b612826565b90508373ffffffffffffffffffffffffffffffffffffffff168173ffffffffffffffffffffffffffffffffffffffff1614610f9f578382826040517f64283d7b000000000000000000000000000000000000000000000000000000008152600401610f969392919061465c565b60405180910390fd5b50505050565b600080600a60008473ffffffffffffffffffffffffffffffffffffffff1673ffffffffffffffffffffffffffffffffffffffff168152602001908152602001600020600101805490501115610ffd5760019050611002565b600090505b919050565b61102283838360405180602001604052806000815250612015565b505050565b61102f613578565b8173ffffffffffffffffffffffffffffffffffffffff16600a60008473ffffffffffffffffffffffffffffffffffffffff1673ffffffffffffffffffffffffffffffffffffffff16815260200190815260200160002060000160009054906101000a900473ffffffffffffffffffffffffffffffffffffffff1673ffffffffffffffffffffffffffffffffffffffff16146110ff576040517f08c379a00000000000000000000000000000000000000000000000000000000081526004016110f6906146df565b60405180910390fd5b600a60008373ffffffffffffffffffffffffffffffffffffffff1673ffffffffffffffffffffffffffffffffffffffff1681526020019081526020016000206040518060600160405290816000820160009054906101000a900473ffffffffffffffffffffffffffffffffffffffff1673ffffffffffffffffffffffffffffffffffffffff1673ffffffffffffffffffffffffffffffffffffffff168152602001600182018054806020026020016040519081016040528092919081815260200182805480156111ee57602002820191906000526020600020905b8154815260200190600101908083116111da575b505050505081526020016002820180548060200260200160405190810160405280929190818152602001828054801561124657602002820191906000526020600020905b815481526020019060010190808311611232575b5050505050815250509050919050565b600061126182612747565b9050919050565b6112728184612a40565b61131a836008600085815260200190815260200160002060050180546112979061462b565b80601f01602080910402602001604051908101604052809291908181526020018280546112c39061462b565b80156113105780601f106112e557610100808354040283529160200191611310565b820191906000526020600020905b8154815290600101906020018083116112f357829003601f168201915b5050505050612b39565b505050565b60008073ffffffffffffffffffffffffffffffffffffffff168273ffffffffffffffffffffffffffffffffffffffff16036113925760006040517f89c62b640000000000000000000000000000000000000000000000000000000081526004016113899190613958565b60405180910390fd5b600360008373ffffffffffffffffffffffffffffffffffffffff1673ffffffffffffffffffffffffffffffffffffffff168152602001908152602001600020549050919050565b8073ffffffffffffffffffffffffffffffffffffffff16600760008373ffffffffffffffffffffffffffffffffffffffff1673ffffffffffffffffffffffffffffffffffffffff16815260200190815260200160002060000160009054906101000a900473ffffffffffffffffffffffffffffffffffffffff1673ffffffffffffffffffffffffffffffffffffffff16036114a9576040517f08c379a00000000000000000000000000000000000000000000000000000000081526004016114a09061474b565b60405180910390fd5b6114b16135fc565b81816000019073ffffffffffffffffffffffffffffffffffffffff16908173ffffffffffffffffffffffffffffffffffffffff168152505080600760008473ffffffffffffffffffffffffffffffffffffffff1673ffffffffffffffffffffffffffffffffffffffff16815260200190815260200160002060008201518160000160006101000a81548173ffffffffffffffffffffffffffffffffffffffff021916908373ffffffffffffffffffffffffffffffffffffffff160217905550602082015181600101908051906020019061158c9291906135af565b5060408201518160020190816115a29190614917565b5060608201518160030190816115b89190614917565b509050505050565b7f5fe361baf5e5ab55a06686601066b08fe830f6e80b0f8ed60b23fd8cecdfa4868360096000868152602001908152602001600020600001548361160387611256565b866040516116159594939291906149e9565b60405180910390a182600960008581526020019081526020016000206000015414611675576040517f08c379a000000000000000000000000000000000000000000000000000000000815260040161166c90614a88565b60405180910390fd5b8073ffffffffffffffffffffffffffffffffffffffff1661169584611256565b73ffffffffffffffffffffffffffffffffffffffff16146116eb576040517f08c379a00000000000000000000000000000000000000000000000000000000081526004016116e290614af4565b60405180910390fd5b6000821161172e576040517f08c379a000000000000000000000000000000000000000000000000000000000815260040161172590614b60565b60405180910390fd5b81600960008581526020019081526020016000206003018190555060016009600085815260200190815260200160002060040160006101000a81548160ff021916908315150217905550505050565b611785613547565b600960008381526020019081526020016000206040518060a0016040529081600082015481526020016001820154815260200160028201548152602001600382015481526020016004820160009054906101000a900460ff1615151515815250509050919050565b6117f561363a565b60086000838152602001908152602001600020604051806101600160405290816000820160009054906101000a900473ffffffffffffffffffffffffffffffffffffffff1673ffffffffffffffffffffffffffffffffffffffff1673ffffffffffffffffffffffffffffffffffffffff168152602001600182015481526020016002820180546118849061462b565b80601f01602080910402602001604051908101604052809291908181526020018280546118b09061462b565b80156118fd5780601f106118d2576101008083540402835291602001916118fd565b820191906000526020600020905b8154815290600101906020018083116118e057829003601f168201915b505050505081526020016003820180546119169061462b565b80601f01602080910402602001604051908101604052809291908181526020018280546119429061462b565b801561198f5780601f106119645761010080835404028352916020019161198f565b820191906000526020600020905b81548152906001019060200180831161197257829003601f168201915b505050505081526020016004820180546119a89061462b565b80601f01602080910402602001604051908101604052809291908181526020018280546119d49061462b565b8015611a215780601f106119f657610100808354040283529160200191611a21565b820191906000526020600020905b815481529060010190602001808311611a0457829003601f168201915b50505050508152602001600582018054611a3a9061462b565b80601f0160208091040260200160405190810160405280929190818152602001828054611a669061462b565b8015611ab35780601f10611a8857610100808354040283529160200191611ab3565b820191906000526020600020905b815481529060010190602001808311611a9657829003601f168201915b5050505050815260200160068201548152602001600782015481526020016008820154815260200160098201548152602001600a8201805480602002602001604051908101604052809291908181526020018280548015611b3357602002820191906000526020600020905b815481526020019060010190808311611b1f575b5050505050815250509050919050565b878073ffffffffffffffffffffffffffffffffffffffff16600760008373ffffffffffffffffffffffffffffffffffffffff1673ffffffffffffffffffffffffffffffffffffffff16815260200190815260200160002060000160009054906101000a900473ffffffffffffffffffffffffffffffffffffffff1673ffffffffffffffffffffffffffffffffffffffff1614611c14576040517f08c379a0000000000000000000000000000000000000000000000000000000008152600401611c0b90614bcc565b60405180910390fd5b600b6000815480929190611c279061452d565b9190505550611c3461363a565b89816000019073ffffffffffffffffffffffffffffffffffffffff16908173ffffffffffffffffffffffffffffffffffffffff1681525050600b54816020018181525050888160400181905250868160600181905250858160800181905250878160a00181905250848160c0018181525050838160e001818152505082816101200181815250506000816101000181815250508060086000600b54815260200190815260200160002060008201518160000160006101000a81548173ffffffffffffffffffffffffffffffffffffffff021916908373ffffffffffffffffffffffffffffffffffffffff160217905550602082015181600101556040820151816002019081611d439190614917565b506060820151816003019081611d599190614917565b506080820151816004019081611d6f9190614917565b5060a0820151816005019081611d859190614917565b5060c0820151816006015560e082015181600701556101008201518160080155610120820151816009015561014082015181600a019080519060200190611dcd9291906135af565b50905050600760008b73ffffffffffffffffffffffffffffffffffffffff1673ffffffffffffffffffffffffffffffffffffffff168152602001908152602001600020600101600b5490806001815401808255809150506001900390600052602060002001600090919091909150557fb1a2319a5bd9e11229cca9b1693bbc2880833e3b2bf30fe389f60fc6da428820600b548a8989898989604051611e799796959493929190614bec565b60405180910390a150505050505050505050565b6000611e9882611256565b905060008173ffffffffffffffffffffffffffffffffffffffff166009600085815260200190815260200160002060030154604051611ed69061447d565b60006040518083038185875af1925050503d8060008114611f13576040519150601f19603f3d011682016040523d82523d6000602084013e611f18565b606091505b5050905080611f5c576040517f08c379a0000000000000000000000000000000000000000000000000000000008152600401611f53906144de565b60405180910390fd5b611f67828585611007565b50505050565b606060018054611f7c9061462b565b80601f0160208091040260200160405190810160405280929190818152602001828054611fa89061462b565b8015611ff55780601f10611fca57610100808354040283529160200191611ff5565b820191906000526020600020905b815481529060010190602001808311611fd857829003601f168201915b5050505050905090565b61201161200a61280c565b8383612b95565b5050565b612020848484610ea3565b61203461202b61280c565b85858585612d04565b50505050565b606061204582612747565b5060006006600084815260200190815260200160002080546120669061462b565b80601f01602080910402602001604051908101604052809291908181526020018280546120929061462b565b80156120df5780601f106120b4576101008083540402835291602001916120df565b820191906000526020600020905b8154815290600101906020018083116120c257829003601f168201915b5050505050905060006120f0612eb5565b90506000815103612105578192505050612148565b60008251111561213a578082604051602001612122929190614cac565b60405160208183030381529060405292505050612148565b61214384612ecc565b925050505b919050565b828073ffffffffffffffffffffffffffffffffffffffff16600760008373ffffffffffffffffffffffffffffffffffffffff1673ffffffffffffffffffffffffffffffffffffffff16815260200190815260200160002060000160009054906101000a900473ffffffffffffffffffffffffffffffffffffffff1673ffffffffffffffffffffffffffffffffffffffff161461221e576040517f08c379a000000000000000000000000000000000000000000000000000000000815260040161221590614bcc565b60405180910390fd5b82600760008673ffffffffffffffffffffffffffffffffffffffff1673ffffffffffffffffffffffffffffffffffffffff168152602001908152602001600020600201908161226d9190614917565b5081600760008673ffffffffffffffffffffffffffffffffffffffff1673ffffffffffffffffffffffffffffffffffffffff16815260200190815260200160002060030190816122bd9190614917565b5050505050565b6000600b54905090565b6122d66135fc565b818073ffffffffffffffffffffffffffffffffffffffff16600760008373ffffffffffffffffffffffffffffffffffffffff1673ffffffffffffffffffffffffffffffffffffffff16815260200190815260200160002060000160009054906101000a900473ffffffffffffffffffffffffffffffffffffffff1673ffffffffffffffffffffffffffffffffffffffff16146123a7576040517f08c379a000000000000000000000000000000000000000000000000000000000815260040161239e90614bcc565b60405180910390fd5b600760008473ffffffffffffffffffffffffffffffffffffffff1673ffffffffffffffffffffffffffffffffffffffff1681526020019081526020016000206040518060800160405290816000820160009054906101000a900473ffffffffffffffffffffffffffffffffffffffff1673ffffffffffffffffffffffffffffffffffffffff1673ffffffffffffffffffffffffffffffffffffffff1681526020016001820180548060200260200160405190810160405280929190818152602001828054801561249657602002820191906000526020600020905b815481526020019060010190808311612482575b505050505081526020016002820180546124af9061462b565b80601f01602080910402602001604051908101604052809291908181526020018280546124db9061462b565b80156125285780601f106124fd57610100808354040283529160200191612528565b820191906000526020600020905b81548152906001019060200180831161250b57829003601f168201915b505050505081526020016003820180546125419061462b565b80601f016020809104026020016040519081016040528092919081815260200182805461256d9061462b565b80156125ba5780601f1061258f576101008083540402835291602001916125ba565b820191906000526020600020905b81548152906001019060200180831161259d57829003601f168201915b505050505081525050915050919050565b6000600560008473ffffffffffffffffffffffffffffffffffffffff1673ffffffffffffffffffffffffffffffffffffffff16815260200190815260200160002060008373ffffffffffffffffffffffffffffffffffffffff1673ffffffffffffffffffffffffffffffffffffffff16815260200190815260200160002060009054906101000a900460ff16905092915050565b600c5481565b60007f80ac58cd000000000000000000000000000000000000000000000000000000007bffffffffffffffffffffffffffffffffffffffffffffffffffffffff1916827bffffffffffffffffffffffffffffffffffffffffffffffffffffffff1916148061273057507f5b5e139f000000000000000000000000000000000000000000000000000000007bffffffffffffffffffffffffffffffffffffffffffffffffffffffff1916827bffffffffffffffffffffffffffffffffffffffffffffffffffffffff1916145b80612740575061273f82612f35565b5b9050919050565b60008061275383612f9f565b9050600073ffffffffffffffffffffffffffffffffffffffff168173ffffffffffffffffffffffffffffffffffffffff16036127c657826040517f7e2732890000000000000000000000000000000000000000000000000000000081526004016127bd9190613982565b60405180910390fd5b80915050919050565b60006004600083815260200190815260200160002060009054906101000a900473ffffffffffffffffffffffffffffffffffffffff169050919050565b600033905090565b6128218383836001612fdc565b505050565b60008061283284612f9f565b9050600073ffffffffffffffffffffffffffffffffffffffff168373ffffffffffffffffffffffffffffffffffffffff1614612874576128738184866131a1565b5b600073ffffffffffffffffffffffffffffffffffffffff168173ffffffffffffffffffffffffffffffffffffffff1614612905576128b6600085600080612fdc565b6001600360008373ffffffffffffffffffffffffffffffffffffffff1673ffffffffffffffffffffffffffffffffffffffff168152602001908152602001600020600082825403925050819055505b600073ffffffffffffffffffffffffffffffffffffffff168573ffffffffffffffffffffffffffffffffffffffff1614612988576001600360008773ffffffffffffffffffffffffffffffffffffffff1673ffffffffffffffffffffffffffffffffffffffff168152602001908152602001600020600082825401925050819055505b846002600086815260200190815260200160002060006101000a81548173ffffffffffffffffffffffffffffffffffffffff021916908373ffffffffffffffffffffffffffffffffffffffff160217905550838573ffffffffffffffffffffffffffffffffffffffff168273ffffffffffffffffffffffffffffffffffffffff167fddf252ad1be2c89b69c2b068fc378daa952ba7f163c4a11628f55a4df523b3ef60405160405180910390a4809150509392505050565b600073ffffffffffffffffffffffffffffffffffffffff168273ffffffffffffffffffffffffffffffffffffffff1603612ab25760006040517f64a0ae92000000000000000000000000000000000000000000000000000000008152600401612aa99190613958565b60405180910390fd5b6000612ac083836000612826565b9050600073ffffffffffffffffffffffffffffffffffffffff168173ffffffffffffffffffffffffffffffffffffffff1614612b345760006040517f73c6ac6e000000000000000000000000000000000000000000000000000000008152600401612b2b9190613958565b60405180910390fd5b505050565b80600660008481526020019081526020016000209081612b599190614917565b507ff8e1a15aba9398e019f0b49df1a4fde98ee17ae345cb5f6b5e2c27f5033e8ce782604051612b899190613982565b60405180910390a15050565b600073ffffffffffffffffffffffffffffffffffffffff168273ffffffffffffffffffffffffffffffffffffffff1603612c0657816040517f5b08ba18000000000000000000000000000000000000000000000000000000008152600401612bfd9190613958565b60405180910390fd5b80600560008573ffffffffffffffffffffffffffffffffffffffff1673ffffffffffffffffffffffffffffffffffffffff16815260200190815260200160002060008473ffffffffffffffffffffffffffffffffffffffff1673ffffffffffffffffffffffffffffffffffffffff16815260200190815260200160002060006101000a81548160ff0219169083151502179055508173ffffffffffffffffffffffffffffffffffffffff168373ffffffffffffffffffffffffffffffffffffffff167f17307eab39ab6107e8899845ad3d59bd9653f200f220920489ca2b5937696c3183604051612cf7919061377b565b60405180910390a3505050565b60008373ffffffffffffffffffffffffffffffffffffffff163b1115612eae578273ffffffffffffffffffffffffffffffffffffffff1663150b7a02868685856040518563ffffffff1660e01b8152600401612d639493929190614d25565b6020604051808303816000875af1925050508015612d9f57506040513d601f19601f82011682018060405250810190612d9c9190614d86565b60015b612e23573d8060008114612dcf576040519150601f19603f3d011682016040523d82523d6000602084013e612dd4565b606091505b506000815103612e1b57836040517f64a0ae92000000000000000000000000000000000000000000000000000000008152600401612e129190613958565b60405180910390fd5b805181602001fd5b63150b7a0260e01b7bffffffffffffffffffffffffffffffffffffffffffffffffffffffff1916817bffffffffffffffffffffffffffffffffffffffffffffffffffffffff191614612eac57836040517f64a0ae92000000000000000000000000000000000000000000000000000000008152600401612ea39190613958565b60405180910390fd5b505b5050505050565b606060405180602001604052806000815250905090565b6060612ed782612747565b506000612ee2612eb5565b90506000815111612f025760405180602001604052806000815250612f2d565b80612f0c84613265565b604051602001612f1d929190614cac565b6040516020818303038152906040525b915050919050565b60007f01ffc9a7000000000000000000000000000000000000000000000000000000007bffffffffffffffffffffffffffffffffffffffffffffffffffffffff1916827bffffffffffffffffffffffffffffffffffffffffffffffffffffffff1916149050919050565b60006002600083815260200190815260200160002060009054906101000a900473ffffffffffffffffffffffffffffffffffffffff169050919050565b80806130155750600073ffffffffffffffffffffffffffffffffffffffff168273ffffffffffffffffffffffffffffffffffffffff1614155b1561314957600061302584612747565b9050600073ffffffffffffffffffffffffffffffffffffffff168373ffffffffffffffffffffffffffffffffffffffff161415801561309057508273ffffffffffffffffffffffffffffffffffffffff168173ffffffffffffffffffffffffffffffffffffffff1614155b80156130a357506130a181846125cb565b155b156130e557826040517fa9fbf51f0000000000000000000000000000000000000000000000000000000081526004016130dc9190613958565b60405180910390fd5b811561314757838573ffffffffffffffffffffffffffffffffffffffff168273ffffffffffffffffffffffffffffffffffffffff167f8c5be1e5ebec7d5bd14f71427d1e84f3dd0314c0f7b2291e5b200ac8c7c3b92560405160405180910390a45b505b836004600085815260200190815260200160002060006101000a81548173ffffffffffffffffffffffffffffffffffffffff021916908373ffffffffffffffffffffffffffffffffffffffff16021790555050505050565b6131ac838383613333565b61326057600073ffffffffffffffffffffffffffffffffffffffff168373ffffffffffffffffffffffffffffffffffffffff160361322157806040517f7e2732890000000000000000000000000000000000000000000000000000000081526004016132189190613982565b60405180910390fd5b81816040517f177e802f000000000000000000000000000000000000000000000000000000008152600401613257929190614db3565b60405180910390fd5b505050565b606060006001613274846133f4565b01905060008167ffffffffffffffff81111561329357613292613dc9565b5b6040519080825280601f01601f1916602001820160405280156132c55781602001600182028036833780820191505090505b509050600082602001820190505b600115613328578080600190039150507f3031323334353637383961626364656600000000000000000000000000000000600a86061a8153600a858161331c5761331b614ddc565b5b049450600085036132d3575b819350505050919050565b60008073ffffffffffffffffffffffffffffffffffffffff168373ffffffffffffffffffffffffffffffffffffffff16141580156133eb57508273ffffffffffffffffffffffffffffffffffffffff168473ffffffffffffffffffffffffffffffffffffffff1614806133ac57506133ab84846125cb565b5b806133ea57508273ffffffffffffffffffffffffffffffffffffffff166133d2836127cf565b73ffffffffffffffffffffffffffffffffffffffff16145b5b90509392505050565b600080600090507a184f03e93ff9f4daa797ed6e38ed64bf6a1f0100000000000000008310613452577a184f03e93ff9f4daa797ed6e38ed64bf6a1f010000000000000000838161344857613447614ddc565b5b0492506040810190505b6d04ee2d6d415b85acef8100000000831061348f576d04ee2d6d415b85acef8100000000838161348557613484614ddc565b5b0492506020810190505b662386f26fc1000083106134be57662386f26fc1000083816134b4576134b3614ddc565b5b0492506010810190505b6305f5e10083106134e7576305f5e10083816134dd576134dc614ddc565b5b0492506008810190505b612710831061350c57612710838161350257613501614ddc565b5b0492506004810190505b6064831061352f576064838161352557613524614ddc565b5b0492506002810190505b600a831061353e576001810190505b80915050919050565b6040518060a00160405280600081526020016000815260200160008152602001600081526020016000151581525090565b6040518060600160405280600073ffffffffffffffffffffffffffffffffffffffff16815260200160608152602001606081525090565b8280548282559060005260206000209081019282156135eb579160200282015b828111156135ea5782518255916020019190600101906135cf565b5b5090506135f891906136aa565b5090565b6040518060800160405280600073ffffffffffffffffffffffffffffffffffffffff1681526020016060815260200160608152602001606081525090565b604051806101600160405280600073ffffffffffffffffffffffffffffffffffffffff168152602001600081526020016060815260200160608152602001606081526020016060815260200160008152602001600081526020016000815260200160008152602001606081525090565b5b808211156136c35760008160009055506001016136ab565b5090565b6000604051905090565b600080fd5b600080fd5b60007fffffffff0000000000000000000000000000000000000000000000000000000082169050919050565b613710816136db565b811461371b57600080fd5b50565b60008135905061372d81613707565b92915050565b600060208284031215613749576137486136d1565b5b60006137578482850161371e565b91505092915050565b60008115159050919050565b61377581613760565b82525050565b6000602082019050613790600083018461376c565b92915050565b600073ffffffffffffffffffffffffffffffffffffffff82169050919050565b60006137c182613796565b9050919050565b6137d1816137b6565b81146137dc57600080fd5b50565b6000813590506137ee816137c8565b92915050565b6000819050919050565b613807816137f4565b811461381257600080fd5b50565b600081359050613824816137fe565b92915050565b60008060408385031215613841576138406136d1565b5b600061384f858286016137df565b925050602061386085828601613815565b9150509250929050565b600081519050919050565b600082825260208201905092915050565b60005b838110156138a4578082015181840152602081019050613889565b60008484015250505050565b6000601f19601f8301169050919050565b60006138cc8261386a565b6138d68185613875565b93506138e6818560208601613886565b6138ef816138b0565b840191505092915050565b6000602082019050818103600083015261391481846138c1565b905092915050565b600060208284031215613932576139316136d1565b5b600061394084828501613815565b91505092915050565b613952816137b6565b82525050565b600060208201905061396d6000830184613949565b92915050565b61397c816137f4565b82525050565b60006020820190506139976000830184613973565b92915050565b6000806000606084860312156139b6576139b56136d1565b5b60006139c4868287016137df565b93505060206139d5868287016137df565b92505060406139e686828701613815565b9150509250925092565b600060208284031215613a0657613a056136d1565b5b6000613a14848285016137df565b91505092915050565b613a26816137b6565b82525050565b600081519050919050565b600082825260208201905092915050565b6000819050602082019050919050565b613a61816137f4565b82525050565b6000613a738383613a58565b60208301905092915050565b6000602082019050919050565b6000613a9782613a2c565b613aa18185613a37565b9350613aac83613a48565b8060005b83811015613add578151613ac48882613a67565b9750613acf83613a7f565b925050600181019050613ab0565b5085935050505092915050565b6000606083016000830151613b026000860182613a1d565b5060208301518482036020860152613b1a8282613a8c565b91505060408301518482036040860152613b348282613a8c565b9150508091505092915050565b60006020820190508181036000830152613b5b8184613aea565b905092915050565b600080600060608486031215613b7c57613b7b6136d1565b5b6000613b8a86828701613815565b9350506020613b9b86828701613815565b9250506040613bac868287016137df565b9150509250925092565b613bbf81613760565b82525050565b60a082016000820151613bdb6000850182613a58565b506020820151613bee6020850182613a58565b506040820151613c016040850182613a58565b506060820151613c146060850182613a58565b506080820151613c276080850182613bb6565b50505050565b600060a082019050613c426000830184613bc5565b92915050565b600082825260208201905092915050565b6000613c648261386a565b613c6e8185613c48565b9350613c7e818560208601613886565b613c87816138b0565b840191505092915050565b600061016083016000830151613cab6000860182613a1d565b506020830151613cbe6020860182613a58565b5060408301518482036040860152613cd68282613c59565b91505060608301518482036060860152613cf08282613c59565b91505060808301518482036080860152613d0a8282613c59565b91505060a083015184820360a0860152613d248282613c59565b91505060c0830151613d3960c0860182613a58565b5060e0830151613d4c60e0860182613a58565b50610100830151613d61610100860182613a58565b50610120830151613d76610120860182613a58565b50610140830151848203610140860152613d908282613a8c565b9150508091505092915050565b60006020820190508181036000830152613db78184613c92565b905092915050565b600080fd5b600080fd5b7f4e487b7100000000000000000000000000000000000000000000000000000000600052604160045260246000fd5b613e01826138b0565b810181811067ffffffffffffffff82111715613e2057613e1f613dc9565b5b80604052505050565b6000613e336136c7565b9050613e3f8282613df8565b919050565b600067ffffffffffffffff821115613e5f57613e5e613dc9565b5b613e68826138b0565b9050602081019050919050565b82818337600083830152505050565b6000613e97613e9284613e44565b613e29565b905082815260208101848484011115613eb357613eb2613dc4565b5b613ebe848285613e75565b509392505050565b600082601f830112613edb57613eda613dbf565b5b8135613eeb848260208601613e84565b91505092915050565b600080600080600080600080610100898b031215613f1557613f146136d1565b5b6000613f238b828c016137df565b985050602089013567ffffffffffffffff811115613f4457613f436136d6565b5b613f508b828c01613ec6565b975050604089013567ffffffffffffffff811115613f7157613f706136d6565b5b613f7d8b828c01613ec6565b965050606089013567ffffffffffffffff811115613f9e57613f9d6136d6565b5b613faa8b828c01613ec6565b955050608089013567ffffffffffffffff811115613fcb57613fca6136d6565b5b613fd78b828c01613ec6565b94505060a0613fe88b828c01613815565b93505060c0613ff98b828c01613815565b92505060e061400a8b828c01613815565b9150509295985092959890939650565b61402381613760565b811461402e57600080fd5b50565b6000813590506140408161401a565b92915050565b6000806040838503121561405d5761405c6136d1565b5b600061406b858286016137df565b925050602061407c85828601614031565b9150509250929050565b600067ffffffffffffffff8211156140a1576140a0613dc9565b5b6140aa826138b0565b9050602081019050919050565b60006140ca6140c584614086565b613e29565b9050828152602081018484840111156140e6576140e5613dc4565b5b6140f1848285613e75565b509392505050565b600082601f83011261410e5761410d613dbf565b5b813561411e8482602086016140b7565b91505092915050565b60008060008060808587031215614141576141406136d1565b5b600061414f878288016137df565b9450506020614160878288016137df565b935050604061417187828801613815565b925050606085013567ffffffffffffffff811115614192576141916136d6565b5b61419e878288016140f9565b91505092959194509250565b6000806000606084860312156141c3576141c26136d1565b5b60006141d1868287016137df565b935050602084013567ffffffffffffffff8111156141f2576141f16136d6565b5b6141fe86828701613ec6565b925050604084013567ffffffffffffffff81111561421f5761421e6136d6565b5b61422b86828701613ec6565b9150509250925092565b600060808301600083015161424d6000860182613a1d565b50602083015184820360208601526142658282613a8c565b9150506040830151848203604086015261427f8282613c59565b915050606083015184820360608601526142998282613c59565b9150508091505092915050565b600060208201905081810360008301526142c08184614235565b905092915050565b600080604083850312156142df576142de6136d1565b5b60006142ed858286016137df565b92505060206142fe858286016137df565b9150509250929050565b7f4576656e7420646f6573206e6f74206578697374000000000000000000000000600082015250565b600061433e601483613875565b915061434982614308565b602082019050919050565b6000602082019050818103600083015261436d81614331565b9050919050565b7f5469636b6574732061726520736f6c64206f7574000000000000000000000000600082015250565b60006143aa601483613875565b91506143b582614374565b602082019050919050565b600060208201905081810360008301526143d98161439d565b9050919050565b7f507269636520697320746f6f206c6f7700000000000000000000000000000000600082015250565b6000614416601083613875565b9150614421826143e0565b602082019050919050565b6000602082019050818103600083015261444581614409565b9050919050565b600081905092915050565b50565b600061446760008361444c565b915061447282614457565b600082019050919050565b60006144888261445a565b9150819050919050565b7f5472616e73666572206661696c65640000000000000000000000000000000000600082015250565b60006144c8600f83613875565b91506144d382614492565b602082019050919050565b600060208201905081810360008301526144f7816144bb565b9050919050565b7f4e487b7100000000000000000000000000000000000000000000000000000000600052601160045260246000fd5b6000614538826137f4565b91507fffffffffffffffffffffffffffffffffffffffffffffffffffffffffffffffff820361456a576145696144fe565b5b600182019050919050565b6000614580826137f4565b915061458b836137f4565b92508282019050808211156145a3576145a26144fe565b5b92915050565b600060a0820190506145be6000830188613973565b6145cb6020830187613973565b6145d86040830186613973565b6145e56060830185613973565b6145f26080830184613973565b9695505050505050565b7f4e487b7100000000000000000000000000000000000000000000000000000000600052602260045260246000fd5b6000600282049050600182168061464357607f821691505b602082108103614656576146556145fc565b5b50919050565b60006060820190506146716000830186613949565b61467e6020830185613973565b61468b6040830184613949565b949350505050565b7f446964206e6f742062757920616e79204e465473000000000000000000000000600082015250565b60006146c9601483613875565b91506146d482614693565b602082019050919050565b600060208201905081810360008301526146f8816146bc565b9050919050565b7f416c726561647920616e204f7267616e69736572000000000000000000000000600082015250565b6000614735601483613875565b9150614740826146ff565b602082019050919050565b6000602082019050818103600083015261476481614728565b9050919050565b60008190508160005260206000209050919050565b60006020601f8301049050919050565b600082821b905092915050565b6000600883026147cd7fffffffffffffffffffffffffffffffffffffffffffffffffffffffffffffffff82614790565b6147d78683614790565b95508019841693508086168417925050509392505050565b6000819050919050565b600061481461480f61480a846137f4565b6147ef565b6137f4565b9050919050565b6000819050919050565b61482e836147f9565b61484261483a8261481b565b84845461479d565b825550505050565b600090565b61485761484a565b614862818484614825565b505050565b5b818110156148865761487b60008261484f565b600181019050614868565b5050565b601f8211156148cb5761489c8161476b565b6148a584614780565b810160208510156148b4578190505b6148c86148c085614780565b830182614867565b50505b505050565b600082821c905092915050565b60006148ee600019846008026148d0565b1980831691505092915050565b600061490783836148dd565b9150826002028217905092915050565b6149208261386a565b67ffffffffffffffff81111561493957614938613dc9565b5b614943825461462b565b61494e82828561488a565b600060209050601f831160018114614981576000841561496f578287015190505b61497985826148fb565b8655506149e1565b601f19841661498f8661476b565b60005b828110156149b757848901518255600182019150602085019450602081019050614992565b868310156149d457848901516149d0601f8916826148dd565b8355505b6001600288020188555050505b505050505050565b600060a0820190506149fe6000830188613973565b614a0b6020830187613973565b614a186040830186613949565b614a256060830185613949565b614a326080830184613973565b9695505050505050565b7f5469636b657420646f6573206e6f742065786973740000000000000000000000600082015250565b6000614a72601583613875565b9150614a7d82614a3c565b602082019050919050565b60006020820190508181036000830152614aa181614a65565b9050919050565b7f596f7520617265206e6f7420746865206f776e65720000000000000000000000600082015250565b6000614ade601583613875565b9150614ae982614aa8565b602082019050919050565b60006020820190508181036000830152614b0d81614ad1565b9050919050565b7f5072696365206d7573742062652067726561746572207468616e207a65726f00600082015250565b6000614b4a601f83613875565b9150614b5582614b14565b602082019050919050565b60006020820190508181036000830152614b7981614b3d565b9050919050565b7f596f7520617265206e6f7420616e206f7267616e697365720000000000000000600082015250565b6000614bb6601883613875565b9150614bc182614b80565b602082019050919050565b60006020820190508181036000830152614be581614ba9565b9050919050565b600060e082019050614c01600083018a613973565b8181036020830152614c1381896138c1565b90508181036040830152614c2781886138c1565b90508181036060830152614c3b81876138c1565b9050614c4a6080830186613973565b614c5760a0830185613973565b614c6460c0830184613973565b98975050505050505050565b600081905092915050565b6000614c868261386a565b614c908185614c70565b9350614ca0818560208601613886565b80840191505092915050565b6000614cb88285614c7b565b9150614cc48284614c7b565b91508190509392505050565b600081519050919050565b600082825260208201905092915050565b6000614cf782614cd0565b614d018185614cdb565b9350614d11818560208601613886565b614d1a816138b0565b840191505092915050565b6000608082019050614d3a6000830187613949565b614d476020830186613949565b614d546040830185613973565b8181036060830152614d668184614cec565b905095945050505050565b600081519050614d8081613707565b92915050565b600060208284031215614d9c57614d9b6136d1565b5b6000614daa84828501614d71565b91505092915050565b6000604082019050614dc86000830185613949565b614dd56020830184613973565b9392505050565b7f4e487b7100000000000000000000000000000000000000000000000000000000600052601260045260246000fdfea26469706673582212203b449b951ffea44caec83b903d5c363160aaf7e555a20ac531776674c3bfd36664736f6c634300081c0033",
  "linkReferences": {},
  "deployedLinkReferences": {}
}