{
  "_format": "hh-sol-artifact-1",
  "contractName": "NFTminting",
  "sourceName": "contracts/NFTminting.sol",
  "abi": [
    {
      "inputs": [],
      "stateMutability": "nonpayable",
      "type": "constructor"
    },
    {
      "inputs": [
        {
          "internalType": "address",
          "name": "sender",
          "type": "address"
        },
        {
          "internalType": "uint256",
          "name": "tokenId",
          "type": "uint256"
        },
        {
          "internalType": "address",
          "name": "owner",
          "type": "address"
        }
      ],
      "name": "ERC721IncorrectOwner",
      "type": "error"
    },
    {
      "inputs": [
        {
          "internalType": "address",
          "name": "operator",
          "type": "address"
        },
        {
          "internalType": "uint256",
          "name": "tokenId",
          "type": "uint256"
        }
      ],
      "name": "ERC721InsufficientApproval",
      "type": "error"
    },
    {
      "inputs": [
        {
          "internalType": "address",
          "name": "approver",
          "type": "address"
        }
      ],
      "name": "ERC721InvalidApprover",
      "type": "error"
    },
    {
      "inputs": [
        {
          "internalType": "address",
          "name": "operator",
          "type": "address"
        }
      ],
      "name": "ERC721InvalidOperator",
      "type": "error"
    },
    {
      "inputs": [
        {
          "internalType": "address",
          "name": "owner",
          "type": "address"
        }
      ],
      "name": "ERC721InvalidOwner",
      "type": "error"
    },
    {
      "inputs": [
        {
          "internalType": "address",
          "name": "receiver",
          "type": "address"
        }
      ],
      "name": "ERC721InvalidReceiver",
      "type": "error"
    },
    {
      "inputs": [
        {
          "internalType": "address",
          "name": "sender",
          "type": "address"
        }
      ],
      "name": "ERC721InvalidSender",
      "type": "error"
    },
    {
      "inputs": [
        {
          "internalType": "uint256",
          "name": "tokenId",
          "type": "uint256"
        }
      ],
      "name": "ERC721NonexistentToken",
      "type": "error"
    },
    {
      "anonymous": false,
      "inputs": [
        {
          "indexed": true,
          "internalType": "address",
          "name": "owner",
          "type": "address"
        },
        {
          "indexed": true,
          "internalType": "address",
          "name": "approved",
          "type": "address"
        },
        {
          "indexed": true,
          "internalType": "uint256",
          "name": "tokenId",
          "type": "uint256"
        }
      ],
      "name": "Approval",
      "type": "event"
    },
    {
      "anonymous": false,
      "inputs": [
        {
          "indexed": true,
          "internalType": "address",
          "name": "owner",
          "type": "address"
        },
        {
          "indexed": true,
          "internalType": "address",
          "name": "operator",
          "type": "address"
        },
        {
          "indexed": false,
          "internalType": "bool",
          "name": "approved",
          "type": "bool"
        }
      ],
      "name": "ApprovalForAll",
      "type": "event"
    },
    {
      "anonymous": false,
      "inputs": [
        {
          "indexed": false,
          "internalType": "uint256",
          "name": "_fromTokenId",
          "type": "uint256"
        },
        {
          "indexed": false,
          "internalType": "uint256",
          "name": "_toTokenId",
          "type": "uint256"
        }
      ],
      "name": "BatchMetadataUpdate",
      "type": "event"
    },
    {
      "anonymous": false,
      "inputs": [
        {
          "indexed": false,
          "internalType": "uint256",
          "name": "_tokenId",
          "type": "uint256"
        }
      ],
      "name": "MetadataUpdate",
      "type": "event"
    },
    {
      "anonymous": false,
      "inputs": [
        {
          "indexed": true,
          "internalType": "address",
          "name": "from",
          "type": "address"
        },
        {
          "indexed": true,
          "internalType": "address",
          "name": "to",
          "type": "address"
        },
        {
          "indexed": true,
          "internalType": "uint256",
          "name": "tokenId",
          "type": "uint256"
        }
      ],
      "name": "Transfer",
      "type": "event"
    },
    {
      "anonymous": false,
      "inputs": [
        {
          "indexed": false,
          "internalType": "uint256",
          "name": "eventId",
          "type": "uint256"
        },
        {
          "indexed": false,
          "internalType": "string",
          "name": "eventName",
          "type": "string"
        },
        {
          "indexed": false,
          "internalType": "string",
          "name": "eventDescription",
          "type": "string"
        },
        {
          "indexed": false,
          "internalType": "string",
          "name": "venue",
          "type": "string"
        },
        {
          "indexed": false,
          "internalType": "uint256",
          "name": "ticketPrice",
          "type": "uint256"
        },
        {
          "indexed": false,
          "internalType": "uint256",
          "name": "totalTickets",
          "type": "uint256"
        },
        {
          "indexed": false,
          "internalType": "uint256",
          "name": "resalePrice",
          "type": "uint256"
        }
      ],
      "name": "newEventCreated",
      "type": "event"
    },
    {
      "anonymous": false,
      "inputs": [
        {
          "indexed": false,
          "internalType": "uint256",
          "name": "ticketId",
          "type": "uint256"
        },
        {
          "indexed": false,
          "internalType": "uint256",
          "name": "eventId",
          "type": "uint256"
        },
        {
          "indexed": false,
          "internalType": "uint256",
          "name": "seatNum",
          "type": "uint256"
        },
        {
          "indexed": false,
          "internalType": "uint256",
          "name": "Price",
          "type": "uint256"
        }
      ],
      "name": "newTicketCreated",
      "type": "event"
    },
    {
      "inputs": [
        {
          "internalType": "address",
          "name": "to",
          "type": "address"
        },
        {
          "internalType": "uint256",
          "name": "tokenId",
          "type": "uint256"
        }
      ],
      "name": "approve",
      "outputs": [],
      "stateMutability": "nonpayable",
      "type": "function"
    },
    {
      "inputs": [
        {
          "internalType": "address",
          "name": "owner",
          "type": "address"
        }
      ],
      "name": "balanceOf",
      "outputs": [
        {
          "internalType": "uint256",
          "name": "",
          "type": "uint256"
        }
      ],
      "stateMutability": "view",
      "type": "function"
    },
    {
      "inputs": [
        {
          "internalType": "address",
          "name": "addr",
          "type": "address"
        },
        {
          "internalType": "uint256",
          "name": "_eventId",
          "type": "uint256"
        },
        {
          "internalType": "uint256",
          "name": "_seatNum",
          "type": "uint256"
        },
        {
          "internalType": "uint256",
          "name": "_price",
          "type": "uint256"
        }
      ],
      "name": "createNFTticket",
      "outputs": [],
      "stateMutability": "nonpayable",
      "type": "function"
    },
    {
      "inputs": [
        {
          "internalType": "uint256",
          "name": "tokenId",
          "type": "uint256"
        }
      ],
      "name": "getApproved",
      "outputs": [
        {
          "internalType": "address",
          "name": "",
          "type": "address"
        }
      ],
      "stateMutability": "view",
      "type": "function"
    },
    {
      "inputs": [],
      "name": "getEventCount",
      "outputs": [
        {
          "internalType": "uint256",
          "name": "",
          "type": "uint256"
        }
      ],
      "stateMutability": "view",
      "type": "function"
    },
    {
      "inputs": [
        {
          "internalType": "address",
          "name": "addr",
          "type": "address"
        }
      ],
      "name": "getOrgDetails",
      "outputs": [
        {
          "components": [
            {
              "internalType": "address",
              "name": "orgAddress",
              "type": "address"
            },
            {
              "internalType": "uint256[]",
              "name": "eventIds",
              "type": "uint256[]"
            },
            {
              "internalType": "string",
              "name": "logo",
              "type": "string"
            },
            {
              "internalType": "string",
              "name": "orgName",
              "type": "string"
            }
          ],
          "internalType": "struct NFTminting.organiser",
          "name": "",
          "type": "tuple"
        }
      ],
      "stateMutability": "view",
      "type": "function"
    },
    {
      "inputs": [
        {
          "internalType": "uint256",
          "name": "_ticketId",
          "type": "uint256"
        }
      ],
      "name": "getTicket",
      "outputs": [
        {
          "components": [
            {
              "internalType": "uint256",
              "name": "ticketId",
              "type": "uint256"
            },
            {
              "internalType": "uint256",
              "name": "eventId",
              "type": "uint256"
            },
            {
              "internalType": "uint256",
              "name": "seatNum",
              "type": "uint256"
            },
            {
              "internalType": "uint256",
              "name": "Price",
              "type": "uint256"
            },
            {
              "internalType": "bool",
              "name": "isAvailablebid",
              "type": "bool"
            }
          ],
          "internalType": "struct NFTminting.ticket",
          "name": "",
          "type": "tuple"
        }
      ],
      "stateMutability": "view",
      "type": "function"
    },
    {
      "inputs": [
        {
          "internalType": "uint256",
          "name": "_eventId",
          "type": "uint256"
        }
      ],
      "name": "getevent",
      "outputs": [
        {
          "components": [
            {
              "internalType": "address",
              "name": "orgAddress",
              "type": "address"
            },
            {
              "internalType": "uint256",
              "name": "eventId",
              "type": "uint256"
            },
            {
              "internalType": "string",
              "name": "eventName",
              "type": "string"
            },
            {
              "internalType": "string",
              "name": "eventDescription",
              "type": "string"
            },
            {
              "internalType": "string",
              "name": "venue",
              "type": "string"
            },
            {
              "internalType": "string",
              "name": "uri",
              "type": "string"
            },
            {
              "internalType": "uint256",
              "name": "ticketPrice",
              "type": "uint256"
            },
            {
              "internalType": "uint256",
              "name": "totalTickets",
              "type": "uint256"
            },
            {
              "internalType": "uint256",
              "name": "ticketsSold",
              "type": "uint256"
            },
            {
              "internalType": "uint256",
              "name": "resalePrice",
              "type": "uint256"
            },
            {
              "internalType": "uint256[]",
              "name": "ticketIds",
              "type": "uint256[]"
            }
          ],
          "internalType": "struct NFTminting.Event",
          "name": "",
          "type": "tuple"
        }
      ],
      "stateMutability": "view",
      "type": "function"
    },
    {
      "inputs": [
        {
          "internalType": "address",
          "name": "owner",
          "type": "address"
        },
        {
          "internalType": "address",
          "name": "operator",
          "type": "address"
        }
      ],
      "name": "isApprovedForAll",
      "outputs": [
        {
          "internalType": "bool",
          "name": "",
          "type": "bool"
        }
      ],
      "stateMutability": "view",
      "type": "function"
    },
    {
      "inputs": [
        {
          "internalType": "uint256",
          "name": "_ticketId",
          "type": "uint256"
        },
        {
          "internalType": "uint256",
          "name": "_eventId",
          "type": "uint256"
        },
        {
          "internalType": "address",
          "name": "to",
          "type": "address"
        }
      ],
      "name": "mintNFT",
      "outputs": [],
      "stateMutability": "nonpayable",
      "type": "function"
    },
    {
      "inputs": [],
      "name": "name",
      "outputs": [
        {
          "internalType": "string",
          "name": "",
          "type": "string"
        }
      ],
      "stateMutability": "view",
      "type": "function"
    },
    {
      "inputs": [
        {
          "internalType": "address",
          "name": "addr",
          "type": "address"
        },
        {
          "internalType": "string",
          "name": "_eventName",
          "type": "string"
        },
        {
          "internalType": "string",
          "name": "uri",
          "type": "string"
        },
        {
          "internalType": "string",
          "name": "_eventDescription",
          "type": "string"
        },
        {
          "internalType": "string",
          "name": "_venue",
          "type": "string"
        },
        {
          "internalType": "uint256",
          "name": "_ticketPrice",
          "type": "uint256"
        },
        {
          "internalType": "uint256",
          "name": "_totalTickets",
          "type": "uint256"
        },
        {
          "internalType": "uint256",
          "name": "_resalePrice",
          "type": "uint256"
        }
      ],
      "name": "newEvent",
      "outputs": [],
      "stateMutability": "nonpayable",
      "type": "function"
    },
    {
      "inputs": [
        {
          "internalType": "address",
          "name": "addr",
          "type": "address"
        }
      ],
      "name": "newOrganiser",
      "outputs": [],
      "stateMutability": "nonpayable",
      "type": "function"
    },
    {
      "inputs": [
        {
          "internalType": "uint256",
          "name": "tokenId",
          "type": "uint256"
        }
      ],
      "name": "ownerOf",
      "outputs": [
        {
          "internalType": "address",
          "name": "",
          "type": "address"
        }
      ],
      "stateMutability": "view",
      "type": "function"
    },
    {
      "inputs": [
        {
          "internalType": "address",
          "name": "from",
          "type": "address"
        },
        {
          "internalType": "address",
          "name": "to",
          "type": "address"
        },
        {
          "internalType": "uint256",
          "name": "tokenId",
          "type": "uint256"
        }
      ],
      "name": "safeTransferFrom",
      "outputs": [],
      "stateMutability": "nonpayable",
      "type": "function"
    },
    {
      "inputs": [
        {
          "internalType": "address",
          "name": "from",
          "type": "address"
        },
        {
          "internalType": "address",
          "name": "to",
          "type": "address"
        },
        {
          "internalType": "uint256",
          "name": "tokenId",
          "type": "uint256"
        },
        {
          "internalType": "bytes",
          "name": "data",
          "type": "bytes"
        }
      ],
      "name": "safeTransferFrom",
      "outputs": [],
      "stateMutability": "nonpayable",
      "type": "function"
    },
    {
      "inputs": [
        {
          "internalType": "address",
          "name": "operator",
          "type": "address"
        },
        {
          "internalType": "bool",
          "name": "approved",
          "type": "bool"
        }
      ],
      "name": "setApprovalForAll",
      "outputs": [],
      "stateMutability": "nonpayable",
      "type": "function"
    },
    {
      "inputs": [
        {
          "internalType": "bytes4",
          "name": "interfaceId",
          "type": "bytes4"
        }
      ],
      "name": "supportsInterface",
      "outputs": [
        {
          "internalType": "bool",
          "name": "",
          "type": "bool"
        }
      ],
      "stateMutability": "view",
      "type": "function"
    },
    {
      "inputs": [],
      "name": "symbol",
      "outputs": [
        {
          "internalType": "string",
          "name": "",
          "type": "string"
        }
      ],
      "stateMutability": "view",
      "type": "function"
    },
    {
      "inputs": [],
      "name": "ticketId",
      "outputs": [
        {
          "internalType": "uint256",
          "name": "",
          "type": "uint256"
        }
      ],
      "stateMutability": "view",
      "type": "function"
    },
    {
      "inputs": [
        {
          "internalType": "uint256",
          "name": "tokenId",
          "type": "uint256"
        }
      ],
      "name": "tokenURI",
      "outputs": [
        {
          "internalType": "string",
          "name": "",
          "type": "string"
        }
      ],
      "stateMutability": "view",
      "type": "function"
    },
    {
      "inputs": [
        {
          "internalType": "address",
          "name": "from",
          "type": "address"
        },
        {
          "internalType": "address",
          "name": "to",
          "type": "address"
        },
        {
          "internalType": "uint256",
          "name": "tokenId",
          "type": "uint256"
        }
      ],
      "name": "transferFrom",
      "outputs": [],
      "stateMutability": "nonpayable",
      "type": "function"
    },
    {
      "inputs": [
        {
          "internalType": "address",
          "name": "_to",
          "type": "address"
        },
        {
          "internalType": "uint256",
          "name": "_ticketId",
          "type": "uint256"
        }
      ],
      "name": "transferNFT",
      "outputs": [],
      "stateMutability": "nonpayable",
      "type": "function"
    },
    {
      "inputs": [
        {
          "internalType": "address",
          "name": "addr",
          "type": "address"
        },
        {
          "internalType": "string",
          "name": "_logo",
          "type": "string"
        },
        {
          "internalType": "string",
          "name": "_orgName",
          "type": "string"
        }
      ],
      "name": "updateOrgDetails",
      "outputs": [],
      "stateMutability": "nonpayable",
      "type": "function"
    }
  ],
  "bytecode": "0x60806040526000600b556000600c5534801561001a57600080fd5b506040518060400160405280600b81526020017f4e46545f4d494e54494e470000000000000000000000000000000000000000008152506040518060400160405280600481526020017f4e46544d00000000000000000000000000000000000000000000000000000000815250816000908161009691906102fe565b5080600190816100a691906102fe565b5050506103d0565b600081519050919050565b7f4e487b7100000000000000000000000000000000000000000000000000000000600052604160045260246000fd5b7f4e487b7100000000000000000000000000000000000000000000000000000000600052602260045260246000fd5b6000600282049050600182168061012f57607f821691505b602082108103610142576101416100e8565b5b50919050565b60008190508160005260206000209050919050565b60006020601f8301049050919050565b600082821b905092915050565b6000600883026101aa7fffffffffffffffffffffffffffffffffffffffffffffffffffffffffffffffff8261016d565b6101b4868361016d565b95508019841693508086168417925050509392505050565b6000819050919050565b6000819050919050565b60006101fb6101f66101f1846101cc565b6101d6565b6101cc565b9050919050565b6000819050919050565b610215836101e0565b61022961022182610202565b84845461017a565b825550505050565b600090565b61023e610231565b61024981848461020c565b505050565b5b8181101561026d57610262600082610236565b60018101905061024f565b5050565b601f8211156102b25761028381610148565b61028c8461015d565b8101602085101561029b578190505b6102af6102a78561015d565b83018261024e565b50505b505050565b600082821c905092915050565b60006102d5600019846008026102b7565b1980831691505092915050565b60006102ee83836102c4565b9150826002028217905092915050565b610307826100ae565b67ffffffffffffffff8111156103205761031f6100b9565b5b61032a8254610117565b610335828285610271565b600060209050601f8311600181146103685760008415610356578287015190505b61036085826102e2565b8655506103c8565b601f19841661037686610148565b60005b8281101561039e57848901518255600182019150602085019450602081019050610379565b868310156103bb57848901516103b7601f8916826102c4565b8355505b6001600288020188555050505b505050505050565b6140c7806103df6000396000f3fe608060405234801561001057600080fd5b50600436106101585760003560e01c806391470318116100c3578063c885e9761161007c578063c885e976146103e5578063d9e48f5c14610401578063e785f7c21461041f578063e985e9c51461044f578063f9f0164a1461047f578063fd6db9f61461049d57610158565b8063914703181461032757806394ab67fe1461034357806395d89b411461035f578063a22cb4651461037d578063b88d4fde14610399578063c87b56dd146103b557610158565b80636352211e116101155780636352211e1461022f5780636c52ab1f1461025f57806370a082311461027b57806379f1b7ff146102ab5780637dc379fa146102c75780638bdfcab0146102f757610158565b806301ffc9a71461015d57806306fdde031461018d578063081812fc146101ab578063095ea7b3146101db57806323b872dd146101f757806342842e0e14610213575b600080fd5b61017760048036038101906101729190612cc2565b6104b9565b6040516101849190612d0a565b60405180910390f35b61019561051a565b6040516101a29190612db5565b60405180910390f35b6101c560048036038101906101c09190612e0d565b6105ac565b6040516101d29190612e7b565b60405180910390f35b6101f560048036038101906101f09190612ec2565b6105c8565b005b610211600480360381019061020c9190612f02565b6105de565b005b61022d60048036038101906102289190612f02565b6106e0565b005b61024960048036038101906102449190612e0d565b610700565b6040516102569190612e7b565b60405180910390f35b61027960048036038101906102749190612f55565b610712565b005b61029560048036038101906102909190612fa8565b6107cb565b6040516102a29190612fe4565b60405180910390f35b6102c560048036038101906102c09190612fa8565b610885565b005b6102e160048036038101906102dc9190612e0d565b610a6c565b6040516102ee9190613085565b60405180910390f35b610311600480360381019061030c9190612e0d565b610adc565b60405161031e91906132b3565b60405180910390f35b610341600480360381019061033c919061340a565b610e32565b005b61035d60048036038101906103589190612ec2565b61117c565b005b610367611199565b6040516103749190612db5565b60405180910390f35b6103976004803603810190610392919061355c565b61122b565b005b6103b360048036038101906103ae919061363d565b611241565b005b6103cf60048036038101906103ca9190612e0d565b611266565b6040516103dc9190612db5565b60405180910390f35b6103ff60048036038101906103fa91906136c0565b611379565b005b6104096114f0565b6040516104169190612fe4565b60405180910390f35b61043960048036038101906104349190612fa8565b6114fa565b60405161044691906137bc565b60405180910390f35b610469600480360381019061046491906137de565b6117f7565b6040516104769190612d0a565b60405180910390f35b61048761188b565b6040516104949190612fe4565b60405180910390f35b6104b760048036038101906104b2919061381e565b611891565b005b6000634906490660e01b7bffffffffffffffffffffffffffffffffffffffffffffffffffffffff1916827bffffffffffffffffffffffffffffffffffffffffffffffffffffffff19161480610513575061051282611c2b565b5b9050919050565b606060008054610529906138b4565b80601f0160208091040260200160405190810160405280929190818152602001828054610555906138b4565b80156105a25780601f10610577576101008083540402835291602001916105a2565b820191906000526020600020905b81548152906001019060200180831161058557829003601f168201915b5050505050905090565b60006105b782611d0d565b506105c182611d95565b9050919050565b6105da82826105d5611dd2565b611dda565b5050565b600073ffffffffffffffffffffffffffffffffffffffff168273ffffffffffffffffffffffffffffffffffffffff16036106505760006040517f64a0ae920000000000000000000000000000000000000000000000000000000081526004016106479190612e7b565b60405180910390fd5b6000610664838361065f611dd2565b611dec565b90508373ffffffffffffffffffffffffffffffffffffffff168173ffffffffffffffffffffffffffffffffffffffff16146106da578382826040517f64283d7b0000000000000000000000000000000000000000000000000000000081526004016106d1939291906138e5565b60405180910390fd5b50505050565b6106fb83838360405180602001604052806000815250611241565b505050565b600061070b82611d0d565b9050919050565b61071e81600c54612006565b6107c683600860008581526020019081526020016000206005018054610743906138b4565b80601f016020809104026020016040519081016040528092919081815260200182805461076f906138b4565b80156107bc5780601f10610791576101008083540402835291602001916107bc565b820191906000526020600020905b81548152906001019060200180831161079f57829003601f168201915b50505050506120ff565b505050565b60008073ffffffffffffffffffffffffffffffffffffffff168273ffffffffffffffffffffffffffffffffffffffff160361083e5760006040517f89c62b640000000000000000000000000000000000000000000000000000000081526004016108359190612e7b565b60405180910390fd5b600360008373ffffffffffffffffffffffffffffffffffffffff1673ffffffffffffffffffffffffffffffffffffffff168152602001908152602001600020549050919050565b8073ffffffffffffffffffffffffffffffffffffffff16600760008373ffffffffffffffffffffffffffffffffffffffff1673ffffffffffffffffffffffffffffffffffffffff16815260200190815260200160002060000160009054906101000a900473ffffffffffffffffffffffffffffffffffffffff1673ffffffffffffffffffffffffffffffffffffffff1603610955576040517f08c379a000000000000000000000000000000000000000000000000000000000815260040161094c90613968565b60405180910390fd5b61095d612b0d565b81816000019073ffffffffffffffffffffffffffffffffffffffff16908173ffffffffffffffffffffffffffffffffffffffff168152505080600760008473ffffffffffffffffffffffffffffffffffffffff1673ffffffffffffffffffffffffffffffffffffffff16815260200190815260200160002060008201518160000160006101000a81548173ffffffffffffffffffffffffffffffffffffffff021916908373ffffffffffffffffffffffffffffffffffffffff1602179055506020820151816001019080519060200190610a38929190612b4b565b506040820151816002019081610a4e9190613b34565b506060820151816003019081610a649190613b34565b509050505050565b610a74612b98565b600960008381526020019081526020016000206040518060a0016040529081600082015481526020016001820154815260200160028201548152602001600382015481526020016004820160009054906101000a900460ff1615151515815250509050919050565b610ae4612bc9565b60086000838152602001908152602001600020604051806101600160405290816000820160009054906101000a900473ffffffffffffffffffffffffffffffffffffffff1673ffffffffffffffffffffffffffffffffffffffff1673ffffffffffffffffffffffffffffffffffffffff16815260200160018201548152602001600282018054610b73906138b4565b80601f0160208091040260200160405190810160405280929190818152602001828054610b9f906138b4565b8015610bec5780601f10610bc157610100808354040283529160200191610bec565b820191906000526020600020905b815481529060010190602001808311610bcf57829003601f168201915b50505050508152602001600382018054610c05906138b4565b80601f0160208091040260200160405190810160405280929190818152602001828054610c31906138b4565b8015610c7e5780601f10610c5357610100808354040283529160200191610c7e565b820191906000526020600020905b815481529060010190602001808311610c6157829003601f168201915b50505050508152602001600482018054610c97906138b4565b80601f0160208091040260200160405190810160405280929190818152602001828054610cc3906138b4565b8015610d105780601f10610ce557610100808354040283529160200191610d10565b820191906000526020600020905b815481529060010190602001808311610cf357829003601f168201915b50505050508152602001600582018054610d29906138b4565b80601f0160208091040260200160405190810160405280929190818152602001828054610d55906138b4565b8015610da25780601f10610d7757610100808354040283529160200191610da2565b820191906000526020600020905b815481529060010190602001808311610d8557829003601f168201915b5050505050815260200160068201548152602001600782015481526020016008820154815260200160098201548152602001600a8201805480602002602001604051908101604052809291908181526020018280548015610e2257602002820191906000526020600020905b815481526020019060010190808311610e0e575b5050505050815250509050919050565b878073ffffffffffffffffffffffffffffffffffffffff16600760008373ffffffffffffffffffffffffffffffffffffffff1673ffffffffffffffffffffffffffffffffffffffff16815260200190815260200160002060000160009054906101000a900473ffffffffffffffffffffffffffffffffffffffff1673ffffffffffffffffffffffffffffffffffffffff1614610f03576040517f08c379a0000000000000000000000000000000000000000000000000000000008152600401610efa90613c52565b60405180910390fd5b600b6000815480929190610f1690613ca1565b9190505550610f23612bc9565b89816000019073ffffffffffffffffffffffffffffffffffffffff16908173ffffffffffffffffffffffffffffffffffffffff1681525050600b54816020018181525050888160400181905250868160600181905250858160800181905250878160a00181905250848160c0018181525050838160e001818152505082816101200181815250506000816101000181815250508060086000600b54815260200190815260200160002060008201518160000160006101000a81548173ffffffffffffffffffffffffffffffffffffffff021916908373ffffffffffffffffffffffffffffffffffffffff1602179055506020820151816001015560408201518160020190816110329190613b34565b5060608201518160030190816110489190613b34565b50608082015181600401908161105e9190613b34565b5060a08201518160050190816110749190613b34565b5060c0820151816006015560e082015181600701556101008201518160080155610120820151816009015561014082015181600a0190805190602001906110bc929190612b4b565b50905050600760008b73ffffffffffffffffffffffffffffffffffffffff1673ffffffffffffffffffffffffffffffffffffffff168152602001908152602001600020600101600b5490806001815401808255809150506001900390600052602060002001600090919091909150557fb1a2319a5bd9e11229cca9b1693bbc2880833e3b2bf30fe389f60fc6da428820600b548a89898989896040516111689796959493929190613ce9565b60405180910390a150505050505050505050565b600061118782610700565b90506111948184846106e0565b505050565b6060600180546111a8906138b4565b80601f01602080910402602001604051908101604052809291908181526020018280546111d4906138b4565b80156112215780601f106111f657610100808354040283529160200191611221565b820191906000526020600020905b81548152906001019060200180831161120457829003601f168201915b5050505050905090565b61123d611236611dd2565b838361215b565b5050565b61124c8484846105de565b611260611257611dd2565b858585856122ca565b50505050565b606061127182611d0d565b506000600660008481526020019081526020016000208054611292906138b4565b80601f01602080910402602001604051908101604052809291908181526020018280546112be906138b4565b801561130b5780601f106112e05761010080835404028352916020019161130b565b820191906000526020600020905b8154815290600101906020018083116112ee57829003601f168201915b50505050509050600061131c61247b565b90506000815103611331578192505050611374565b60008251111561136657808260405160200161134e929190613da9565b60405160208183030381529060405292505050611374565b61136f84612492565b925050505b919050565b828073ffffffffffffffffffffffffffffffffffffffff16600760008373ffffffffffffffffffffffffffffffffffffffff1673ffffffffffffffffffffffffffffffffffffffff16815260200190815260200160002060000160009054906101000a900473ffffffffffffffffffffffffffffffffffffffff1673ffffffffffffffffffffffffffffffffffffffff161461144a576040517f08c379a000000000000000000000000000000000000000000000000000000000815260040161144190613c52565b60405180910390fd5b82600760008673ffffffffffffffffffffffffffffffffffffffff1673ffffffffffffffffffffffffffffffffffffffff16815260200190815260200160002060020190816114999190613b34565b5081600760008673ffffffffffffffffffffffffffffffffffffffff1673ffffffffffffffffffffffffffffffffffffffff16815260200190815260200160002060030190816114e99190613b34565b5050505050565b6000600b54905090565b611502612b0d565b818073ffffffffffffffffffffffffffffffffffffffff16600760008373ffffffffffffffffffffffffffffffffffffffff1673ffffffffffffffffffffffffffffffffffffffff16815260200190815260200160002060000160009054906101000a900473ffffffffffffffffffffffffffffffffffffffff1673ffffffffffffffffffffffffffffffffffffffff16146115d3576040517f08c379a00000000000000000000000000000000000000000000000000000000081526004016115ca90613c52565b60405180910390fd5b600760008473ffffffffffffffffffffffffffffffffffffffff1673ffffffffffffffffffffffffffffffffffffffff1681526020019081526020016000206040518060800160405290816000820160009054906101000a900473ffffffffffffffffffffffffffffffffffffffff1673ffffffffffffffffffffffffffffffffffffffff1673ffffffffffffffffffffffffffffffffffffffff168152602001600182018054806020026020016040519081016040528092919081815260200182805480156116c257602002820191906000526020600020905b8154815260200190600101908083116116ae575b505050505081526020016002820180546116db906138b4565b80601f0160208091040260200160405190810160405280929190818152602001828054611707906138b4565b80156117545780601f1061172957610100808354040283529160200191611754565b820191906000526020600020905b81548152906001019060200180831161173757829003601f168201915b5050505050815260200160038201805461176d906138b4565b80601f0160208091040260200160405190810160405280929190818152602001828054611799906138b4565b80156117e65780601f106117bb576101008083540402835291602001916117e6565b820191906000526020600020905b8154815290600101906020018083116117c957829003601f168201915b505050505081525050915050919050565b6000600560008473ffffffffffffffffffffffffffffffffffffffff1673ffffffffffffffffffffffffffffffffffffffff16815260200190815260200160002060008373ffffffffffffffffffffffffffffffffffffffff1673ffffffffffffffffffffffffffffffffffffffff16815260200190815260200160002060009054906101000a900460ff16905092915050565b600c5481565b838073ffffffffffffffffffffffffffffffffffffffff16600760008373ffffffffffffffffffffffffffffffffffffffff1673ffffffffffffffffffffffffffffffffffffffff16815260200190815260200160002060000160009054906101000a900473ffffffffffffffffffffffffffffffffffffffff1673ffffffffffffffffffffffffffffffffffffffff1614611962576040517f08c379a000000000000000000000000000000000000000000000000000000000815260040161195990613c52565b60405180910390fd5b83806008600083815260200190815260200160002060010154146119bb576040517f08c379a00000000000000000000000000000000000000000000000000000000081526004016119b290613e19565b60405180910390fd5b600860008681526020019081526020016000206008015460086000878152602001908152602001600020600701541015611a2a576040517f08c379a0000000000000000000000000000000000000000000000000000000008152600401611a2190613e85565b60405180910390fd5b8260086000878152602001908152602001600020600601541115611a83576040517f08c379a0000000000000000000000000000000000000000000000000000000008152600401611a7a90613ef1565b60405180910390fd5b600c6000815480929190611a9690613ca1565b9190505550611aa3612b98565b600c548160000181815250508581602001818152505084816040018181525050600860008781526020019081526020016000206006015481606001818152505060008160800190151590811515815250508060096000600c5481526020019081526020016000206000820151816000015560208201518160010155604082015181600201556060820151816003015560808201518160040160006101000a81548160ff02191690831515021790555090505060086000878152602001908152602001600020600a01600c549080600181540180825580915050600190039060005260206000200160009091909190915055600860008781526020019081526020016000206008016000815480929190611bbb90613ca1565b9190505550611bcd600c548789610712565b7f8d5cf892ef63ee01b245017a1bf38f5e728da0a701af9750a91788b7743a3a76600c548787600860008b815260200190815260200160002060060154604051611c1a9493929190613f11565b60405180910390a150505050505050565b60007f80ac58cd000000000000000000000000000000000000000000000000000000007bffffffffffffffffffffffffffffffffffffffffffffffffffffffff1916827bffffffffffffffffffffffffffffffffffffffffffffffffffffffff19161480611cf657507f5b5e139f000000000000000000000000000000000000000000000000000000007bffffffffffffffffffffffffffffffffffffffffffffffffffffffff1916827bffffffffffffffffffffffffffffffffffffffffffffffffffffffff1916145b80611d065750611d05826124fb565b5b9050919050565b600080611d1983612565565b9050600073ffffffffffffffffffffffffffffffffffffffff168173ffffffffffffffffffffffffffffffffffffffff1603611d8c57826040517f7e273289000000000000000000000000000000000000000000000000000000008152600401611d839190612fe4565b60405180910390fd5b80915050919050565b60006004600083815260200190815260200160002060009054906101000a900473ffffffffffffffffffffffffffffffffffffffff169050919050565b600033905090565b611de783838360016125a2565b505050565b600080611df884612565565b9050600073ffffffffffffffffffffffffffffffffffffffff168373ffffffffffffffffffffffffffffffffffffffff1614611e3a57611e39818486612767565b5b600073ffffffffffffffffffffffffffffffffffffffff168173ffffffffffffffffffffffffffffffffffffffff1614611ecb57611e7c6000856000806125a2565b6001600360008373ffffffffffffffffffffffffffffffffffffffff1673ffffffffffffffffffffffffffffffffffffffff168152602001908152602001600020600082825403925050819055505b600073ffffffffffffffffffffffffffffffffffffffff168573ffffffffffffffffffffffffffffffffffffffff1614611f4e576001600360008773ffffffffffffffffffffffffffffffffffffffff1673ffffffffffffffffffffffffffffffffffffffff168152602001908152602001600020600082825401925050819055505b846002600086815260200190815260200160002060006101000a81548173ffffffffffffffffffffffffffffffffffffffff021916908373ffffffffffffffffffffffffffffffffffffffff160217905550838573ffffffffffffffffffffffffffffffffffffffff168273ffffffffffffffffffffffffffffffffffffffff167fddf252ad1be2c89b69c2b068fc378daa952ba7f163c4a11628f55a4df523b3ef60405160405180910390a4809150509392505050565b600073ffffffffffffffffffffffffffffffffffffffff168273ffffffffffffffffffffffffffffffffffffffff16036120785760006040517f64a0ae9200000000000000000000000000000000000000000000000000000000815260040161206f9190612e7b565b60405180910390fd5b600061208683836000611dec565b9050600073ffffffffffffffffffffffffffffffffffffffff168173ffffffffffffffffffffffffffffffffffffffff16146120fa5760006040517f73c6ac6e0000000000000000000000000000000000000000000000000000000081526004016120f19190612e7b565b60405180910390fd5b505050565b8060066000848152602001908152602001600020908161211f9190613b34565b507ff8e1a15aba9398e019f0b49df1a4fde98ee17ae345cb5f6b5e2c27f5033e8ce78260405161214f9190612fe4565b60405180910390a15050565b600073ffffffffffffffffffffffffffffffffffffffff168273ffffffffffffffffffffffffffffffffffffffff16036121cc57816040517f5b08ba180000000000000000000000000000000000000000000000000000000081526004016121c39190612e7b565b60405180910390fd5b80600560008573ffffffffffffffffffffffffffffffffffffffff1673ffffffffffffffffffffffffffffffffffffffff16815260200190815260200160002060008473ffffffffffffffffffffffffffffffffffffffff1673ffffffffffffffffffffffffffffffffffffffff16815260200190815260200160002060006101000a81548160ff0219169083151502179055508173ffffffffffffffffffffffffffffffffffffffff168373ffffffffffffffffffffffffffffffffffffffff167f17307eab39ab6107e8899845ad3d59bd9653f200f220920489ca2b5937696c31836040516122bd9190612d0a565b60405180910390a3505050565b60008373ffffffffffffffffffffffffffffffffffffffff163b1115612474578273ffffffffffffffffffffffffffffffffffffffff1663150b7a02868685856040518563ffffffff1660e01b81526004016123299493929190613fab565b6020604051808303816000875af192505050801561236557506040513d601f19601f82011682018060405250810190612362919061400c565b60015b6123e9573d8060008114612395576040519150601f19603f3d011682016040523d82523d6000602084013e61239a565b606091505b5060008151036123e157836040517f64a0ae920000000000000000000000000000000000000000000000000000000081526004016123d89190612e7b565b60405180910390fd5b805181602001fd5b63150b7a0260e01b7bffffffffffffffffffffffffffffffffffffffffffffffffffffffff1916817bffffffffffffffffffffffffffffffffffffffffffffffffffffffff19161461247257836040517f64a0ae920000000000000000000000000000000000000000000000000000000081526004016124699190612e7b565b60405180910390fd5b505b5050505050565b606060405180602001604052806000815250905090565b606061249d82611d0d565b5060006124a861247b565b905060008151116124c857604051806020016040528060008152506124f3565b806124d28461282b565b6040516020016124e3929190613da9565b6040516020818303038152906040525b915050919050565b60007f01ffc9a7000000000000000000000000000000000000000000000000000000007bffffffffffffffffffffffffffffffffffffffffffffffffffffffff1916827bffffffffffffffffffffffffffffffffffffffffffffffffffffffff1916149050919050565b60006002600083815260200190815260200160002060009054906101000a900473ffffffffffffffffffffffffffffffffffffffff169050919050565b80806125db5750600073ffffffffffffffffffffffffffffffffffffffff168273ffffffffffffffffffffffffffffffffffffffff1614155b1561270f5760006125eb84611d0d565b9050600073ffffffffffffffffffffffffffffffffffffffff168373ffffffffffffffffffffffffffffffffffffffff161415801561265657508273ffffffffffffffffffffffffffffffffffffffff168173ffffffffffffffffffffffffffffffffffffffff1614155b8015612669575061266781846117f7565b155b156126ab57826040517fa9fbf51f0000000000000000000000000000000000000000000000000000000081526004016126a29190612e7b565b60405180910390fd5b811561270d57838573ffffffffffffffffffffffffffffffffffffffff168273ffffffffffffffffffffffffffffffffffffffff167f8c5be1e5ebec7d5bd14f71427d1e84f3dd0314c0f7b2291e5b200ac8c7c3b92560405160405180910390a45b505b836004600085815260200190815260200160002060006101000a81548173ffffffffffffffffffffffffffffffffffffffff021916908373ffffffffffffffffffffffffffffffffffffffff16021790555050505050565b6127728383836128f9565b61282657600073ffffffffffffffffffffffffffffffffffffffff168373ffffffffffffffffffffffffffffffffffffffff16036127e757806040517f7e2732890000000000000000000000000000000000000000000000000000000081526004016127de9190612fe4565b60405180910390fd5b81816040517f177e802f00000000000000000000000000000000000000000000000000000000815260040161281d929190614039565b60405180910390fd5b505050565b60606000600161283a846129ba565b01905060008167ffffffffffffffff811115612859576128586132df565b5b6040519080825280601f01601f19166020018201604052801561288b5781602001600182028036833780820191505090505b509050600082602001820190505b6001156128ee578080600190039150507f3031323334353637383961626364656600000000000000000000000000000000600a86061a8153600a85816128e2576128e1614062565b5b04945060008503612899575b819350505050919050565b60008073ffffffffffffffffffffffffffffffffffffffff168373ffffffffffffffffffffffffffffffffffffffff16141580156129b157508273ffffffffffffffffffffffffffffffffffffffff168473ffffffffffffffffffffffffffffffffffffffff161480612972575061297184846117f7565b5b806129b057508273ffffffffffffffffffffffffffffffffffffffff1661299883611d95565b73ffffffffffffffffffffffffffffffffffffffff16145b5b90509392505050565b600080600090507a184f03e93ff9f4daa797ed6e38ed64bf6a1f0100000000000000008310612a18577a184f03e93ff9f4daa797ed6e38ed64bf6a1f0100000000000000008381612a0e57612a0d614062565b5b0492506040810190505b6d04ee2d6d415b85acef81000000008310612a55576d04ee2d6d415b85acef81000000008381612a4b57612a4a614062565b5b0492506020810190505b662386f26fc100008310612a8457662386f26fc100008381612a7a57612a79614062565b5b0492506010810190505b6305f5e1008310612aad576305f5e1008381612aa357612aa2614062565b5b0492506008810190505b6127108310612ad2576127108381612ac857612ac7614062565b5b0492506004810190505b60648310612af55760648381612aeb57612aea614062565b5b0492506002810190505b600a8310612b04576001810190505b80915050919050565b6040518060800160405280600073ffffffffffffffffffffffffffffffffffffffff1681526020016060815260200160608152602001606081525090565b828054828255906000526020600020908101928215612b87579160200282015b82811115612b86578251825591602001919060010190612b6b565b5b509050612b949190612c39565b5090565b6040518060a00160405280600081526020016000815260200160008152602001600081526020016000151581525090565b604051806101600160405280600073ffffffffffffffffffffffffffffffffffffffff168152602001600081526020016060815260200160608152602001606081526020016060815260200160008152602001600081526020016000815260200160008152602001606081525090565b5b80821115612c52576000816000905550600101612c3a565b5090565b6000604051905090565b600080fd5b600080fd5b60007fffffffff0000000000000000000000000000000000000000000000000000000082169050919050565b612c9f81612c6a565b8114612caa57600080fd5b50565b600081359050612cbc81612c96565b92915050565b600060208284031215612cd857612cd7612c60565b5b6000612ce684828501612cad565b91505092915050565b60008115159050919050565b612d0481612cef565b82525050565b6000602082019050612d1f6000830184612cfb565b92915050565b600081519050919050565b600082825260208201905092915050565b60005b83811015612d5f578082015181840152602081019050612d44565b60008484015250505050565b6000601f19601f8301169050919050565b6000612d8782612d25565b612d918185612d30565b9350612da1818560208601612d41565b612daa81612d6b565b840191505092915050565b60006020820190508181036000830152612dcf8184612d7c565b905092915050565b6000819050919050565b612dea81612dd7565b8114612df557600080fd5b50565b600081359050612e0781612de1565b92915050565b600060208284031215612e2357612e22612c60565b5b6000612e3184828501612df8565b91505092915050565b600073ffffffffffffffffffffffffffffffffffffffff82169050919050565b6000612e6582612e3a565b9050919050565b612e7581612e5a565b82525050565b6000602082019050612e906000830184612e6c565b92915050565b612e9f81612e5a565b8114612eaa57600080fd5b50565b600081359050612ebc81612e96565b92915050565b60008060408385031215612ed957612ed8612c60565b5b6000612ee785828601612ead565b9250506020612ef885828601612df8565b9150509250929050565b600080600060608486031215612f1b57612f1a612c60565b5b6000612f2986828701612ead565b9350506020612f3a86828701612ead565b9250506040612f4b86828701612df8565b9150509250925092565b600080600060608486031215612f6e57612f6d612c60565b5b6000612f7c86828701612df8565b9350506020612f8d86828701612df8565b9250506040612f9e86828701612ead565b9150509250925092565b600060208284031215612fbe57612fbd612c60565b5b6000612fcc84828501612ead565b91505092915050565b612fde81612dd7565b82525050565b6000602082019050612ff96000830184612fd5565b92915050565b61300881612dd7565b82525050565b61301781612cef565b82525050565b60a0820160008201516130336000850182612fff565b5060208201516130466020850182612fff565b5060408201516130596040850182612fff565b50606082015161306c6060850182612fff565b50608082015161307f608085018261300e565b50505050565b600060a08201905061309a600083018461301d565b92915050565b6130a981612e5a565b82525050565b600082825260208201905092915050565b60006130cb82612d25565b6130d581856130af565b93506130e5818560208601612d41565b6130ee81612d6b565b840191505092915050565b600081519050919050565b600082825260208201905092915050565b6000819050602082019050919050565b60006131318383612fff565b60208301905092915050565b6000602082019050919050565b6000613155826130f9565b61315f8185613104565b935061316a83613115565b8060005b8381101561319b5781516131828882613125565b975061318d8361313d565b92505060018101905061316e565b5085935050505092915050565b6000610160830160008301516131c160008601826130a0565b5060208301516131d46020860182612fff565b50604083015184820360408601526131ec82826130c0565b9150506060830151848203606086015261320682826130c0565b9150506080830151848203608086015261322082826130c0565b91505060a083015184820360a086015261323a82826130c0565b91505060c083015161324f60c0860182612fff565b5060e083015161326260e0860182612fff565b50610100830151613277610100860182612fff565b5061012083015161328c610120860182612fff565b506101408301518482036101408601526132a6828261314a565b9150508091505092915050565b600060208201905081810360008301526132cd81846131a8565b905092915050565b600080fd5b600080fd5b7f4e487b7100000000000000000000000000000000000000000000000000000000600052604160045260246000fd5b61331782612d6b565b810181811067ffffffffffffffff82111715613336576133356132df565b5b80604052505050565b6000613349612c56565b9050613355828261330e565b919050565b600067ffffffffffffffff821115613375576133746132df565b5b61337e82612d6b565b9050602081019050919050565b82818337600083830152505050565b60006133ad6133a88461335a565b61333f565b9050828152602081018484840111156133c9576133c86132da565b5b6133d484828561338b565b509392505050565b600082601f8301126133f1576133f06132d5565b5b813561340184826020860161339a565b91505092915050565b600080600080600080600080610100898b03121561342b5761342a612c60565b5b60006134398b828c01612ead565b985050602089013567ffffffffffffffff81111561345a57613459612c65565b5b6134668b828c016133dc565b975050604089013567ffffffffffffffff81111561348757613486612c65565b5b6134938b828c016133dc565b965050606089013567ffffffffffffffff8111156134b4576134b3612c65565b5b6134c08b828c016133dc565b955050608089013567ffffffffffffffff8111156134e1576134e0612c65565b5b6134ed8b828c016133dc565b94505060a06134fe8b828c01612df8565b93505060c061350f8b828c01612df8565b92505060e06135208b828c01612df8565b9150509295985092959890939650565b61353981612cef565b811461354457600080fd5b50565b60008135905061355681613530565b92915050565b6000806040838503121561357357613572612c60565b5b600061358185828601612ead565b925050602061359285828601613547565b9150509250929050565b600067ffffffffffffffff8211156135b7576135b66132df565b5b6135c082612d6b565b9050602081019050919050565b60006135e06135db8461359c565b61333f565b9050828152602081018484840111156135fc576135fb6132da565b5b61360784828561338b565b509392505050565b600082601f830112613624576136236132d5565b5b81356136348482602086016135cd565b91505092915050565b6000806000806080858703121561365757613656612c60565b5b600061366587828801612ead565b945050602061367687828801612ead565b935050604061368787828801612df8565b925050606085013567ffffffffffffffff8111156136a8576136a7612c65565b5b6136b48782880161360f565b91505092959194509250565b6000806000606084860312156136d9576136d8612c60565b5b60006136e786828701612ead565b935050602084013567ffffffffffffffff81111561370857613707612c65565b5b613714868287016133dc565b925050604084013567ffffffffffffffff81111561373557613734612c65565b5b613741868287016133dc565b9150509250925092565b600060808301600083015161376360008601826130a0565b506020830151848203602086015261377b828261314a565b9150506040830151848203604086015261379582826130c0565b915050606083015184820360608601526137af82826130c0565b9150508091505092915050565b600060208201905081810360008301526137d6818461374b565b905092915050565b600080604083850312156137f5576137f4612c60565b5b600061380385828601612ead565b925050602061381485828601612ead565b9150509250929050565b6000806000806080858703121561383857613837612c60565b5b600061384687828801612ead565b945050602061385787828801612df8565b935050604061386887828801612df8565b925050606061387987828801612df8565b91505092959194509250565b7f4e487b7100000000000000000000000000000000000000000000000000000000600052602260045260246000fd5b600060028204905060018216806138cc57607f821691505b6020821081036138df576138de613885565b5b50919050565b60006060820190506138fa6000830186612e6c565b6139076020830185612fd5565b6139146040830184612e6c565b949350505050565b7f416c726561647920616e204f7267616e69736572000000000000000000000000600082015250565b6000613952601483612d30565b915061395d8261391c565b602082019050919050565b6000602082019050818103600083015261398181613945565b9050919050565b60008190508160005260206000209050919050565b60006020601f8301049050919050565b600082821b905092915050565b6000600883026139ea7fffffffffffffffffffffffffffffffffffffffffffffffffffffffffffffffff826139ad565b6139f486836139ad565b95508019841693508086168417925050509392505050565b6000819050919050565b6000613a31613a2c613a2784612dd7565b613a0c565b612dd7565b9050919050565b6000819050919050565b613a4b83613a16565b613a5f613a5782613a38565b8484546139ba565b825550505050565b600090565b613a74613a67565b613a7f818484613a42565b505050565b5b81811015613aa357613a98600082613a6c565b600181019050613a85565b5050565b601f821115613ae857613ab981613988565b613ac28461399d565b81016020851015613ad1578190505b613ae5613add8561399d565b830182613a84565b50505b505050565b600082821c905092915050565b6000613b0b60001984600802613aed565b1980831691505092915050565b6000613b248383613afa565b9150826002028217905092915050565b613b3d82612d25565b67ffffffffffffffff811115613b5657613b556132df565b5b613b6082546138b4565b613b6b828285613aa7565b600060209050601f831160018114613b9e5760008415613b8c578287015190505b613b968582613b18565b865550613bfe565b601f198416613bac86613988565b60005b82811015613bd457848901518255600182019150602085019450602081019050613baf565b86831015613bf15784890151613bed601f891682613afa565b8355505b6001600288020188555050505b505050505050565b7f596f7520617265206e6f7420616e206f7267616e697365720000000000000000600082015250565b6000613c3c601883612d30565b9150613c4782613c06565b602082019050919050565b60006020820190508181036000830152613c6b81613c2f565b9050919050565b7f4e487b7100000000000000000000000000000000000000000000000000000000600052601160045260246000fd5b6000613cac82612dd7565b91507fffffffffffffffffffffffffffffffffffffffffffffffffffffffffffffffff8203613cde57613cdd613c72565b5b600182019050919050565b600060e082019050613cfe600083018a612fd5565b8181036020830152613d108189612d7c565b90508181036040830152613d248188612d7c565b90508181036060830152613d388187612d7c565b9050613d476080830186612fd5565b613d5460a0830185612fd5565b613d6160c0830184612fd5565b98975050505050505050565b600081905092915050565b6000613d8382612d25565b613d8d8185613d6d565b9350613d9d818560208601612d41565b80840191505092915050565b6000613db58285613d78565b9150613dc18284613d78565b91508190509392505050565b7f4576656e7420646f6573206e6f74206578697374000000000000000000000000600082015250565b6000613e03601483612d30565b9150613e0e82613dcd565b602082019050919050565b60006020820190508181036000830152613e3281613df6565b9050919050565b7f5469636b6574732061726520736f6c64206f7574000000000000000000000000600082015250565b6000613e6f601483612d30565b9150613e7a82613e39565b602082019050919050565b60006020820190508181036000830152613e9e81613e62565b9050919050565b7f507269636520697320746f6f206c6f7700000000000000000000000000000000600082015250565b6000613edb601083612d30565b9150613ee682613ea5565b602082019050919050565b60006020820190508181036000830152613f0a81613ece565b9050919050565b6000608082019050613f266000830187612fd5565b613f336020830186612fd5565b613f406040830185612fd5565b613f4d6060830184612fd5565b95945050505050565b600081519050919050565b600082825260208201905092915050565b6000613f7d82613f56565b613f878185613f61565b9350613f97818560208601612d41565b613fa081612d6b565b840191505092915050565b6000608082019050613fc06000830187612e6c565b613fcd6020830186612e6c565b613fda6040830185612fd5565b8181036060830152613fec8184613f72565b905095945050505050565b60008151905061400681612c96565b92915050565b60006020828403121561402257614021612c60565b5b600061403084828501613ff7565b91505092915050565b600060408201905061404e6000830185612e6c565b61405b6020830184612fd5565b9392505050565b7f4e487b7100000000000000000000000000000000000000000000000000000000600052601260045260246000fdfea264697066735822122069a3f9eca773803905db8d672472226d7aacefe2b0127ad27a176c11518408d764736f6c634300081c0033",
  "linkReferences": {},
  "deployedLinkReferences": {}
}