{
  "_format": "hh-sol-artifact-1",
  "contractName": "NFTminting",
  "sourceName": "contracts/NFTminting.sol",
  "abi": [
    {
      "inputs": [],
      "stateMutability": "nonpayable",
      "type": "constructor"
    },
    {
      "inputs": [
        {
          "internalType": "address",
          "name": "sender",
          "type": "address"
        },
        {
          "internalType": "uint256",
          "name": "tokenId",
          "type": "uint256"
        },
        {
          "internalType": "address",
          "name": "owner",
          "type": "address"
        }
      ],
      "name": "ERC721IncorrectOwner",
      "type": "error"
    },
    {
      "inputs": [
        {
          "internalType": "address",
          "name": "operator",
          "type": "address"
        },
        {
          "internalType": "uint256",
          "name": "tokenId",
          "type": "uint256"
        }
      ],
      "name": "ERC721InsufficientApproval",
      "type": "error"
    },
    {
      "inputs": [
        {
          "internalType": "address",
          "name": "approver",
          "type": "address"
        }
      ],
      "name": "ERC721InvalidApprover",
      "type": "error"
    },
    {
      "inputs": [
        {
          "internalType": "address",
          "name": "operator",
          "type": "address"
        }
      ],
      "name": "ERC721InvalidOperator",
      "type": "error"
    },
    {
      "inputs": [
        {
          "internalType": "address",
          "name": "owner",
          "type": "address"
        }
      ],
      "name": "ERC721InvalidOwner",
      "type": "error"
    },
    {
      "inputs": [
        {
          "internalType": "address",
          "name": "receiver",
          "type": "address"
        }
      ],
      "name": "ERC721InvalidReceiver",
      "type": "error"
    },
    {
      "inputs": [
        {
          "internalType": "address",
          "name": "sender",
          "type": "address"
        }
      ],
      "name": "ERC721InvalidSender",
      "type": "error"
    },
    {
      "inputs": [
        {
          "internalType": "uint256",
          "name": "tokenId",
          "type": "uint256"
        }
      ],
      "name": "ERC721NonexistentToken",
      "type": "error"
    },
    {
      "anonymous": false,
      "inputs": [
        {
          "indexed": true,
          "internalType": "address",
          "name": "owner",
          "type": "address"
        },
        {
          "indexed": true,
          "internalType": "address",
          "name": "approved",
          "type": "address"
        },
        {
          "indexed": true,
          "internalType": "uint256",
          "name": "tokenId",
          "type": "uint256"
        }
      ],
      "name": "Approval",
      "type": "event"
    },
    {
      "anonymous": false,
      "inputs": [
        {
          "indexed": true,
          "internalType": "address",
          "name": "owner",
          "type": "address"
        },
        {
          "indexed": true,
          "internalType": "address",
          "name": "operator",
          "type": "address"
        },
        {
          "indexed": false,
          "internalType": "bool",
          "name": "approved",
          "type": "bool"
        }
      ],
      "name": "ApprovalForAll",
      "type": "event"
    },
    {
      "anonymous": false,
      "inputs": [
        {
          "indexed": false,
          "internalType": "uint256",
          "name": "_fromTokenId",
          "type": "uint256"
        },
        {
          "indexed": false,
          "internalType": "uint256",
          "name": "_toTokenId",
          "type": "uint256"
        }
      ],
      "name": "BatchMetadataUpdate",
      "type": "event"
    },
    {
      "anonymous": false,
      "inputs": [
        {
          "indexed": false,
          "internalType": "uint256",
          "name": "id",
          "type": "uint256"
        },
        {
          "indexed": false,
          "internalType": "uint256",
          "name": "storedId",
          "type": "uint256"
        },
        {
          "indexed": false,
          "internalType": "address",
          "name": "caller",
          "type": "address"
        },
        {
          "indexed": false,
          "internalType": "address",
          "name": "owner",
          "type": "address"
        },
        {
          "indexed": false,
          "internalType": "uint256",
          "name": "price",
          "type": "uint256"
        }
      ],
      "name": "Debug",
      "type": "event"
    },
    {
      "anonymous": false,
      "inputs": [
        {
          "indexed": false,
          "internalType": "uint256",
          "name": "ticketId",
          "type": "uint256"
        }
      ],
      "name": "DebugTicketCount",
      "type": "event"
    },
    {
      "anonymous": false,
      "inputs": [
        {
          "indexed": false,
          "internalType": "uint256",
          "name": "_tokenId",
          "type": "uint256"
        }
      ],
      "name": "MetadataUpdate",
      "type": "event"
    },
    {
      "anonymous": false,
      "inputs": [
        {
          "indexed": true,
          "internalType": "address",
          "name": "from",
          "type": "address"
        },
        {
          "indexed": true,
          "internalType": "address",
          "name": "to",
          "type": "address"
        },
        {
          "indexed": true,
          "internalType": "uint256",
          "name": "tokenId",
          "type": "uint256"
        }
      ],
      "name": "Transfer",
      "type": "event"
    },
    {
      "anonymous": false,
      "inputs": [
        {
          "indexed": true,
          "internalType": "address",
          "name": "from",
          "type": "address"
        },
        {
          "indexed": true,
          "internalType": "address",
          "name": "to",
          "type": "address"
        },
        {
          "indexed": true,
          "internalType": "uint256",
          "name": "tokenId",
          "type": "uint256"
        },
        {
          "indexed": false,
          "internalType": "uint256",
          "name": "price",
          "type": "uint256"
        }
      ],
      "name": "TransferNFTresale",
      "type": "event"
    },
    {
      "anonymous": false,
      "inputs": [
        {
          "indexed": false,
          "internalType": "uint256",
          "name": "eventId",
          "type": "uint256"
        },
        {
          "indexed": false,
          "internalType": "string",
          "name": "eventName",
          "type": "string"
        },
        {
          "indexed": false,
          "internalType": "string",
          "name": "eventDescription",
          "type": "string"
        },
        {
          "indexed": false,
          "internalType": "string",
          "name": "venue",
          "type": "string"
        },
        {
          "indexed": false,
          "internalType": "uint256",
          "name": "ticketPrice",
          "type": "uint256"
        },
        {
          "indexed": false,
          "internalType": "uint256",
          "name": "totalTickets",
          "type": "uint256"
        },
        {
          "indexed": false,
          "internalType": "uint256",
          "name": "resalePrice",
          "type": "uint256"
        }
      ],
      "name": "newEventCreated",
      "type": "event"
    },
    {
      "anonymous": false,
      "inputs": [
        {
          "indexed": false,
          "internalType": "uint256",
          "name": "ticketId",
          "type": "uint256"
        },
        {
          "indexed": false,
          "internalType": "uint256",
          "name": "eventId",
          "type": "uint256"
        },
        {
          "indexed": false,
          "internalType": "uint256",
          "name": "seatNum",
          "type": "uint256"
        },
        {
          "indexed": false,
          "internalType": "uint256",
          "name": "Price",
          "type": "uint256"
        },
        {
          "indexed": false,
          "internalType": "uint256",
          "name": "ntickets",
          "type": "uint256"
        }
      ],
      "name": "newTicketCreated",
      "type": "event"
    },
    {
      "inputs": [
        {
          "internalType": "address",
          "name": "to",
          "type": "address"
        },
        {
          "internalType": "uint256",
          "name": "tokenId",
          "type": "uint256"
        }
      ],
      "name": "approve",
      "outputs": [],
      "stateMutability": "nonpayable",
      "type": "function"
    },
    {
      "inputs": [
        {
          "internalType": "address",
          "name": "_buyer",
          "type": "address"
        },
        {
          "internalType": "uint256",
          "name": "_ticketId",
          "type": "uint256"
        }
      ],
      "name": "approveForResale",
      "outputs": [],
      "stateMutability": "nonpayable",
      "type": "function"
    },
    {
      "inputs": [
        {
          "internalType": "address",
          "name": "owner",
          "type": "address"
        }
      ],
      "name": "balanceOf",
      "outputs": [
        {
          "internalType": "uint256",
          "name": "",
          "type": "uint256"
        }
      ],
      "stateMutability": "view",
      "type": "function"
    },
    {
      "inputs": [
        {
          "internalType": "address",
          "name": "addr",
          "type": "address"
        },
        {
          "internalType": "uint256",
          "name": "_eventId",
          "type": "uint256"
        }
      ],
      "name": "createNFTticket",
      "outputs": [],
      "stateMutability": "payable",
      "type": "function"
    },
    {
      "inputs": [
        {
          "internalType": "uint256",
          "name": "tokenId",
          "type": "uint256"
        }
      ],
      "name": "getApproved",
      "outputs": [
        {
          "internalType": "address",
          "name": "",
          "type": "address"
        }
      ],
      "stateMutability": "view",
      "type": "function"
    },
    {
      "inputs": [
        {
          "internalType": "address",
          "name": "addr",
          "type": "address"
        }
      ],
      "name": "getBuyer",
      "outputs": [
        {
          "components": [
            {
              "internalType": "address",
              "name": "buyerAddress",
              "type": "address"
            },
            {
              "internalType": "uint256[]",
              "name": "ticketIds",
              "type": "uint256[]"
            },
            {
              "internalType": "uint256[]",
              "name": "pastEventIds",
              "type": "uint256[]"
            }
          ],
          "internalType": "struct NFTminting.buyer",
          "name": "",
          "type": "tuple"
        }
      ],
      "stateMutability": "view",
      "type": "function"
    },
    {
      "inputs": [],
      "name": "getEventCount",
      "outputs": [
        {
          "internalType": "uint256",
          "name": "",
          "type": "uint256"
        }
      ],
      "stateMutability": "view",
      "type": "function"
    },
    {
      "inputs": [
        {
          "internalType": "address",
          "name": "addr",
          "type": "address"
        }
      ],
      "name": "getOrgDetails",
      "outputs": [
        {
          "components": [
            {
              "internalType": "address",
              "name": "orgAddress",
              "type": "address"
            },
            {
              "internalType": "uint256[]",
              "name": "eventIds",
              "type": "uint256[]"
            },
            {
              "internalType": "string",
              "name": "logo",
              "type": "string"
            },
            {
              "internalType": "string",
              "name": "orgName",
              "type": "string"
            }
          ],
          "internalType": "struct NFTminting.organiser",
          "name": "",
          "type": "tuple"
        }
      ],
      "stateMutability": "view",
      "type": "function"
    },
    {
      "inputs": [
        {
          "internalType": "uint256",
          "name": "_ticketId",
          "type": "uint256"
        }
      ],
      "name": "getTicket",
      "outputs": [
        {
          "components": [
            {
              "internalType": "uint256",
              "name": "ticketId",
              "type": "uint256"
            },
            {
              "internalType": "uint256",
              "name": "eventId",
              "type": "uint256"
            },
            {
              "internalType": "uint256",
              "name": "seatNum",
              "type": "uint256"
            },
            {
              "internalType": "uint256",
              "name": "Price",
              "type": "uint256"
            },
            {
              "internalType": "bool",
              "name": "isAvailablebid",
              "type": "bool"
            }
          ],
          "internalType": "struct NFTminting.ticket",
          "name": "",
          "type": "tuple"
        }
      ],
      "stateMutability": "view",
      "type": "function"
    },
    {
      "inputs": [],
      "name": "getTicketCount",
      "outputs": [
        {
          "internalType": "uint256",
          "name": "",
          "type": "uint256"
        }
      ],
      "stateMutability": "nonpayable",
      "type": "function"
    },
    {
      "inputs": [
        {
          "internalType": "uint256",
          "name": "_eventId",
          "type": "uint256"
        }
      ],
      "name": "getevent",
      "outputs": [
        {
          "components": [
            {
              "internalType": "address",
              "name": "orgAddress",
              "type": "address"
            },
            {
              "internalType": "uint256",
              "name": "eventId",
              "type": "uint256"
            },
            {
              "internalType": "string",
              "name": "eventName",
              "type": "string"
            },
            {
              "internalType": "string",
              "name": "eventDescription",
              "type": "string"
            },
            {
              "internalType": "string",
              "name": "venue",
              "type": "string"
            },
            {
              "internalType": "string",
              "name": "uri",
              "type": "string"
            },
            {
              "internalType": "uint256",
              "name": "ticketPrice",
              "type": "uint256"
            },
            {
              "internalType": "uint256",
              "name": "totalTickets",
              "type": "uint256"
            },
            {
              "internalType": "uint256",
              "name": "ticketsSold",
              "type": "uint256"
            },
            {
              "internalType": "uint256",
              "name": "resalePrice",
              "type": "uint256"
            },
            {
              "internalType": "uint256[]",
              "name": "ticketIds",
              "type": "uint256[]"
            }
          ],
          "internalType": "struct NFTminting.Event",
          "name": "",
          "type": "tuple"
        }
      ],
      "stateMutability": "view",
      "type": "function"
    },
    {
      "inputs": [
        {
          "internalType": "address",
          "name": "owner",
          "type": "address"
        },
        {
          "internalType": "address",
          "name": "operator",
          "type": "address"
        }
      ],
      "name": "isApprovedForAll",
      "outputs": [
        {
          "internalType": "bool",
          "name": "",
          "type": "bool"
        }
      ],
      "stateMutability": "view",
      "type": "function"
    },
    {
      "inputs": [
        {
          "internalType": "address",
          "name": "addr",
          "type": "address"
        }
      ],
      "name": "isBuyer",
      "outputs": [
        {
          "internalType": "bool",
          "name": "",
          "type": "bool"
        }
      ],
      "stateMutability": "view",
      "type": "function"
    },
    {
      "inputs": [
        {
          "internalType": "uint256",
          "name": "_ticketId",
          "type": "uint256"
        },
        {
          "internalType": "uint256",
          "name": "_eventId",
          "type": "uint256"
        },
        {
          "internalType": "address",
          "name": "to",
          "type": "address"
        }
      ],
      "name": "mintNFT",
      "outputs": [],
      "stateMutability": "nonpayable",
      "type": "function"
    },
    {
      "inputs": [],
      "name": "name",
      "outputs": [
        {
          "internalType": "string",
          "name": "",
          "type": "string"
        }
      ],
      "stateMutability": "view",
      "type": "function"
    },
    {
      "inputs": [
        {
          "internalType": "address",
          "name": "addr",
          "type": "address"
        },
        {
          "internalType": "string",
          "name": "_eventName",
          "type": "string"
        },
        {
          "internalType": "string",
          "name": "uri",
          "type": "string"
        },
        {
          "internalType": "string",
          "name": "_eventDescription",
          "type": "string"
        },
        {
          "internalType": "string",
          "name": "_venue",
          "type": "string"
        },
        {
          "internalType": "uint256",
          "name": "_ticketPrice",
          "type": "uint256"
        },
        {
          "internalType": "uint256",
          "name": "_totalTickets",
          "type": "uint256"
        },
        {
          "internalType": "uint256",
          "name": "_resalePrice",
          "type": "uint256"
        }
      ],
      "name": "newEvent",
      "outputs": [],
      "stateMutability": "nonpayable",
      "type": "function"
    },
    {
      "inputs": [
        {
          "internalType": "address",
          "name": "addr",
          "type": "address"
        }
      ],
      "name": "newOrganiser",
      "outputs": [],
      "stateMutability": "nonpayable",
      "type": "function"
    },
    {
      "inputs": [
        {
          "internalType": "uint256",
          "name": "tokenId",
          "type": "uint256"
        }
      ],
      "name": "ownerOf",
      "outputs": [
        {
          "internalType": "address",
          "name": "",
          "type": "address"
        }
      ],
      "stateMutability": "view",
      "type": "function"
    },
    {
      "inputs": [
        {
          "internalType": "uint256",
          "name": "id",
          "type": "uint256"
        },
        {
          "internalType": "uint256",
          "name": "_price",
          "type": "uint256"
        },
        {
          "internalType": "address",
          "name": "addr",
          "type": "address"
        }
      ],
      "name": "resaleNFT",
      "outputs": [],
      "stateMutability": "nonpayable",
      "type": "function"
    },
    {
      "inputs": [
        {
          "internalType": "address",
          "name": "from",
          "type": "address"
        },
        {
          "internalType": "address",
          "name": "to",
          "type": "address"
        },
        {
          "internalType": "uint256",
          "name": "tokenId",
          "type": "uint256"
        }
      ],
      "name": "safeTransferFrom",
      "outputs": [],
      "stateMutability": "nonpayable",
      "type": "function"
    },
    {
      "inputs": [
        {
          "internalType": "address",
          "name": "from",
          "type": "address"
        },
        {
          "internalType": "address",
          "name": "to",
          "type": "address"
        },
        {
          "internalType": "uint256",
          "name": "tokenId",
          "type": "uint256"
        },
        {
          "internalType": "bytes",
          "name": "data",
          "type": "bytes"
        }
      ],
      "name": "safeTransferFrom",
      "outputs": [],
      "stateMutability": "nonpayable",
      "type": "function"
    },
    {
      "inputs": [
        {
          "internalType": "address",
          "name": "operator",
          "type": "address"
        },
        {
          "internalType": "bool",
          "name": "approved",
          "type": "bool"
        }
      ],
      "name": "setApprovalForAll",
      "outputs": [],
      "stateMutability": "nonpayable",
      "type": "function"
    },
    {
      "inputs": [
        {
          "internalType": "bytes4",
          "name": "interfaceId",
          "type": "bytes4"
        }
      ],
      "name": "supportsInterface",
      "outputs": [
        {
          "internalType": "bool",
          "name": "",
          "type": "bool"
        }
      ],
      "stateMutability": "view",
      "type": "function"
    },
    {
      "inputs": [],
      "name": "symbol",
      "outputs": [
        {
          "internalType": "string",
          "name": "",
          "type": "string"
        }
      ],
      "stateMutability": "view",
      "type": "function"
    },
    {
      "inputs": [],
      "name": "ticketId",
      "outputs": [
        {
          "internalType": "uint256",
          "name": "",
          "type": "uint256"
        }
      ],
      "stateMutability": "view",
      "type": "function"
    },
    {
      "inputs": [
        {
          "internalType": "uint256",
          "name": "tokenId",
          "type": "uint256"
        }
      ],
      "name": "tokenURI",
      "outputs": [
        {
          "internalType": "string",
          "name": "",
          "type": "string"
        }
      ],
      "stateMutability": "view",
      "type": "function"
    },
    {
      "inputs": [
        {
          "internalType": "address",
          "name": "from",
          "type": "address"
        },
        {
          "internalType": "address",
          "name": "to",
          "type": "address"
        },
        {
          "internalType": "uint256",
          "name": "tokenId",
          "type": "uint256"
        }
      ],
      "name": "transferFrom",
      "outputs": [],
      "stateMutability": "nonpayable",
      "type": "function"
    },
    {
      "inputs": [
        {
          "internalType": "address",
          "name": "_to",
          "type": "address"
        },
        {
          "internalType": "uint256",
          "name": "_ticketId",
          "type": "uint256"
        }
      ],
      "name": "transferNFT",
      "outputs": [],
      "stateMutability": "payable",
      "type": "function"
    },
    {
      "inputs": [
        {
          "internalType": "address",
          "name": "addr",
          "type": "address"
        },
        {
          "internalType": "string",
          "name": "_logo",
          "type": "string"
        },
        {
          "internalType": "string",
          "name": "_orgName",
          "type": "string"
        }
      ],
      "name": "updateOrgDetails",
      "outputs": [],
      "stateMutability": "nonpayable",
      "type": "function"
    }
  ],
  "bytecode": "0x60806040526000600b556000600c5534801561001a57600080fd5b506040518060400160405280600b81526020017f4e46545f4d494e54494e470000000000000000000000000000000000000000008152506040518060400160405280600481526020017f4e46544d00000000000000000000000000000000000000000000000000000000815250816000908161009691906102fe565b5080600190816100a691906102fe565b5050506103d0565b600081519050919050565b7f4e487b7100000000000000000000000000000000000000000000000000000000600052604160045260246000fd5b7f4e487b7100000000000000000000000000000000000000000000000000000000600052602260045260246000fd5b6000600282049050600182168061012f57607f821691505b602082108103610142576101416100e8565b5b50919050565b60008190508160005260206000209050919050565b60006020601f8301049050919050565b600082821b905092915050565b6000600883026101aa7fffffffffffffffffffffffffffffffffffffffffffffffffffffffffffffffff8261016d565b6101b4868361016d565b95508019841693508086168417925050509392505050565b6000819050919050565b6000819050919050565b60006101fb6101f66101f1846101cc565b6101d6565b6101cc565b9050919050565b6000819050919050565b610215836101e0565b61022961022182610202565b84845461017a565b825550505050565b600090565b61023e610231565b61024981848461020c565b505050565b5b8181101561026d57610262600082610236565b60018101905061024f565b5050565b601f8211156102b25761028381610148565b61028c8461015d565b8101602085101561029b578190505b6102af6102a78561015d565b83018261024e565b50505b505050565b600082821c905092915050565b60006102d5600019846008026102b7565b1980831691505092915050565b60006102ee83836102c4565b9150826002028217905092915050565b610307826100ae565b67ffffffffffffffff8111156103205761031f6100b9565b5b61032a8254610117565b610335828285610271565b600060209050601f8311600181146103685760008415610356578287015190505b61036085826102e2565b8655506103c8565b601f19841661037686610148565b60005b8281101561039e57848901518255600182019150602085019450602081019050610379565b868310156103bb57848901516103b7601f8916826102c4565b8355505b6001600288020188555050505b505050505050565b6157f7806103df6000396000f3fe6080604052600436106101c25760003560e01c806379f1b7ff116100f7578063a22cb46511610095578063d9e48f5c11610064578063d9e48f5c14610668578063e785f7c214610693578063e985e9c5146106d0578063f9f0164a1461070d576101c2565b8063a22cb465146105b0578063b88d4fde146105d9578063c87b56dd14610602578063c885e9761461063f576101c2565b80638bdfcab0116100d15780638bdfcab014610503578063914703181461054057806394ab67fe1461056957806395d89b4114610585576101c2565b806379f1b7ff146104745780637ccc85eb1461049d5780637dc379fa146104c6576101c2565b80632a55feec116101645780636352211e1161013e5780636352211e146103a85780636c52ab1f146103e557806370a082311461040e578063780a17e21461044b576101c2565b80632a55feec1461030557806342842e0e146103425780635721e4191461036b576101c2565b8063081812fc116101a0578063081812fc1461024b578063095ea7b31461028857806321c63a47146102b157806323b872dd146102dc576101c2565b806301ffc9a7146101c7578063059088781461020457806306fdde0314610220575b600080fd5b3480156101d357600080fd5b506101ee60048036038101906101e99190613f7f565b610738565b6040516101fb9190613fc7565b60405180910390f35b61021e60048036038101906102199190614076565b610799565b005b34801561022c57600080fd5b50610235610e84565b6040516102429190614146565b60405180910390f35b34801561025757600080fd5b50610272600480360381019061026d9190614168565b610f16565b60405161027f91906141a4565b60405180910390f35b34801561029457600080fd5b506102af60048036038101906102aa9190614076565b610f32565b005b3480156102bd57600080fd5b506102c6610f48565b6040516102d391906141ce565b60405180910390f35b3480156102e857600080fd5b5061030360048036038101906102fe91906141e9565b610f8b565b005b34801561031157600080fd5b5061032c6004803603810190610327919061423c565b61108d565b6040516103399190613fc7565b60405180910390f35b34801561034e57600080fd5b50610369600480360381019061036491906141e9565b6110ef565b005b34801561037757600080fd5b50610392600480360381019061038d919061423c565b61110f565b60405161039f919061438d565b60405180910390f35b3480156103b457600080fd5b506103cf60048036038101906103ca9190614168565b61133e565b6040516103dc91906141a4565b60405180910390f35b3480156103f157600080fd5b5061040c600480360381019061040791906143af565b611350565b005b34801561041a57600080fd5b506104356004803603810190610430919061423c565b611407565b60405161044291906141ce565b60405180910390f35b34801561045757600080fd5b50610472600480360381019061046d9190614076565b6114c1565b005b34801561048057600080fd5b5061049b6004803603810190610496919061423c565b6114cf565b005b3480156104a957600080fd5b506104c460048036038101906104bf91906143af565b6116b6565b005b3480156104d257600080fd5b506104ed60048036038101906104e89190614168565b611873565b6040516104fa9190614479565b60405180910390f35b34801561050f57600080fd5b5061052a60048036038101906105259190614168565b6118e3565b60405161053791906145e9565b60405180910390f35b34801561054c57600080fd5b5061056760048036038101906105629190614740565b611c39565b005b610583600480360381019061057e9190614076565b611f83565b005b34801561059157600080fd5b5061059a61264c565b6040516105a79190614146565b60405180910390f35b3480156105bc57600080fd5b506105d760048036038101906105d29190614892565b6126de565b005b3480156105e557600080fd5b5061060060048036038101906105fb9190614973565b6126f4565b005b34801561060e57600080fd5b5061062960048036038101906106249190614168565b612719565b6040516106369190614146565b60405180910390f35b34801561064b57600080fd5b50610666600480360381019061066191906149f6565b61282c565b005b34801561067457600080fd5b5061067d6129a3565b60405161068a91906141ce565b60405180910390f35b34801561069f57600080fd5b506106ba60048036038101906106b5919061423c565b6129ad565b6040516106c79190614af2565b60405180910390f35b3480156106dc57600080fd5b506106f760048036038101906106f29190614b14565b612caa565b6040516107049190613fc7565b60405180910390f35b34801561071957600080fd5b50610722612d3e565b60405161072f91906141ce565b60405180910390f35b6000634906490660e01b7bffffffffffffffffffffffffffffffffffffffffffffffffffffffff1916827bffffffffffffffffffffffffffffffffffffffffffffffffffffffff19161480610792575061079182612d44565b5b9050919050565b80806008600083815260200190815260200160002060010154146107f2576040517f08c379a00000000000000000000000000000000000000000000000000000000081526004016107e990614ba0565b60405180910390fd5b600860008381526020019081526020016000206008015460086000848152602001908152602001600020600701541015610861576040517f08c379a000000000000000000000000000000000000000000000000000000000815260040161085890614c0c565b60405180910390fd5b34600860008481526020019081526020016000206006015411156108ba576040517f08c379a00000000000000000000000000000000000000000000000000000000081526004016108b190614c78565b60405180910390fd5b60006008600084815260200190815260200160002060000160009054906101000a900473ffffffffffffffffffffffffffffffffffffffff1673ffffffffffffffffffffffffffffffffffffffff16600860008581526020019081526020016000206006015460405161092c90614cc9565b60006040518083038185875af1925050503d8060008114610969576040519150601f19603f3d011682016040523d82523d6000602084013e61096e565b606091505b50509050806109b2576040517f08c379a00000000000000000000000000000000000000000000000000000000081526004016109a990614d2a565b60405180910390fd5b600c60008154809291906109c590614d79565b91905055506109d2613d93565b600c548160000181815250508381602001818152505060086000858152602001908152602001600020600601548160600181815250506000816080019015159081151581525050600060086000868152602001908152602001600020600a01805490509050600181610a449190614dc1565b8260400181815250508160096000600c5481526020019081526020016000206000820151816000015560208201518160010155604082015181600201556060820151816003015560808201518160040160006101000a81548160ff02191690831515021790555090505060086000868152602001908152602001600020600a01600c549080600181540180825580915050600190039060005260206000200160009091909190915055600860008681526020019081526020016000206008016000815480929190610b1490614d79565b9190505550610b26600c548688611350565b8573ffffffffffffffffffffffffffffffffffffffff16600a60008873ffffffffffffffffffffffffffffffffffffffff1673ffffffffffffffffffffffffffffffffffffffff16815260200190815260200160002060000160009054906101000a900473ffffffffffffffffffffffffffffffffffffffff1673ffffffffffffffffffffffffffffffffffffffff1614610cc157610bc3613dc4565b86816000019073ffffffffffffffffffffffffffffffffffffffff16908173ffffffffffffffffffffffffffffffffffffffff168152505080600a60008973ffffffffffffffffffffffffffffffffffffffff1673ffffffffffffffffffffffffffffffffffffffff16815260200190815260200160002060008201518160000160006101000a81548173ffffffffffffffffffffffffffffffffffffffff021916908373ffffffffffffffffffffffffffffffffffffffff1602179055506020820151816001019080519060200190610c9e929190613dfb565b506040820151816002019080519060200190610cbb929190613dfb565b50905050505b600a60008773ffffffffffffffffffffffffffffffffffffffff1673ffffffffffffffffffffffffffffffffffffffff168152602001908152602001600020600101600c5490806001815401808255809150506001900390600052602060002001600090919091909150557fdc47c78553b0e86c391324853af28f49dbe211176254c4ad77baf613483f7d9d600c548683600860008a815260200190815260200160002060060154600a60008c73ffffffffffffffffffffffffffffffffffffffff1673ffffffffffffffffffffffffffffffffffffffff16815260200190815260200160002060010180549050604051610dc0959493929190614df5565b60405180910390a1600c548673ffffffffffffffffffffffffffffffffffffffff166008600088815260200190815260200160002060000160009054906101000a900473ffffffffffffffffffffffffffffffffffffffff1673ffffffffffffffffffffffffffffffffffffffff167f09f9e181d077ca0d2cc962e755b35bcbb867393d2dd1279808ed20e68b059b7d600860008a815260200190815260200160002060060154604051610e7491906141ce565b60405180910390a4505050505050565b606060008054610e9390614e77565b80601f0160208091040260200160405190810160405280929190818152602001828054610ebf90614e77565b8015610f0c5780601f10610ee157610100808354040283529160200191610f0c565b820191906000526020600020905b815481529060010190602001808311610eef57829003601f168201915b5050505050905090565b6000610f2182612e26565b50610f2b82612eae565b9050919050565b610f448282610f3f612eeb565b612ef3565b5050565b60007f146afc5f5dcac635191725e04fb7edbb98afdefc7e26603ae3114ed30a2b9a66600c54604051610f7b91906141ce565b60405180910390a1600c54905090565b600073ffffffffffffffffffffffffffffffffffffffff168273ffffffffffffffffffffffffffffffffffffffff1603610ffd5760006040517f64a0ae92000000000000000000000000000000000000000000000000000000008152600401610ff491906141a4565b60405180910390fd5b6000611011838361100c612eeb565b612f05565b90508373ffffffffffffffffffffffffffffffffffffffff168173ffffffffffffffffffffffffffffffffffffffff1614611087578382826040517f64283d7b00000000000000000000000000000000000000000000000000000000815260040161107e93929190614ea8565b60405180910390fd5b50505050565b600080600a60008473ffffffffffffffffffffffffffffffffffffffff1673ffffffffffffffffffffffffffffffffffffffff1681526020019081526020016000206001018054905011156110e557600190506110ea565b600090505b919050565b61110a838383604051806020016040528060008152506126f4565b505050565b611117613dc4565b8173ffffffffffffffffffffffffffffffffffffffff16600a60008473ffffffffffffffffffffffffffffffffffffffff1673ffffffffffffffffffffffffffffffffffffffff16815260200190815260200160002060000160009054906101000a900473ffffffffffffffffffffffffffffffffffffffff1673ffffffffffffffffffffffffffffffffffffffff16146111e7576040517f08c379a00000000000000000000000000000000000000000000000000000000081526004016111de90614f2b565b60405180910390fd5b600a60008373ffffffffffffffffffffffffffffffffffffffff1673ffffffffffffffffffffffffffffffffffffffff1681526020019081526020016000206040518060600160405290816000820160009054906101000a900473ffffffffffffffffffffffffffffffffffffffff1673ffffffffffffffffffffffffffffffffffffffff1673ffffffffffffffffffffffffffffffffffffffff168152602001600182018054806020026020016040519081016040528092919081815260200182805480156112d657602002820191906000526020600020905b8154815260200190600101908083116112c2575b505050505081526020016002820180548060200260200160405190810160405280929190818152602001828054801561132e57602002820191906000526020600020905b81548152602001906001019080831161131a575b5050505050815250509050919050565b600061134982612e26565b9050919050565b61135a818461311f565b6114028360086000858152602001908152602001600020600501805461137f90614e77565b80601f01602080910402602001604051908101604052809291908181526020018280546113ab90614e77565b80156113f85780601f106113cd576101008083540402835291602001916113f8565b820191906000526020600020905b8154815290600101906020018083116113db57829003601f168201915b5050505050613218565b505050565b60008073ffffffffffffffffffffffffffffffffffffffff168273ffffffffffffffffffffffffffffffffffffffff160361147a5760006040517f89c62b6400000000000000000000000000000000000000000000000000000000815260040161147191906141a4565b60405180910390fd5b600360008373ffffffffffffffffffffffffffffffffffffffff1673ffffffffffffffffffffffffffffffffffffffff168152602001908152602001600020549050919050565b6114cb8282610f32565b5050565b8073ffffffffffffffffffffffffffffffffffffffff16600760008373ffffffffffffffffffffffffffffffffffffffff1673ffffffffffffffffffffffffffffffffffffffff16815260200190815260200160002060000160009054906101000a900473ffffffffffffffffffffffffffffffffffffffff1673ffffffffffffffffffffffffffffffffffffffff160361159f576040517f08c379a000000000000000000000000000000000000000000000000000000000815260040161159690614f97565b60405180910390fd5b6115a7613e48565b81816000019073ffffffffffffffffffffffffffffffffffffffff16908173ffffffffffffffffffffffffffffffffffffffff168152505080600760008473ffffffffffffffffffffffffffffffffffffffff1673ffffffffffffffffffffffffffffffffffffffff16815260200190815260200160002060008201518160000160006101000a81548173ffffffffffffffffffffffffffffffffffffffff021916908373ffffffffffffffffffffffffffffffffffffffff1602179055506020820151816001019080519060200190611682929190613dfb565b5060408201518160020190816116989190615163565b5060608201518160030190816116ae9190615163565b509050505050565b7f5fe361baf5e5ab55a06686601066b08fe830f6e80b0f8ed60b23fd8cecdfa486836009600086815260200190815260200160002060000154836116f98761133e565b8660405161170b959493929190615235565b60405180910390a18260096000858152602001908152602001600020600001541461176b576040517f08c379a0000000000000000000000000000000000000000000000000000000008152600401611762906152d4565b60405180910390fd5b8073ffffffffffffffffffffffffffffffffffffffff1661178b8461133e565b73ffffffffffffffffffffffffffffffffffffffff16146117e1576040517f08c379a00000000000000000000000000000000000000000000000000000000081526004016117d890615340565b60405180910390fd5b60008211611824576040517f08c379a000000000000000000000000000000000000000000000000000000000815260040161181b906153ac565b60405180910390fd5b81600960008581526020019081526020016000206003018190555060016009600085815260200190815260200160002060040160006101000a81548160ff021916908315150217905550505050565b61187b613d93565b600960008381526020019081526020016000206040518060a0016040529081600082015481526020016001820154815260200160028201548152602001600382015481526020016004820160009054906101000a900460ff1615151515815250509050919050565b6118eb613e86565b60086000838152602001908152602001600020604051806101600160405290816000820160009054906101000a900473ffffffffffffffffffffffffffffffffffffffff1673ffffffffffffffffffffffffffffffffffffffff1673ffffffffffffffffffffffffffffffffffffffff1681526020016001820154815260200160028201805461197a90614e77565b80601f01602080910402602001604051908101604052809291908181526020018280546119a690614e77565b80156119f35780601f106119c8576101008083540402835291602001916119f3565b820191906000526020600020905b8154815290600101906020018083116119d657829003601f168201915b50505050508152602001600382018054611a0c90614e77565b80601f0160208091040260200160405190810160405280929190818152602001828054611a3890614e77565b8015611a855780601f10611a5a57610100808354040283529160200191611a85565b820191906000526020600020905b815481529060010190602001808311611a6857829003601f168201915b50505050508152602001600482018054611a9e90614e77565b80601f0160208091040260200160405190810160405280929190818152602001828054611aca90614e77565b8015611b175780601f10611aec57610100808354040283529160200191611b17565b820191906000526020600020905b815481529060010190602001808311611afa57829003601f168201915b50505050508152602001600582018054611b3090614e77565b80601f0160208091040260200160405190810160405280929190818152602001828054611b5c90614e77565b8015611ba95780601f10611b7e57610100808354040283529160200191611ba9565b820191906000526020600020905b815481529060010190602001808311611b8c57829003601f168201915b5050505050815260200160068201548152602001600782015481526020016008820154815260200160098201548152602001600a8201805480602002602001604051908101604052809291908181526020018280548015611c2957602002820191906000526020600020905b815481526020019060010190808311611c15575b5050505050815250509050919050565b878073ffffffffffffffffffffffffffffffffffffffff16600760008373ffffffffffffffffffffffffffffffffffffffff1673ffffffffffffffffffffffffffffffffffffffff16815260200190815260200160002060000160009054906101000a900473ffffffffffffffffffffffffffffffffffffffff1673ffffffffffffffffffffffffffffffffffffffff1614611d0a576040517f08c379a0000000000000000000000000000000000000000000000000000000008152600401611d0190615418565b60405180910390fd5b600b6000815480929190611d1d90614d79565b9190505550611d2a613e86565b89816000019073ffffffffffffffffffffffffffffffffffffffff16908173ffffffffffffffffffffffffffffffffffffffff1681525050600b54816020018181525050888160400181905250868160600181905250858160800181905250878160a00181905250848160c0018181525050838160e001818152505082816101200181815250506000816101000181815250508060086000600b54815260200190815260200160002060008201518160000160006101000a81548173ffffffffffffffffffffffffffffffffffffffff021916908373ffffffffffffffffffffffffffffffffffffffff160217905550602082015181600101556040820151816002019081611e399190615163565b506060820151816003019081611e4f9190615163565b506080820151816004019081611e659190615163565b5060a0820151816005019081611e7b9190615163565b5060c0820151816006015560e082015181600701556101008201518160080155610120820151816009015561014082015181600a019080519060200190611ec3929190613dfb565b50905050600760008b73ffffffffffffffffffffffffffffffffffffffff1673ffffffffffffffffffffffffffffffffffffffff168152602001908152602001600020600101600b5490806001815401808255809150506001900390600052602060002001600090919091909150557fb1a2319a5bd9e11229cca9b1693bbc2880833e3b2bf30fe389f60fc6da428820600b548a8989898989604051611f6f9796959493929190615438565b60405180910390a150505050505050505050565b6000611f8e8261133e565b905060006009600084815260200190815260200160002060030154905080341015611fee576040517f08c379a0000000000000000000000000000000000000000000000000000000008152600401611fe590615508565b60405180910390fd5b3373ffffffffffffffffffffffffffffffffffffffff168273ffffffffffffffffffffffffffffffffffffffff161461205c576040517f08c379a000000000000000000000000000000000000000000000000000000000815260040161205390615574565b60405180910390fd5b60008273ffffffffffffffffffffffffffffffffffffffff168260405161208290614cc9565b60006040518083038185875af1925050503d80600081146120bf576040519150601f19603f3d011682016040523d82523d6000602084013e6120c4565b606091505b5050905080612108576040517f08c379a00000000000000000000000000000000000000000000000000000000081526004016120ff90614d2a565b60405180910390fd5b612113838686613274565b8473ffffffffffffffffffffffffffffffffffffffff16600a60008773ffffffffffffffffffffffffffffffffffffffff1673ffffffffffffffffffffffffffffffffffffffff16815260200190815260200160002060000160009054906101000a900473ffffffffffffffffffffffffffffffffffffffff1673ffffffffffffffffffffffffffffffffffffffff16146122ae576121b0613dc4565b85816000019073ffffffffffffffffffffffffffffffffffffffff16908173ffffffffffffffffffffffffffffffffffffffff168152505080600a60008873ffffffffffffffffffffffffffffffffffffffff1673ffffffffffffffffffffffffffffffffffffffff16815260200190815260200160002060008201518160000160006101000a81548173ffffffffffffffffffffffffffffffffffffffff021916908373ffffffffffffffffffffffffffffffffffffffff160217905550602082015181600101908051906020019061228b929190613dfb565b5060408201518160020190805190602001906122a8929190613dfb565b50905050505b600a60008673ffffffffffffffffffffffffffffffffffffffff1673ffffffffffffffffffffffffffffffffffffffff168152602001908152602001600020600101849080600181540180825580915050600190039060005260206000200160009091909190915055600a60008473ffffffffffffffffffffffffffffffffffffffff1673ffffffffffffffffffffffffffffffffffffffff1681526020019081526020016000206002016009600086815260200190815260200160002060010154908060018154018082558091505060019003906000526020600020016000909190919091505560005b600a60008573ffffffffffffffffffffffffffffffffffffffff1673ffffffffffffffffffffffffffffffffffffffff168152602001908152602001600020600101805490508110156125de5784600a60008673ffffffffffffffffffffffffffffffffffffffff1673ffffffffffffffffffffffffffffffffffffffff168152602001908152602001600020600101828154811061243b5761243a615594565b5b9060005260206000200154036125ca57600a60008573ffffffffffffffffffffffffffffffffffffffff1673ffffffffffffffffffffffffffffffffffffffff1681526020019081526020016000206001016001600a60008773ffffffffffffffffffffffffffffffffffffffff1673ffffffffffffffffffffffffffffffffffffffff168152602001908152602001600020600101805490506124df91906155c3565b815481106124f0576124ef615594565b5b9060005260206000200154600a60008673ffffffffffffffffffffffffffffffffffffffff1673ffffffffffffffffffffffffffffffffffffffff168152602001908152602001600020600101828154811061254f5761254e615594565b5b9060005260206000200181905550600a60008573ffffffffffffffffffffffffffffffffffffffff1673ffffffffffffffffffffffffffffffffffffffff1681526020019081526020016000206001018054806125af576125ae6155f7565b5b600190038181906000526020600020016000905590556125d9565b80806125d590614d79565b9150505b612399565b50838573ffffffffffffffffffffffffffffffffffffffff168473ffffffffffffffffffffffffffffffffffffffff167f09f9e181d077ca0d2cc962e755b35bcbb867393d2dd1279808ed20e68b059b7d8560405161263d91906141ce565b60405180910390a45050505050565b60606001805461265b90614e77565b80601f016020809104026020016040519081016040528092919081815260200182805461268790614e77565b80156126d45780601f106126a9576101008083540402835291602001916126d4565b820191906000526020600020905b8154815290600101906020018083116126b757829003601f168201915b5050505050905090565b6126f06126e9612eeb565b83836133e1565b5050565b6126ff848484610f8b565b61271361270a612eeb565b85858585613550565b50505050565b606061272482612e26565b50600060066000848152602001908152602001600020805461274590614e77565b80601f016020809104026020016040519081016040528092919081815260200182805461277190614e77565b80156127be5780601f10612793576101008083540402835291602001916127be565b820191906000526020600020905b8154815290600101906020018083116127a157829003601f168201915b5050505050905060006127cf613701565b905060008151036127e4578192505050612827565b600082511115612819578082604051602001612801929190615662565b60405160208183030381529060405292505050612827565b61282284613718565b925050505b919050565b828073ffffffffffffffffffffffffffffffffffffffff16600760008373ffffffffffffffffffffffffffffffffffffffff1673ffffffffffffffffffffffffffffffffffffffff16815260200190815260200160002060000160009054906101000a900473ffffffffffffffffffffffffffffffffffffffff1673ffffffffffffffffffffffffffffffffffffffff16146128fd576040517f08c379a00000000000000000000000000000000000000000000000000000000081526004016128f490615418565b60405180910390fd5b82600760008673ffffffffffffffffffffffffffffffffffffffff1673ffffffffffffffffffffffffffffffffffffffff168152602001908152602001600020600201908161294c9190615163565b5081600760008673ffffffffffffffffffffffffffffffffffffffff1673ffffffffffffffffffffffffffffffffffffffff168152602001908152602001600020600301908161299c9190615163565b5050505050565b6000600b54905090565b6129b5613e48565b818073ffffffffffffffffffffffffffffffffffffffff16600760008373ffffffffffffffffffffffffffffffffffffffff1673ffffffffffffffffffffffffffffffffffffffff16815260200190815260200160002060000160009054906101000a900473ffffffffffffffffffffffffffffffffffffffff1673ffffffffffffffffffffffffffffffffffffffff1614612a86576040517f08c379a0000000000000000000000000000000000000000000000000000000008152600401612a7d90615418565b60405180910390fd5b600760008473ffffffffffffffffffffffffffffffffffffffff1673ffffffffffffffffffffffffffffffffffffffff1681526020019081526020016000206040518060800160405290816000820160009054906101000a900473ffffffffffffffffffffffffffffffffffffffff1673ffffffffffffffffffffffffffffffffffffffff1673ffffffffffffffffffffffffffffffffffffffff16815260200160018201805480602002602001604051908101604052809291908181526020018280548015612b7557602002820191906000526020600020905b815481526020019060010190808311612b61575b50505050508152602001600282018054612b8e90614e77565b80601f0160208091040260200160405190810160405280929190818152602001828054612bba90614e77565b8015612c075780601f10612bdc57610100808354040283529160200191612c07565b820191906000526020600020905b815481529060010190602001808311612bea57829003601f168201915b50505050508152602001600382018054612c2090614e77565b80601f0160208091040260200160405190810160405280929190818152602001828054612c4c90614e77565b8015612c995780601f10612c6e57610100808354040283529160200191612c99565b820191906000526020600020905b815481529060010190602001808311612c7c57829003601f168201915b505050505081525050915050919050565b6000600560008473ffffffffffffffffffffffffffffffffffffffff1673ffffffffffffffffffffffffffffffffffffffff16815260200190815260200160002060008373ffffffffffffffffffffffffffffffffffffffff1673ffffffffffffffffffffffffffffffffffffffff16815260200190815260200160002060009054906101000a900460ff16905092915050565b600c5481565b60007f80ac58cd000000000000000000000000000000000000000000000000000000007bffffffffffffffffffffffffffffffffffffffffffffffffffffffff1916827bffffffffffffffffffffffffffffffffffffffffffffffffffffffff19161480612e0f57507f5b5e139f000000000000000000000000000000000000000000000000000000007bffffffffffffffffffffffffffffffffffffffffffffffffffffffff1916827bffffffffffffffffffffffffffffffffffffffffffffffffffffffff1916145b80612e1f5750612e1e82613781565b5b9050919050565b600080612e32836137eb565b9050600073ffffffffffffffffffffffffffffffffffffffff168173ffffffffffffffffffffffffffffffffffffffff1603612ea557826040517f7e273289000000000000000000000000000000000000000000000000000000008152600401612e9c91906141ce565b60405180910390fd5b80915050919050565b60006004600083815260200190815260200160002060009054906101000a900473ffffffffffffffffffffffffffffffffffffffff169050919050565b600033905090565b612f008383836001613828565b505050565b600080612f11846137eb565b9050600073ffffffffffffffffffffffffffffffffffffffff168373ffffffffffffffffffffffffffffffffffffffff1614612f5357612f528184866139ed565b5b600073ffffffffffffffffffffffffffffffffffffffff168173ffffffffffffffffffffffffffffffffffffffff1614612fe457612f95600085600080613828565b6001600360008373ffffffffffffffffffffffffffffffffffffffff1673ffffffffffffffffffffffffffffffffffffffff168152602001908152602001600020600082825403925050819055505b600073ffffffffffffffffffffffffffffffffffffffff168573ffffffffffffffffffffffffffffffffffffffff1614613067576001600360008773ffffffffffffffffffffffffffffffffffffffff1673ffffffffffffffffffffffffffffffffffffffff168152602001908152602001600020600082825401925050819055505b846002600086815260200190815260200160002060006101000a81548173ffffffffffffffffffffffffffffffffffffffff021916908373ffffffffffffffffffffffffffffffffffffffff160217905550838573ffffffffffffffffffffffffffffffffffffffff168273ffffffffffffffffffffffffffffffffffffffff167fddf252ad1be2c89b69c2b068fc378daa952ba7f163c4a11628f55a4df523b3ef60405160405180910390a4809150509392505050565b600073ffffffffffffffffffffffffffffffffffffffff168273ffffffffffffffffffffffffffffffffffffffff16036131915760006040517f64a0ae9200000000000000000000000000000000000000000000000000000000815260040161318891906141a4565b60405180910390fd5b600061319f83836000612f05565b9050600073ffffffffffffffffffffffffffffffffffffffff168173ffffffffffffffffffffffffffffffffffffffff16146132135760006040517f73c6ac6e00000000000000000000000000000000000000000000000000000000815260040161320a91906141a4565b60405180910390fd5b505050565b806006600084815260200190815260200160002090816132389190615163565b507ff8e1a15aba9398e019f0b49df1a4fde98ee17ae345cb5f6b5e2c27f5033e8ce78260405161326891906141ce565b60405180910390a15050565b600073ffffffffffffffffffffffffffffffffffffffff168273ffffffffffffffffffffffffffffffffffffffff16036132e65760006040517f64a0ae920000000000000000000000000000000000000000000000000000000081526004016132dd91906141a4565b60405180910390fd5b60006132f483836000612f05565b9050600073ffffffffffffffffffffffffffffffffffffffff168173ffffffffffffffffffffffffffffffffffffffff160361336757816040517f7e27328900000000000000000000000000000000000000000000000000000000815260040161335e91906141ce565b60405180910390fd5b8373ffffffffffffffffffffffffffffffffffffffff168173ffffffffffffffffffffffffffffffffffffffff16146133db578382826040517f64283d7b0000000000000000000000000000000000000000000000000000000081526004016133d293929190614ea8565b60405180910390fd5b50505050565b600073ffffffffffffffffffffffffffffffffffffffff168273ffffffffffffffffffffffffffffffffffffffff160361345257816040517f5b08ba1800000000000000000000000000000000000000000000000000000000815260040161344991906141a4565b60405180910390fd5b80600560008573ffffffffffffffffffffffffffffffffffffffff1673ffffffffffffffffffffffffffffffffffffffff16815260200190815260200160002060008473ffffffffffffffffffffffffffffffffffffffff1673ffffffffffffffffffffffffffffffffffffffff16815260200190815260200160002060006101000a81548160ff0219169083151502179055508173ffffffffffffffffffffffffffffffffffffffff168373ffffffffffffffffffffffffffffffffffffffff167f17307eab39ab6107e8899845ad3d59bd9653f200f220920489ca2b5937696c31836040516135439190613fc7565b60405180910390a3505050565b60008373ffffffffffffffffffffffffffffffffffffffff163b11156136fa578273ffffffffffffffffffffffffffffffffffffffff1663150b7a02868685856040518563ffffffff1660e01b81526004016135af94939291906156db565b6020604051808303816000875af19250505080156135eb57506040513d601f19601f820116820180604052508101906135e8919061573c565b60015b61366f573d806000811461361b576040519150601f19603f3d011682016040523d82523d6000602084013e613620565b606091505b50600081510361366757836040517f64a0ae9200000000000000000000000000000000000000000000000000000000815260040161365e91906141a4565b60405180910390fd5b805181602001fd5b63150b7a0260e01b7bffffffffffffffffffffffffffffffffffffffffffffffffffffffff1916817bffffffffffffffffffffffffffffffffffffffffffffffffffffffff1916146136f857836040517f64a0ae920000000000000000000000000000000000000000000000000000000081526004016136ef91906141a4565b60405180910390fd5b505b5050505050565b606060405180602001604052806000815250905090565b606061372382612e26565b50600061372e613701565b9050600081511161374e5760405180602001604052806000815250613779565b8061375884613ab1565b604051602001613769929190615662565b6040516020818303038152906040525b915050919050565b60007f01ffc9a7000000000000000000000000000000000000000000000000000000007bffffffffffffffffffffffffffffffffffffffffffffffffffffffff1916827bffffffffffffffffffffffffffffffffffffffffffffffffffffffff1916149050919050565b60006002600083815260200190815260200160002060009054906101000a900473ffffffffffffffffffffffffffffffffffffffff169050919050565b80806138615750600073ffffffffffffffffffffffffffffffffffffffff168273ffffffffffffffffffffffffffffffffffffffff1614155b1561399557600061387184612e26565b9050600073ffffffffffffffffffffffffffffffffffffffff168373ffffffffffffffffffffffffffffffffffffffff16141580156138dc57508273ffffffffffffffffffffffffffffffffffffffff168173ffffffffffffffffffffffffffffffffffffffff1614155b80156138ef57506138ed8184612caa565b155b1561393157826040517fa9fbf51f00000000000000000000000000000000000000000000000000000000815260040161392891906141a4565b60405180910390fd5b811561399357838573ffffffffffffffffffffffffffffffffffffffff168273ffffffffffffffffffffffffffffffffffffffff167f8c5be1e5ebec7d5bd14f71427d1e84f3dd0314c0f7b2291e5b200ac8c7c3b92560405160405180910390a45b505b836004600085815260200190815260200160002060006101000a81548173ffffffffffffffffffffffffffffffffffffffff021916908373ffffffffffffffffffffffffffffffffffffffff16021790555050505050565b6139f8838383613b7f565b613aac57600073ffffffffffffffffffffffffffffffffffffffff168373ffffffffffffffffffffffffffffffffffffffff1603613a6d57806040517f7e273289000000000000000000000000000000000000000000000000000000008152600401613a6491906141ce565b60405180910390fd5b81816040517f177e802f000000000000000000000000000000000000000000000000000000008152600401613aa3929190615769565b60405180910390fd5b505050565b606060006001613ac084613c40565b01905060008167ffffffffffffffff811115613adf57613ade614615565b5b6040519080825280601f01601f191660200182016040528015613b115781602001600182028036833780820191505090505b509050600082602001820190505b600115613b74578080600190039150507f3031323334353637383961626364656600000000000000000000000000000000600a86061a8153600a8581613b6857613b67615792565b5b04945060008503613b1f575b819350505050919050565b60008073ffffffffffffffffffffffffffffffffffffffff168373ffffffffffffffffffffffffffffffffffffffff1614158015613c3757508273ffffffffffffffffffffffffffffffffffffffff168473ffffffffffffffffffffffffffffffffffffffff161480613bf85750613bf78484612caa565b5b80613c3657508273ffffffffffffffffffffffffffffffffffffffff16613c1e83612eae565b73ffffffffffffffffffffffffffffffffffffffff16145b5b90509392505050565b600080600090507a184f03e93ff9f4daa797ed6e38ed64bf6a1f0100000000000000008310613c9e577a184f03e93ff9f4daa797ed6e38ed64bf6a1f0100000000000000008381613c9457613c93615792565b5b0492506040810190505b6d04ee2d6d415b85acef81000000008310613cdb576d04ee2d6d415b85acef81000000008381613cd157613cd0615792565b5b0492506020810190505b662386f26fc100008310613d0a57662386f26fc100008381613d0057613cff615792565b5b0492506010810190505b6305f5e1008310613d33576305f5e1008381613d2957613d28615792565b5b0492506008810190505b6127108310613d58576127108381613d4e57613d4d615792565b5b0492506004810190505b60648310613d7b5760648381613d7157613d70615792565b5b0492506002810190505b600a8310613d8a576001810190505b80915050919050565b6040518060a00160405280600081526020016000815260200160008152602001600081526020016000151581525090565b6040518060600160405280600073ffffffffffffffffffffffffffffffffffffffff16815260200160608152602001606081525090565b828054828255906000526020600020908101928215613e37579160200282015b82811115613e36578251825591602001919060010190613e1b565b5b509050613e449190613ef6565b5090565b6040518060800160405280600073ffffffffffffffffffffffffffffffffffffffff1681526020016060815260200160608152602001606081525090565b604051806101600160405280600073ffffffffffffffffffffffffffffffffffffffff168152602001600081526020016060815260200160608152602001606081526020016060815260200160008152602001600081526020016000815260200160008152602001606081525090565b5b80821115613f0f576000816000905550600101613ef7565b5090565b6000604051905090565b600080fd5b600080fd5b60007fffffffff0000000000000000000000000000000000000000000000000000000082169050919050565b613f5c81613f27565b8114613f6757600080fd5b50565b600081359050613f7981613f53565b92915050565b600060208284031215613f9557613f94613f1d565b5b6000613fa384828501613f6a565b91505092915050565b60008115159050919050565b613fc181613fac565b82525050565b6000602082019050613fdc6000830184613fb8565b92915050565b600073ffffffffffffffffffffffffffffffffffffffff82169050919050565b600061400d82613fe2565b9050919050565b61401d81614002565b811461402857600080fd5b50565b60008135905061403a81614014565b92915050565b6000819050919050565b61405381614040565b811461405e57600080fd5b50565b6000813590506140708161404a565b92915050565b6000806040838503121561408d5761408c613f1d565b5b600061409b8582860161402b565b92505060206140ac85828601614061565b9150509250929050565b600081519050919050565b600082825260208201905092915050565b60005b838110156140f05780820151818401526020810190506140d5565b60008484015250505050565b6000601f19601f8301169050919050565b6000614118826140b6565b61412281856140c1565b93506141328185602086016140d2565b61413b816140fc565b840191505092915050565b60006020820190508181036000830152614160818461410d565b905092915050565b60006020828403121561417e5761417d613f1d565b5b600061418c84828501614061565b91505092915050565b61419e81614002565b82525050565b60006020820190506141b96000830184614195565b92915050565b6141c881614040565b82525050565b60006020820190506141e360008301846141bf565b92915050565b60008060006060848603121561420257614201613f1d565b5b60006142108682870161402b565b93505060206142218682870161402b565b925050604061423286828701614061565b9150509250925092565b60006020828403121561425257614251613f1d565b5b60006142608482850161402b565b91505092915050565b61427281614002565b82525050565b600081519050919050565b600082825260208201905092915050565b6000819050602082019050919050565b6142ad81614040565b82525050565b60006142bf83836142a4565b60208301905092915050565b6000602082019050919050565b60006142e382614278565b6142ed8185614283565b93506142f883614294565b8060005b8381101561432957815161431088826142b3565b975061431b836142cb565b9250506001810190506142fc565b5085935050505092915050565b600060608301600083015161434e6000860182614269565b506020830151848203602086015261436682826142d8565b9150506040830151848203604086015261438082826142d8565b9150508091505092915050565b600060208201905081810360008301526143a78184614336565b905092915050565b6000806000606084860312156143c8576143c7613f1d565b5b60006143d686828701614061565b93505060206143e786828701614061565b92505060406143f88682870161402b565b9150509250925092565b61440b81613fac565b82525050565b60a08201600082015161442760008501826142a4565b50602082015161443a60208501826142a4565b50604082015161444d60408501826142a4565b50606082015161446060608501826142a4565b5060808201516144736080850182614402565b50505050565b600060a08201905061448e6000830184614411565b92915050565b600082825260208201905092915050565b60006144b0826140b6565b6144ba8185614494565b93506144ca8185602086016140d2565b6144d3816140fc565b840191505092915050565b6000610160830160008301516144f76000860182614269565b50602083015161450a60208601826142a4565b506040830151848203604086015261452282826144a5565b9150506060830151848203606086015261453c82826144a5565b9150506080830151848203608086015261455682826144a5565b91505060a083015184820360a086015261457082826144a5565b91505060c083015161458560c08601826142a4565b5060e083015161459860e08601826142a4565b506101008301516145ad6101008601826142a4565b506101208301516145c26101208601826142a4565b506101408301518482036101408601526145dc82826142d8565b9150508091505092915050565b6000602082019050818103600083015261460381846144de565b905092915050565b600080fd5b600080fd5b7f4e487b7100000000000000000000000000000000000000000000000000000000600052604160045260246000fd5b61464d826140fc565b810181811067ffffffffffffffff8211171561466c5761466b614615565b5b80604052505050565b600061467f613f13565b905061468b8282614644565b919050565b600067ffffffffffffffff8211156146ab576146aa614615565b5b6146b4826140fc565b9050602081019050919050565b82818337600083830152505050565b60006146e36146de84614690565b614675565b9050828152602081018484840111156146ff576146fe614610565b5b61470a8482856146c1565b509392505050565b600082601f8301126147275761472661460b565b5b81356147378482602086016146d0565b91505092915050565b600080600080600080600080610100898b03121561476157614760613f1d565b5b600061476f8b828c0161402b565b985050602089013567ffffffffffffffff8111156147905761478f613f22565b5b61479c8b828c01614712565b975050604089013567ffffffffffffffff8111156147bd576147bc613f22565b5b6147c98b828c01614712565b965050606089013567ffffffffffffffff8111156147ea576147e9613f22565b5b6147f68b828c01614712565b955050608089013567ffffffffffffffff81111561481757614816613f22565b5b6148238b828c01614712565b94505060a06148348b828c01614061565b93505060c06148458b828c01614061565b92505060e06148568b828c01614061565b9150509295985092959890939650565b61486f81613fac565b811461487a57600080fd5b50565b60008135905061488c81614866565b92915050565b600080604083850312156148a9576148a8613f1d565b5b60006148b78582860161402b565b92505060206148c88582860161487d565b9150509250929050565b600067ffffffffffffffff8211156148ed576148ec614615565b5b6148f6826140fc565b9050602081019050919050565b6000614916614911846148d2565b614675565b90508281526020810184848401111561493257614931614610565b5b61493d8482856146c1565b509392505050565b600082601f83011261495a5761495961460b565b5b813561496a848260208601614903565b91505092915050565b6000806000806080858703121561498d5761498c613f1d565b5b600061499b8782880161402b565b94505060206149ac8782880161402b565b93505060406149bd87828801614061565b925050606085013567ffffffffffffffff8111156149de576149dd613f22565b5b6149ea87828801614945565b91505092959194509250565b600080600060608486031215614a0f57614a0e613f1d565b5b6000614a1d8682870161402b565b935050602084013567ffffffffffffffff811115614a3e57614a3d613f22565b5b614a4a86828701614712565b925050604084013567ffffffffffffffff811115614a6b57614a6a613f22565b5b614a7786828701614712565b9150509250925092565b6000608083016000830151614a996000860182614269565b5060208301518482036020860152614ab182826142d8565b91505060408301518482036040860152614acb82826144a5565b91505060608301518482036060860152614ae582826144a5565b9150508091505092915050565b60006020820190508181036000830152614b0c8184614a81565b905092915050565b60008060408385031215614b2b57614b2a613f1d565b5b6000614b398582860161402b565b9250506020614b4a8582860161402b565b9150509250929050565b7f4576656e7420646f6573206e6f74206578697374000000000000000000000000600082015250565b6000614b8a6014836140c1565b9150614b9582614b54565b602082019050919050565b60006020820190508181036000830152614bb981614b7d565b9050919050565b7f5469636b6574732061726520736f6c64206f7574000000000000000000000000600082015250565b6000614bf66014836140c1565b9150614c0182614bc0565b602082019050919050565b60006020820190508181036000830152614c2581614be9565b9050919050565b7f507269636520697320746f6f206c6f7700000000000000000000000000000000600082015250565b6000614c626010836140c1565b9150614c6d82614c2c565b602082019050919050565b60006020820190508181036000830152614c9181614c55565b9050919050565b600081905092915050565b50565b6000614cb3600083614c98565b9150614cbe82614ca3565b600082019050919050565b6000614cd482614ca6565b9150819050919050565b7f5472616e73666572206661696c65640000000000000000000000000000000000600082015250565b6000614d14600f836140c1565b9150614d1f82614cde565b602082019050919050565b60006020820190508181036000830152614d4381614d07565b9050919050565b7f4e487b7100000000000000000000000000000000000000000000000000000000600052601160045260246000fd5b6000614d8482614040565b91507fffffffffffffffffffffffffffffffffffffffffffffffffffffffffffffffff8203614db657614db5614d4a565b5b600182019050919050565b6000614dcc82614040565b9150614dd783614040565b9250828201905080821115614def57614dee614d4a565b5b92915050565b600060a082019050614e0a60008301886141bf565b614e1760208301876141bf565b614e2460408301866141bf565b614e3160608301856141bf565b614e3e60808301846141bf565b9695505050505050565b7f4e487b7100000000000000000000000000000000000000000000000000000000600052602260045260246000fd5b60006002820490506001821680614e8f57607f821691505b602082108103614ea257614ea1614e48565b5b50919050565b6000606082019050614ebd6000830186614195565b614eca60208301856141bf565b614ed76040830184614195565b949350505050565b7f446964206e6f742062757920616e79204e465473000000000000000000000000600082015250565b6000614f156014836140c1565b9150614f2082614edf565b602082019050919050565b60006020820190508181036000830152614f4481614f08565b9050919050565b7f416c726561647920616e204f7267616e69736572000000000000000000000000600082015250565b6000614f816014836140c1565b9150614f8c82614f4b565b602082019050919050565b60006020820190508181036000830152614fb081614f74565b9050919050565b60008190508160005260206000209050919050565b60006020601f8301049050919050565b600082821b905092915050565b6000600883026150197fffffffffffffffffffffffffffffffffffffffffffffffffffffffffffffffff82614fdc565b6150238683614fdc565b95508019841693508086168417925050509392505050565b6000819050919050565b600061506061505b61505684614040565b61503b565b614040565b9050919050565b6000819050919050565b61507a83615045565b61508e61508682615067565b848454614fe9565b825550505050565b600090565b6150a3615096565b6150ae818484615071565b505050565b5b818110156150d2576150c760008261509b565b6001810190506150b4565b5050565b601f821115615117576150e881614fb7565b6150f184614fcc565b81016020851015615100578190505b61511461510c85614fcc565b8301826150b3565b50505b505050565b600082821c905092915050565b600061513a6000198460080261511c565b1980831691505092915050565b60006151538383615129565b9150826002028217905092915050565b61516c826140b6565b67ffffffffffffffff81111561518557615184614615565b5b61518f8254614e77565b61519a8282856150d6565b600060209050601f8311600181146151cd57600084156151bb578287015190505b6151c58582615147565b86555061522d565b601f1984166151db86614fb7565b60005b82811015615203578489015182556001820191506020850194506020810190506151de565b86831015615220578489015161521c601f891682615129565b8355505b6001600288020188555050505b505050505050565b600060a08201905061524a60008301886141bf565b61525760208301876141bf565b6152646040830186614195565b6152716060830185614195565b61527e60808301846141bf565b9695505050505050565b7f5469636b657420646f6573206e6f742065786973740000000000000000000000600082015250565b60006152be6015836140c1565b91506152c982615288565b602082019050919050565b600060208201905081810360008301526152ed816152b1565b9050919050565b7f596f7520617265206e6f7420746865206f776e65720000000000000000000000600082015250565b600061532a6015836140c1565b9150615335826152f4565b602082019050919050565b600060208201905081810360008301526153598161531d565b9050919050565b7f5072696365206d7573742062652067726561746572207468616e207a65726f00600082015250565b6000615396601f836140c1565b91506153a182615360565b602082019050919050565b600060208201905081810360008301526153c581615389565b9050919050565b7f596f7520617265206e6f7420616e206f7267616e697365720000000000000000600082015250565b60006154026018836140c1565b915061540d826153cc565b602082019050919050565b60006020820190508181036000830152615431816153f5565b9050919050565b600060e08201905061544d600083018a6141bf565b818103602083015261545f818961410d565b90508181036040830152615473818861410d565b90508181036060830152615487818761410d565b905061549660808301866141bf565b6154a360a08301856141bf565b6154b060c08301846141bf565b98975050505050505050565b7f496e73756666696369656e74204554482073656e740000000000000000000000600082015250565b60006154f26015836140c1565b91506154fd826154bc565b602082019050919050565b60006020820190508181036000830152615521816154e5565b9050919050565b7f4f6e6c7920746865206f776e65722063616e207472616e736665720000000000600082015250565b600061555e601b836140c1565b915061556982615528565b602082019050919050565b6000602082019050818103600083015261558d81615551565b9050919050565b7f4e487b7100000000000000000000000000000000000000000000000000000000600052603260045260246000fd5b60006155ce82614040565b91506155d983614040565b92508282039050818111156155f1576155f0614d4a565b5b92915050565b7f4e487b7100000000000000000000000000000000000000000000000000000000600052603160045260246000fd5b600081905092915050565b600061563c826140b6565b6156468185615626565b93506156568185602086016140d2565b80840191505092915050565b600061566e8285615631565b915061567a8284615631565b91508190509392505050565b600081519050919050565b600082825260208201905092915050565b60006156ad82615686565b6156b78185615691565b93506156c78185602086016140d2565b6156d0816140fc565b840191505092915050565b60006080820190506156f06000830187614195565b6156fd6020830186614195565b61570a60408301856141bf565b818103606083015261571c81846156a2565b905095945050505050565b60008151905061573681613f53565b92915050565b60006020828403121561575257615751613f1d565b5b600061576084828501615727565b91505092915050565b600060408201905061577e6000830185614195565b61578b60208301846141bf565b9392505050565b7f4e487b7100000000000000000000000000000000000000000000000000000000600052601260045260246000fdfea26469706673582212209218e677c2961350f10368266772565c9f932df9107b7df2c3d28c70b0f11e9f64736f6c634300081c0033",
  "linkReferences": {},
  "deployedLinkReferences": {}
}