{
  "_format": "hh-sol-artifact-1",
  "contractName": "NFTminting",
  "sourceName": "contracts/NFTminting.sol",
  "abi": [
    {
      "inputs": [],
      "stateMutability": "nonpayable",
      "type": "constructor"
    },
    {
      "inputs": [
        {
          "internalType": "address",
          "name": "sender",
          "type": "address"
        },
        {
          "internalType": "uint256",
          "name": "tokenId",
          "type": "uint256"
        },
        {
          "internalType": "address",
          "name": "owner",
          "type": "address"
        }
      ],
      "name": "ERC721IncorrectOwner",
      "type": "error"
    },
    {
      "inputs": [
        {
          "internalType": "address",
          "name": "operator",
          "type": "address"
        },
        {
          "internalType": "uint256",
          "name": "tokenId",
          "type": "uint256"
        }
      ],
      "name": "ERC721InsufficientApproval",
      "type": "error"
    },
    {
      "inputs": [
        {
          "internalType": "address",
          "name": "approver",
          "type": "address"
        }
      ],
      "name": "ERC721InvalidApprover",
      "type": "error"
    },
    {
      "inputs": [
        {
          "internalType": "address",
          "name": "operator",
          "type": "address"
        }
      ],
      "name": "ERC721InvalidOperator",
      "type": "error"
    },
    {
      "inputs": [
        {
          "internalType": "address",
          "name": "owner",
          "type": "address"
        }
      ],
      "name": "ERC721InvalidOwner",
      "type": "error"
    },
    {
      "inputs": [
        {
          "internalType": "address",
          "name": "receiver",
          "type": "address"
        }
      ],
      "name": "ERC721InvalidReceiver",
      "type": "error"
    },
    {
      "inputs": [
        {
          "internalType": "address",
          "name": "sender",
          "type": "address"
        }
      ],
      "name": "ERC721InvalidSender",
      "type": "error"
    },
    {
      "inputs": [
        {
          "internalType": "uint256",
          "name": "tokenId",
          "type": "uint256"
        }
      ],
      "name": "ERC721NonexistentToken",
      "type": "error"
    },
    {
      "anonymous": false,
      "inputs": [
        {
          "indexed": true,
          "internalType": "address",
          "name": "owner",
          "type": "address"
        },
        {
          "indexed": true,
          "internalType": "address",
          "name": "approved",
          "type": "address"
        },
        {
          "indexed": true,
          "internalType": "uint256",
          "name": "tokenId",
          "type": "uint256"
        }
      ],
      "name": "Approval",
      "type": "event"
    },
    {
      "anonymous": false,
      "inputs": [
        {
          "indexed": true,
          "internalType": "address",
          "name": "owner",
          "type": "address"
        },
        {
          "indexed": true,
          "internalType": "address",
          "name": "operator",
          "type": "address"
        },
        {
          "indexed": false,
          "internalType": "bool",
          "name": "approved",
          "type": "bool"
        }
      ],
      "name": "ApprovalForAll",
      "type": "event"
    },
    {
      "anonymous": false,
      "inputs": [
        {
          "indexed": false,
          "internalType": "uint256",
          "name": "_fromTokenId",
          "type": "uint256"
        },
        {
          "indexed": false,
          "internalType": "uint256",
          "name": "_toTokenId",
          "type": "uint256"
        }
      ],
      "name": "BatchMetadataUpdate",
      "type": "event"
    },
    {
      "anonymous": false,
      "inputs": [
        {
          "indexed": false,
          "internalType": "uint256",
          "name": "_tokenId",
          "type": "uint256"
        }
      ],
      "name": "MetadataUpdate",
      "type": "event"
    },
    {
      "anonymous": false,
      "inputs": [
        {
          "indexed": true,
          "internalType": "address",
          "name": "from",
          "type": "address"
        },
        {
          "indexed": true,
          "internalType": "address",
          "name": "to",
          "type": "address"
        },
        {
          "indexed": true,
          "internalType": "uint256",
          "name": "tokenId",
          "type": "uint256"
        }
      ],
      "name": "Transfer",
      "type": "event"
    },
    {
      "anonymous": false,
      "inputs": [
        {
          "indexed": false,
          "internalType": "uint256",
          "name": "eventId",
          "type": "uint256"
        },
        {
          "indexed": false,
          "internalType": "string",
          "name": "eventName",
          "type": "string"
        },
        {
          "indexed": false,
          "internalType": "string",
          "name": "eventDescription",
          "type": "string"
        },
        {
          "indexed": false,
          "internalType": "string",
          "name": "venue",
          "type": "string"
        },
        {
          "indexed": false,
          "internalType": "uint256",
          "name": "ticketPrice",
          "type": "uint256"
        },
        {
          "indexed": false,
          "internalType": "uint256",
          "name": "totalTickets",
          "type": "uint256"
        },
        {
          "indexed": false,
          "internalType": "uint256",
          "name": "resalePrice",
          "type": "uint256"
        }
      ],
      "name": "newEventCreated",
      "type": "event"
    },
    {
      "anonymous": false,
      "inputs": [
        {
          "indexed": false,
          "internalType": "uint256",
          "name": "ticketId",
          "type": "uint256"
        },
        {
          "indexed": false,
          "internalType": "uint256",
          "name": "eventId",
          "type": "uint256"
        },
        {
          "indexed": false,
          "internalType": "uint256",
          "name": "seatNum",
          "type": "uint256"
        },
        {
          "indexed": false,
          "internalType": "uint256",
          "name": "Price",
          "type": "uint256"
        }
      ],
      "name": "newTicketCreated",
      "type": "event"
    },
    {
      "inputs": [
        {
          "internalType": "address",
          "name": "to",
          "type": "address"
        },
        {
          "internalType": "uint256",
          "name": "tokenId",
          "type": "uint256"
        }
      ],
      "name": "approve",
      "outputs": [],
      "stateMutability": "nonpayable",
      "type": "function"
    },
    {
      "inputs": [
        {
          "internalType": "address",
          "name": "owner",
          "type": "address"
        }
      ],
      "name": "balanceOf",
      "outputs": [
        {
          "internalType": "uint256",
          "name": "",
          "type": "uint256"
        }
      ],
      "stateMutability": "view",
      "type": "function"
    },
    {
      "inputs": [
        {
          "internalType": "address",
          "name": "addr",
          "type": "address"
        },
        {
          "internalType": "uint256",
          "name": "_eventId",
          "type": "uint256"
        }
      ],
      "name": "createNFTticket",
      "outputs": [],
      "stateMutability": "payable",
      "type": "function"
    },
    {
      "inputs": [
        {
          "internalType": "uint256",
          "name": "tokenId",
          "type": "uint256"
        }
      ],
      "name": "getApproved",
      "outputs": [
        {
          "internalType": "address",
          "name": "",
          "type": "address"
        }
      ],
      "stateMutability": "view",
      "type": "function"
    },
    {
      "inputs": [
        {
          "internalType": "address",
          "name": "addr",
          "type": "address"
        }
      ],
      "name": "getBuyer",
      "outputs": [
        {
          "components": [
            {
              "internalType": "address",
              "name": "buyerAddress",
              "type": "address"
            },
            {
              "internalType": "uint256[]",
              "name": "ticketIds",
              "type": "uint256[]"
            },
            {
              "internalType": "uint256[]",
              "name": "pastEventIds",
              "type": "uint256[]"
            }
          ],
          "internalType": "struct NFTminting.buyer",
          "name": "",
          "type": "tuple"
        }
      ],
      "stateMutability": "view",
      "type": "function"
    },
    {
      "inputs": [],
      "name": "getEventCount",
      "outputs": [
        {
          "internalType": "uint256",
          "name": "",
          "type": "uint256"
        }
      ],
      "stateMutability": "view",
      "type": "function"
    },
    {
      "inputs": [
        {
          "internalType": "address",
          "name": "addr",
          "type": "address"
        }
      ],
      "name": "getOrgDetails",
      "outputs": [
        {
          "components": [
            {
              "internalType": "address",
              "name": "orgAddress",
              "type": "address"
            },
            {
              "internalType": "uint256[]",
              "name": "eventIds",
              "type": "uint256[]"
            },
            {
              "internalType": "string",
              "name": "logo",
              "type": "string"
            },
            {
              "internalType": "string",
              "name": "orgName",
              "type": "string"
            }
          ],
          "internalType": "struct NFTminting.organiser",
          "name": "",
          "type": "tuple"
        }
      ],
      "stateMutability": "view",
      "type": "function"
    },
    {
      "inputs": [
        {
          "internalType": "uint256",
          "name": "_ticketId",
          "type": "uint256"
        }
      ],
      "name": "getTicket",
      "outputs": [
        {
          "components": [
            {
              "internalType": "uint256",
              "name": "ticketId",
              "type": "uint256"
            },
            {
              "internalType": "uint256",
              "name": "eventId",
              "type": "uint256"
            },
            {
              "internalType": "uint256",
              "name": "seatNum",
              "type": "uint256"
            },
            {
              "internalType": "uint256",
              "name": "Price",
              "type": "uint256"
            },
            {
              "internalType": "bool",
              "name": "isAvailablebid",
              "type": "bool"
            }
          ],
          "internalType": "struct NFTminting.ticket",
          "name": "",
          "type": "tuple"
        }
      ],
      "stateMutability": "view",
      "type": "function"
    },
    {
      "inputs": [
        {
          "internalType": "uint256",
          "name": "_eventId",
          "type": "uint256"
        }
      ],
      "name": "getevent",
      "outputs": [
        {
          "components": [
            {
              "internalType": "address",
              "name": "orgAddress",
              "type": "address"
            },
            {
              "internalType": "uint256",
              "name": "eventId",
              "type": "uint256"
            },
            {
              "internalType": "string",
              "name": "eventName",
              "type": "string"
            },
            {
              "internalType": "string",
              "name": "eventDescription",
              "type": "string"
            },
            {
              "internalType": "string",
              "name": "venue",
              "type": "string"
            },
            {
              "internalType": "string",
              "name": "uri",
              "type": "string"
            },
            {
              "internalType": "uint256",
              "name": "ticketPrice",
              "type": "uint256"
            },
            {
              "internalType": "uint256",
              "name": "totalTickets",
              "type": "uint256"
            },
            {
              "internalType": "uint256",
              "name": "ticketsSold",
              "type": "uint256"
            },
            {
              "internalType": "uint256",
              "name": "resalePrice",
              "type": "uint256"
            },
            {
              "internalType": "uint256[]",
              "name": "ticketIds",
              "type": "uint256[]"
            }
          ],
          "internalType": "struct NFTminting.Event",
          "name": "",
          "type": "tuple"
        }
      ],
      "stateMutability": "view",
      "type": "function"
    },
    {
      "inputs": [
        {
          "internalType": "address",
          "name": "owner",
          "type": "address"
        },
        {
          "internalType": "address",
          "name": "operator",
          "type": "address"
        }
      ],
      "name": "isApprovedForAll",
      "outputs": [
        {
          "internalType": "bool",
          "name": "",
          "type": "bool"
        }
      ],
      "stateMutability": "view",
      "type": "function"
    },
    {
      "inputs": [
        {
          "internalType": "address",
          "name": "addr",
          "type": "address"
        }
      ],
      "name": "isBuyer",
      "outputs": [
        {
          "internalType": "bool",
          "name": "",
          "type": "bool"
        }
      ],
      "stateMutability": "view",
      "type": "function"
    },
    {
      "inputs": [
        {
          "internalType": "uint256",
          "name": "_ticketId",
          "type": "uint256"
        },
        {
          "internalType": "uint256",
          "name": "_eventId",
          "type": "uint256"
        },
        {
          "internalType": "address",
          "name": "to",
          "type": "address"
        }
      ],
      "name": "mintNFT",
      "outputs": [],
      "stateMutability": "nonpayable",
      "type": "function"
    },
    {
      "inputs": [],
      "name": "name",
      "outputs": [
        {
          "internalType": "string",
          "name": "",
          "type": "string"
        }
      ],
      "stateMutability": "view",
      "type": "function"
    },
    {
      "inputs": [
        {
          "internalType": "address",
          "name": "addr",
          "type": "address"
        },
        {
          "internalType": "string",
          "name": "_eventName",
          "type": "string"
        },
        {
          "internalType": "string",
          "name": "uri",
          "type": "string"
        },
        {
          "internalType": "string",
          "name": "_eventDescription",
          "type": "string"
        },
        {
          "internalType": "string",
          "name": "_venue",
          "type": "string"
        },
        {
          "internalType": "uint256",
          "name": "_ticketPrice",
          "type": "uint256"
        },
        {
          "internalType": "uint256",
          "name": "_totalTickets",
          "type": "uint256"
        },
        {
          "internalType": "uint256",
          "name": "_resalePrice",
          "type": "uint256"
        }
      ],
      "name": "newEvent",
      "outputs": [],
      "stateMutability": "nonpayable",
      "type": "function"
    },
    {
      "inputs": [
        {
          "internalType": "address",
          "name": "addr",
          "type": "address"
        }
      ],
      "name": "newOrganiser",
      "outputs": [],
      "stateMutability": "nonpayable",
      "type": "function"
    },
    {
      "inputs": [
        {
          "internalType": "uint256",
          "name": "tokenId",
          "type": "uint256"
        }
      ],
      "name": "ownerOf",
      "outputs": [
        {
          "internalType": "address",
          "name": "",
          "type": "address"
        }
      ],
      "stateMutability": "view",
      "type": "function"
    },
    {
      "inputs": [
        {
          "internalType": "uint256",
          "name": "id",
          "type": "uint256"
        },
        {
          "internalType": "uint256",
          "name": "_price",
          "type": "uint256"
        },
        {
          "internalType": "address",
          "name": "addr",
          "type": "address"
        }
      ],
      "name": "resaleNFT",
      "outputs": [],
      "stateMutability": "nonpayable",
      "type": "function"
    },
    {
      "inputs": [
        {
          "internalType": "address",
          "name": "from",
          "type": "address"
        },
        {
          "internalType": "address",
          "name": "to",
          "type": "address"
        },
        {
          "internalType": "uint256",
          "name": "tokenId",
          "type": "uint256"
        }
      ],
      "name": "safeTransferFrom",
      "outputs": [],
      "stateMutability": "nonpayable",
      "type": "function"
    },
    {
      "inputs": [
        {
          "internalType": "address",
          "name": "from",
          "type": "address"
        },
        {
          "internalType": "address",
          "name": "to",
          "type": "address"
        },
        {
          "internalType": "uint256",
          "name": "tokenId",
          "type": "uint256"
        },
        {
          "internalType": "bytes",
          "name": "data",
          "type": "bytes"
        }
      ],
      "name": "safeTransferFrom",
      "outputs": [],
      "stateMutability": "nonpayable",
      "type": "function"
    },
    {
      "inputs": [
        {
          "internalType": "address",
          "name": "operator",
          "type": "address"
        },
        {
          "internalType": "bool",
          "name": "approved",
          "type": "bool"
        }
      ],
      "name": "setApprovalForAll",
      "outputs": [],
      "stateMutability": "nonpayable",
      "type": "function"
    },
    {
      "inputs": [
        {
          "internalType": "bytes4",
          "name": "interfaceId",
          "type": "bytes4"
        }
      ],
      "name": "supportsInterface",
      "outputs": [
        {
          "internalType": "bool",
          "name": "",
          "type": "bool"
        }
      ],
      "stateMutability": "view",
      "type": "function"
    },
    {
      "inputs": [],
      "name": "symbol",
      "outputs": [
        {
          "internalType": "string",
          "name": "",
          "type": "string"
        }
      ],
      "stateMutability": "view",
      "type": "function"
    },
    {
      "inputs": [],
      "name": "ticketId",
      "outputs": [
        {
          "internalType": "uint256",
          "name": "",
          "type": "uint256"
        }
      ],
      "stateMutability": "view",
      "type": "function"
    },
    {
      "inputs": [
        {
          "internalType": "uint256",
          "name": "tokenId",
          "type": "uint256"
        }
      ],
      "name": "tokenURI",
      "outputs": [
        {
          "internalType": "string",
          "name": "",
          "type": "string"
        }
      ],
      "stateMutability": "view",
      "type": "function"
    },
    {
      "inputs": [
        {
          "internalType": "address",
          "name": "from",
          "type": "address"
        },
        {
          "internalType": "address",
          "name": "to",
          "type": "address"
        },
        {
          "internalType": "uint256",
          "name": "tokenId",
          "type": "uint256"
        }
      ],
      "name": "transferFrom",
      "outputs": [],
      "stateMutability": "nonpayable",
      "type": "function"
    },
    {
      "inputs": [
        {
          "internalType": "address",
          "name": "_to",
          "type": "address"
        },
        {
          "internalType": "uint256",
          "name": "_ticketId",
          "type": "uint256"
        }
      ],
      "name": "transferNFT",
      "outputs": [],
      "stateMutability": "nonpayable",
      "type": "function"
    },
    {
      "inputs": [
        {
          "internalType": "address",
          "name": "addr",
          "type": "address"
        },
        {
          "internalType": "string",
          "name": "_logo",
          "type": "string"
        },
        {
          "internalType": "string",
          "name": "_orgName",
          "type": "string"
        }
      ],
      "name": "updateOrgDetails",
      "outputs": [],
      "stateMutability": "nonpayable",
      "type": "function"
    }
  ],
  "bytecode": "0x60806040526000600b556000600c5534801561001a57600080fd5b506040518060400160405280600b81526020017f4e46545f4d494e54494e470000000000000000000000000000000000000000008152506040518060400160405280600481526020017f4e46544d00000000000000000000000000000000000000000000000000000000815250816000908161009691906102fe565b5080600190816100a691906102fe565b5050506103d0565b600081519050919050565b7f4e487b7100000000000000000000000000000000000000000000000000000000600052604160045260246000fd5b7f4e487b7100000000000000000000000000000000000000000000000000000000600052602260045260246000fd5b6000600282049050600182168061012f57607f821691505b602082108103610142576101416100e8565b5b50919050565b60008190508160005260206000209050919050565b60006020601f8301049050919050565b600082821b905092915050565b6000600883026101aa7fffffffffffffffffffffffffffffffffffffffffffffffffffffffffffffffff8261016d565b6101b4868361016d565b95508019841693508086168417925050509392505050565b6000819050919050565b6000819050919050565b60006101fb6101f66101f1846101cc565b6101d6565b6101cc565b9050919050565b6000819050919050565b610215836101e0565b61022961022182610202565b84845461017a565b825550505050565b600090565b61023e610231565b61024981848461020c565b505050565b5b8181101561026d57610262600082610236565b60018101905061024f565b5050565b601f8211156102b25761028381610148565b61028c8461015d565b8101602085101561029b578190505b6102af6102a78561015d565b83018261024e565b50505b505050565b600082821c905092915050565b60006102d5600019846008026102b7565b1980831691505092915050565b60006102ee83836102c4565b9150826002028217905092915050565b610307826100ae565b67ffffffffffffffff8111156103205761031f6100b9565b5b61032a8254610117565b610335828285610271565b600060209050601f8311600181146103685760008415610356578287015190505b61036085826102e2565b8655506103c8565b601f19841661037686610148565b60005b8281101561039e57848901518255600182019150602085019450602081019050610379565b868310156103bb57848901516103b7601f8916826102c4565b8355505b6001600288020188555050505b505050505050565b614b67806103df6000396000f3fe60806040526004361061019c5760003560e01c80637ccc85eb116100ec578063b88d4fde1161008a578063d9e48f5c11610064578063d9e48f5c146105fb578063e785f7c214610626578063e985e9c514610663578063f9f0164a146106a05761019c565b8063b88d4fde1461056c578063c87b56dd14610595578063c885e976146105d25761019c565b806391470318116100c657806391470318146104c657806394ab67fe146104ef57806395d89b4114610518578063a22cb465146105435761019c565b80637ccc85eb146104235780637dc379fa1461044c5780638bdfcab0146104895761019c565b80632a55feec116101595780636352211e116101335780636352211e146103575780636c52ab1f1461039457806370a08231146103bd57806379f1b7ff146103fa5761019c565b80632a55feec146102b457806342842e0e146102f15780635721e4191461031a5761019c565b806301ffc9a7146101a157806305908878146101de57806306fdde03146101fa578063081812fc14610225578063095ea7b31461026257806323b872dd1461028b575b600080fd5b3480156101ad57600080fd5b506101c860048036038101906101c391906134ba565b6106cb565b6040516101d59190613502565b60405180910390f35b6101f860048036038101906101f391906135b1565b61072c565b005b34801561020657600080fd5b5061020f610c86565b60405161021c9190613681565b60405180910390f35b34801561023157600080fd5b5061024c600480360381019061024791906136a3565b610d18565b60405161025991906136df565b60405180910390f35b34801561026e57600080fd5b50610289600480360381019061028491906135b1565b610d34565b005b34801561029757600080fd5b506102b260048036038101906102ad91906136fa565b610d4a565b005b3480156102c057600080fd5b506102db60048036038101906102d6919061374d565b610e4c565b6040516102e89190613502565b60405180910390f35b3480156102fd57600080fd5b50610318600480360381019061031391906136fa565b610eae565b005b34801561032657600080fd5b50610341600480360381019061033c919061374d565b610ece565b60405161034e919061389e565b60405180910390f35b34801561036357600080fd5b5061037e600480360381019061037991906136a3565b6110fd565b60405161038b91906136df565b60405180910390f35b3480156103a057600080fd5b506103bb60048036038101906103b691906138c0565b61110f565b005b3480156103c957600080fd5b506103e460048036038101906103df919061374d565b6111c6565b6040516103f19190613922565b60405180910390f35b34801561040657600080fd5b50610421600480360381019061041c919061374d565b611280565b005b34801561042f57600080fd5b5061044a600480360381019061044591906138c0565b611467565b005b34801561045857600080fd5b50610473600480360381019061046e91906136a3565b6115c7565b60405161048091906139b4565b60405180910390f35b34801561049557600080fd5b506104b060048036038101906104ab91906136a3565b611637565b6040516104bd9190613b24565b60405180910390f35b3480156104d257600080fd5b506104ed60048036038101906104e89190613c7b565b61198d565b005b3480156104fb57600080fd5b50610516600480360381019061051191906135b1565b611cd7565b005b34801561052457600080fd5b5061052d611cf4565b60405161053a9190613681565b60405180910390f35b34801561054f57600080fd5b5061056a60048036038101906105659190613dcd565b611d86565b005b34801561057857600080fd5b50610593600480360381019061058e9190613eae565b611d9c565b005b3480156105a157600080fd5b506105bc60048036038101906105b791906136a3565b611dc1565b6040516105c99190613681565b60405180910390f35b3480156105de57600080fd5b506105f960048036038101906105f49190613f31565b611ed4565b005b34801561060757600080fd5b5061061061204b565b60405161061d9190613922565b60405180910390f35b34801561063257600080fd5b5061064d6004803603810190610648919061374d565b612055565b60405161065a919061402d565b60405180910390f35b34801561066f57600080fd5b5061068a6004803603810190610685919061404f565b612352565b6040516106979190613502565b60405180910390f35b3480156106ac57600080fd5b506106b56123e6565b6040516106c29190613922565b60405180910390f35b6000634906490660e01b7bffffffffffffffffffffffffffffffffffffffffffffffffffffffff1916827bffffffffffffffffffffffffffffffffffffffffffffffffffffffff191614806107255750610724826123ec565b5b9050919050565b8080600860008381526020019081526020016000206001015414610785576040517f08c379a000000000000000000000000000000000000000000000000000000000815260040161077c906140db565b60405180910390fd5b6008600083815260200190815260200160002060080154600860008481526020019081526020016000206007015410156107f4576040517f08c379a00000000000000000000000000000000000000000000000000000000081526004016107eb90614147565b60405180910390fd5b346008600084815260200190815260200160002060060154111561084d576040517f08c379a0000000000000000000000000000000000000000000000000000000008152600401610844906141b3565b60405180910390fd5b60006008600084815260200190815260200160002060000160009054906101000a900473ffffffffffffffffffffffffffffffffffffffff1673ffffffffffffffffffffffffffffffffffffffff1660086000858152602001908152602001600020600601546040516108bf90614204565b60006040518083038185875af1925050503d80600081146108fc576040519150601f19603f3d011682016040523d82523d6000602084013e610901565b606091505b5050905080610945576040517f08c379a000000000000000000000000000000000000000000000000000000000815260040161093c90614265565b60405180910390fd5b600c6000815480929190610958906142b4565b91905055506109656132ce565b600c548160000181815250508381602001818152505060086000858152602001908152602001600020600601548160600181815250506000816080019015159081151581525050600060086000868152602001908152602001600020600a018054905090506001816109d791906142fc565b8260400181815250508160096000600c5481526020019081526020016000206000820151816000015560208201518160010155604082015181600201556060820151816003015560808201518160040160006101000a81548160ff02191690831515021790555090505060086000868152602001908152602001600020600a01600c549080600181540180825580915050600190039060005260206000200160009091909190915055600860008681526020019081526020016000206008016000815480929190610aa7906142b4565b9190505550610ab9600c54868861110f565b610ac16132ff565b86816000019073ffffffffffffffffffffffffffffffffffffffff16908173ffffffffffffffffffffffffffffffffffffffff168152505080600a60008973ffffffffffffffffffffffffffffffffffffffff1673ffffffffffffffffffffffffffffffffffffffff16815260200190815260200160002060008201518160000160006101000a81548173ffffffffffffffffffffffffffffffffffffffff021916908373ffffffffffffffffffffffffffffffffffffffff1602179055506020820151816001019080519060200190610b9c929190613336565b506040820151816002019080519060200190610bb9929190613336565b50905050600a60008873ffffffffffffffffffffffffffffffffffffffff1673ffffffffffffffffffffffffffffffffffffffff168152602001908152602001600020600101600c5490806001815401808255809150506001900390600052602060002001600090919091909150557f8d5cf892ef63ee01b245017a1bf38f5e728da0a701af9750a91788b7743a3a76600c548784600860008b815260200190815260200160002060060154604051610c759493929190614330565b60405180910390a150505050505050565b606060008054610c95906143a4565b80601f0160208091040260200160405190810160405280929190818152602001828054610cc1906143a4565b8015610d0e5780601f10610ce357610100808354040283529160200191610d0e565b820191906000526020600020905b815481529060010190602001808311610cf157829003601f168201915b5050505050905090565b6000610d23826124ce565b50610d2d82612556565b9050919050565b610d468282610d41612593565b61259b565b5050565b600073ffffffffffffffffffffffffffffffffffffffff168273ffffffffffffffffffffffffffffffffffffffff1603610dbc5760006040517f64a0ae92000000000000000000000000000000000000000000000000000000008152600401610db391906136df565b60405180910390fd5b6000610dd08383610dcb612593565b6125ad565b90508373ffffffffffffffffffffffffffffffffffffffff168173ffffffffffffffffffffffffffffffffffffffff1614610e46578382826040517f64283d7b000000000000000000000000000000000000000000000000000000008152600401610e3d939291906143d5565b60405180910390fd5b50505050565b600080600a60008473ffffffffffffffffffffffffffffffffffffffff1673ffffffffffffffffffffffffffffffffffffffff168152602001908152602001600020600101805490501115610ea45760019050610ea9565b600090505b919050565b610ec983838360405180602001604052806000815250611d9c565b505050565b610ed66132ff565b8173ffffffffffffffffffffffffffffffffffffffff16600a60008473ffffffffffffffffffffffffffffffffffffffff1673ffffffffffffffffffffffffffffffffffffffff16815260200190815260200160002060000160009054906101000a900473ffffffffffffffffffffffffffffffffffffffff1673ffffffffffffffffffffffffffffffffffffffff1614610fa6576040517f08c379a0000000000000000000000000000000000000000000000000000000008152600401610f9d90614458565b60405180910390fd5b600a60008373ffffffffffffffffffffffffffffffffffffffff1673ffffffffffffffffffffffffffffffffffffffff1681526020019081526020016000206040518060600160405290816000820160009054906101000a900473ffffffffffffffffffffffffffffffffffffffff1673ffffffffffffffffffffffffffffffffffffffff1673ffffffffffffffffffffffffffffffffffffffff1681526020016001820180548060200260200160405190810160405280929190818152602001828054801561109557602002820191906000526020600020905b815481526020019060010190808311611081575b50505050508152602001600282018054806020026020016040519081016040528092919081815260200182805480156110ed57602002820191906000526020600020905b8154815260200190600101908083116110d9575b5050505050815250509050919050565b6000611108826124ce565b9050919050565b61111981846127c7565b6111c18360086000858152602001908152602001600020600501805461113e906143a4565b80601f016020809104026020016040519081016040528092919081815260200182805461116a906143a4565b80156111b75780601f1061118c576101008083540402835291602001916111b7565b820191906000526020600020905b81548152906001019060200180831161119a57829003601f168201915b50505050506128c0565b505050565b60008073ffffffffffffffffffffffffffffffffffffffff168273ffffffffffffffffffffffffffffffffffffffff16036112395760006040517f89c62b6400000000000000000000000000000000000000000000000000000000815260040161123091906136df565b60405180910390fd5b600360008373ffffffffffffffffffffffffffffffffffffffff1673ffffffffffffffffffffffffffffffffffffffff168152602001908152602001600020549050919050565b8073ffffffffffffffffffffffffffffffffffffffff16600760008373ffffffffffffffffffffffffffffffffffffffff1673ffffffffffffffffffffffffffffffffffffffff16815260200190815260200160002060000160009054906101000a900473ffffffffffffffffffffffffffffffffffffffff1673ffffffffffffffffffffffffffffffffffffffff1603611350576040517f08c379a0000000000000000000000000000000000000000000000000000000008152600401611347906144c4565b60405180910390fd5b611358613383565b81816000019073ffffffffffffffffffffffffffffffffffffffff16908173ffffffffffffffffffffffffffffffffffffffff168152505080600760008473ffffffffffffffffffffffffffffffffffffffff1673ffffffffffffffffffffffffffffffffffffffff16815260200190815260200160002060008201518160000160006101000a81548173ffffffffffffffffffffffffffffffffffffffff021916908373ffffffffffffffffffffffffffffffffffffffff1602179055506020820151816001019080519060200190611433929190613336565b5060408201518160020190816114499190614690565b50606082015181600301908161145f9190614690565b509050505050565b826009600085815260200190815260200160002060000154146114bf576040517f08c379a00000000000000000000000000000000000000000000000000000000081526004016114b6906147ae565b60405180910390fd5b8073ffffffffffffffffffffffffffffffffffffffff166114df846110fd565b73ffffffffffffffffffffffffffffffffffffffff1614611535576040517f08c379a000000000000000000000000000000000000000000000000000000000815260040161152c9061481a565b60405180910390fd5b60008211611578576040517f08c379a000000000000000000000000000000000000000000000000000000000815260040161156f90614886565b60405180910390fd5b81600960008581526020019081526020016000206003018190555060016009600085815260200190815260200160002060040160006101000a81548160ff021916908315150217905550505050565b6115cf6132ce565b600960008381526020019081526020016000206040518060a0016040529081600082015481526020016001820154815260200160028201548152602001600382015481526020016004820160009054906101000a900460ff1615151515815250509050919050565b61163f6133c1565b60086000838152602001908152602001600020604051806101600160405290816000820160009054906101000a900473ffffffffffffffffffffffffffffffffffffffff1673ffffffffffffffffffffffffffffffffffffffff1673ffffffffffffffffffffffffffffffffffffffff168152602001600182015481526020016002820180546116ce906143a4565b80601f01602080910402602001604051908101604052809291908181526020018280546116fa906143a4565b80156117475780601f1061171c57610100808354040283529160200191611747565b820191906000526020600020905b81548152906001019060200180831161172a57829003601f168201915b50505050508152602001600382018054611760906143a4565b80601f016020809104026020016040519081016040528092919081815260200182805461178c906143a4565b80156117d95780601f106117ae576101008083540402835291602001916117d9565b820191906000526020600020905b8154815290600101906020018083116117bc57829003601f168201915b505050505081526020016004820180546117f2906143a4565b80601f016020809104026020016040519081016040528092919081815260200182805461181e906143a4565b801561186b5780601f106118405761010080835404028352916020019161186b565b820191906000526020600020905b81548152906001019060200180831161184e57829003601f168201915b50505050508152602001600582018054611884906143a4565b80601f01602080910402602001604051908101604052809291908181526020018280546118b0906143a4565b80156118fd5780601f106118d2576101008083540402835291602001916118fd565b820191906000526020600020905b8154815290600101906020018083116118e057829003601f168201915b5050505050815260200160068201548152602001600782015481526020016008820154815260200160098201548152602001600a820180548060200260200160405190810160405280929190818152602001828054801561197d57602002820191906000526020600020905b815481526020019060010190808311611969575b5050505050815250509050919050565b878073ffffffffffffffffffffffffffffffffffffffff16600760008373ffffffffffffffffffffffffffffffffffffffff1673ffffffffffffffffffffffffffffffffffffffff16815260200190815260200160002060000160009054906101000a900473ffffffffffffffffffffffffffffffffffffffff1673ffffffffffffffffffffffffffffffffffffffff1614611a5e576040517f08c379a0000000000000000000000000000000000000000000000000000000008152600401611a55906148f2565b60405180910390fd5b600b6000815480929190611a71906142b4565b9190505550611a7e6133c1565b89816000019073ffffffffffffffffffffffffffffffffffffffff16908173ffffffffffffffffffffffffffffffffffffffff1681525050600b54816020018181525050888160400181905250868160600181905250858160800181905250878160a00181905250848160c0018181525050838160e001818152505082816101200181815250506000816101000181815250508060086000600b54815260200190815260200160002060008201518160000160006101000a81548173ffffffffffffffffffffffffffffffffffffffff021916908373ffffffffffffffffffffffffffffffffffffffff160217905550602082015181600101556040820151816002019081611b8d9190614690565b506060820151816003019081611ba39190614690565b506080820151816004019081611bb99190614690565b5060a0820151816005019081611bcf9190614690565b5060c0820151816006015560e082015181600701556101008201518160080155610120820151816009015561014082015181600a019080519060200190611c17929190613336565b50905050600760008b73ffffffffffffffffffffffffffffffffffffffff1673ffffffffffffffffffffffffffffffffffffffff168152602001908152602001600020600101600b5490806001815401808255809150506001900390600052602060002001600090919091909150557fb1a2319a5bd9e11229cca9b1693bbc2880833e3b2bf30fe389f60fc6da428820600b548a8989898989604051611cc39796959493929190614912565b60405180910390a150505050505050505050565b6000611ce2826110fd565b9050611cef818484610eae565b505050565b606060018054611d03906143a4565b80601f0160208091040260200160405190810160405280929190818152602001828054611d2f906143a4565b8015611d7c5780601f10611d5157610100808354040283529160200191611d7c565b820191906000526020600020905b815481529060010190602001808311611d5f57829003601f168201915b5050505050905090565b611d98611d91612593565b838361291c565b5050565b611da7848484610d4a565b611dbb611db2612593565b85858585612a8b565b50505050565b6060611dcc826124ce565b506000600660008481526020019081526020016000208054611ded906143a4565b80601f0160208091040260200160405190810160405280929190818152602001828054611e19906143a4565b8015611e665780601f10611e3b57610100808354040283529160200191611e66565b820191906000526020600020905b815481529060010190602001808311611e4957829003601f168201915b505050505090506000611e77612c3c565b90506000815103611e8c578192505050611ecf565b600082511115611ec1578082604051602001611ea99291906149d2565b60405160208183030381529060405292505050611ecf565b611eca84612c53565b925050505b919050565b828073ffffffffffffffffffffffffffffffffffffffff16600760008373ffffffffffffffffffffffffffffffffffffffff1673ffffffffffffffffffffffffffffffffffffffff16815260200190815260200160002060000160009054906101000a900473ffffffffffffffffffffffffffffffffffffffff1673ffffffffffffffffffffffffffffffffffffffff1614611fa5576040517f08c379a0000000000000000000000000000000000000000000000000000000008152600401611f9c906148f2565b60405180910390fd5b82600760008673ffffffffffffffffffffffffffffffffffffffff1673ffffffffffffffffffffffffffffffffffffffff1681526020019081526020016000206002019081611ff49190614690565b5081600760008673ffffffffffffffffffffffffffffffffffffffff1673ffffffffffffffffffffffffffffffffffffffff16815260200190815260200160002060030190816120449190614690565b5050505050565b6000600b54905090565b61205d613383565b818073ffffffffffffffffffffffffffffffffffffffff16600760008373ffffffffffffffffffffffffffffffffffffffff1673ffffffffffffffffffffffffffffffffffffffff16815260200190815260200160002060000160009054906101000a900473ffffffffffffffffffffffffffffffffffffffff1673ffffffffffffffffffffffffffffffffffffffff161461212e576040517f08c379a0000000000000000000000000000000000000000000000000000000008152600401612125906148f2565b60405180910390fd5b600760008473ffffffffffffffffffffffffffffffffffffffff1673ffffffffffffffffffffffffffffffffffffffff1681526020019081526020016000206040518060800160405290816000820160009054906101000a900473ffffffffffffffffffffffffffffffffffffffff1673ffffffffffffffffffffffffffffffffffffffff1673ffffffffffffffffffffffffffffffffffffffff1681526020016001820180548060200260200160405190810160405280929190818152602001828054801561221d57602002820191906000526020600020905b815481526020019060010190808311612209575b50505050508152602001600282018054612236906143a4565b80601f0160208091040260200160405190810160405280929190818152602001828054612262906143a4565b80156122af5780601f10612284576101008083540402835291602001916122af565b820191906000526020600020905b81548152906001019060200180831161229257829003601f168201915b505050505081526020016003820180546122c8906143a4565b80601f01602080910402602001604051908101604052809291908181526020018280546122f4906143a4565b80156123415780601f1061231657610100808354040283529160200191612341565b820191906000526020600020905b81548152906001019060200180831161232457829003601f168201915b505050505081525050915050919050565b6000600560008473ffffffffffffffffffffffffffffffffffffffff1673ffffffffffffffffffffffffffffffffffffffff16815260200190815260200160002060008373ffffffffffffffffffffffffffffffffffffffff1673ffffffffffffffffffffffffffffffffffffffff16815260200190815260200160002060009054906101000a900460ff16905092915050565b600c5481565b60007f80ac58cd000000000000000000000000000000000000000000000000000000007bffffffffffffffffffffffffffffffffffffffffffffffffffffffff1916827bffffffffffffffffffffffffffffffffffffffffffffffffffffffff191614806124b757507f5b5e139f000000000000000000000000000000000000000000000000000000007bffffffffffffffffffffffffffffffffffffffffffffffffffffffff1916827bffffffffffffffffffffffffffffffffffffffffffffffffffffffff1916145b806124c757506124c682612cbc565b5b9050919050565b6000806124da83612d26565b9050600073ffffffffffffffffffffffffffffffffffffffff168173ffffffffffffffffffffffffffffffffffffffff160361254d57826040517f7e2732890000000000000000000000000000000000000000000000000000000081526004016125449190613922565b60405180910390fd5b80915050919050565b60006004600083815260200190815260200160002060009054906101000a900473ffffffffffffffffffffffffffffffffffffffff169050919050565b600033905090565b6125a88383836001612d63565b505050565b6000806125b984612d26565b9050600073ffffffffffffffffffffffffffffffffffffffff168373ffffffffffffffffffffffffffffffffffffffff16146125fb576125fa818486612f28565b5b600073ffffffffffffffffffffffffffffffffffffffff168173ffffffffffffffffffffffffffffffffffffffff161461268c5761263d600085600080612d63565b6001600360008373ffffffffffffffffffffffffffffffffffffffff1673ffffffffffffffffffffffffffffffffffffffff168152602001908152602001600020600082825403925050819055505b600073ffffffffffffffffffffffffffffffffffffffff168573ffffffffffffffffffffffffffffffffffffffff161461270f576001600360008773ffffffffffffffffffffffffffffffffffffffff1673ffffffffffffffffffffffffffffffffffffffff168152602001908152602001600020600082825401925050819055505b846002600086815260200190815260200160002060006101000a81548173ffffffffffffffffffffffffffffffffffffffff021916908373ffffffffffffffffffffffffffffffffffffffff160217905550838573ffffffffffffffffffffffffffffffffffffffff168273ffffffffffffffffffffffffffffffffffffffff167fddf252ad1be2c89b69c2b068fc378daa952ba7f163c4a11628f55a4df523b3ef60405160405180910390a4809150509392505050565b600073ffffffffffffffffffffffffffffffffffffffff168273ffffffffffffffffffffffffffffffffffffffff16036128395760006040517f64a0ae9200000000000000000000000000000000000000000000000000000000815260040161283091906136df565b60405180910390fd5b6000612847838360006125ad565b9050600073ffffffffffffffffffffffffffffffffffffffff168173ffffffffffffffffffffffffffffffffffffffff16146128bb5760006040517f73c6ac6e0000000000000000000000000000000000000000000000000000000081526004016128b291906136df565b60405180910390fd5b505050565b806006600084815260200190815260200160002090816128e09190614690565b507ff8e1a15aba9398e019f0b49df1a4fde98ee17ae345cb5f6b5e2c27f5033e8ce7826040516129109190613922565b60405180910390a15050565b600073ffffffffffffffffffffffffffffffffffffffff168273ffffffffffffffffffffffffffffffffffffffff160361298d57816040517f5b08ba1800000000000000000000000000000000000000000000000000000000815260040161298491906136df565b60405180910390fd5b80600560008573ffffffffffffffffffffffffffffffffffffffff1673ffffffffffffffffffffffffffffffffffffffff16815260200190815260200160002060008473ffffffffffffffffffffffffffffffffffffffff1673ffffffffffffffffffffffffffffffffffffffff16815260200190815260200160002060006101000a81548160ff0219169083151502179055508173ffffffffffffffffffffffffffffffffffffffff168373ffffffffffffffffffffffffffffffffffffffff167f17307eab39ab6107e8899845ad3d59bd9653f200f220920489ca2b5937696c3183604051612a7e9190613502565b60405180910390a3505050565b60008373ffffffffffffffffffffffffffffffffffffffff163b1115612c35578273ffffffffffffffffffffffffffffffffffffffff1663150b7a02868685856040518563ffffffff1660e01b8152600401612aea9493929190614a4b565b6020604051808303816000875af1925050508015612b2657506040513d601f19601f82011682018060405250810190612b239190614aac565b60015b612baa573d8060008114612b56576040519150601f19603f3d011682016040523d82523d6000602084013e612b5b565b606091505b506000815103612ba257836040517f64a0ae92000000000000000000000000000000000000000000000000000000008152600401612b9991906136df565b60405180910390fd5b805181602001fd5b63150b7a0260e01b7bffffffffffffffffffffffffffffffffffffffffffffffffffffffff1916817bffffffffffffffffffffffffffffffffffffffffffffffffffffffff191614612c3357836040517f64a0ae92000000000000000000000000000000000000000000000000000000008152600401612c2a91906136df565b60405180910390fd5b505b5050505050565b606060405180602001604052806000815250905090565b6060612c5e826124ce565b506000612c69612c3c565b90506000815111612c895760405180602001604052806000815250612cb4565b80612c9384612fec565b604051602001612ca49291906149d2565b6040516020818303038152906040525b915050919050565b60007f01ffc9a7000000000000000000000000000000000000000000000000000000007bffffffffffffffffffffffffffffffffffffffffffffffffffffffff1916827bffffffffffffffffffffffffffffffffffffffffffffffffffffffff1916149050919050565b60006002600083815260200190815260200160002060009054906101000a900473ffffffffffffffffffffffffffffffffffffffff169050919050565b8080612d9c5750600073ffffffffffffffffffffffffffffffffffffffff168273ffffffffffffffffffffffffffffffffffffffff1614155b15612ed0576000612dac846124ce565b9050600073ffffffffffffffffffffffffffffffffffffffff168373ffffffffffffffffffffffffffffffffffffffff1614158015612e1757508273ffffffffffffffffffffffffffffffffffffffff168173ffffffffffffffffffffffffffffffffffffffff1614155b8015612e2a5750612e288184612352565b155b15612e6c57826040517fa9fbf51f000000000000000000000000000000000000000000000000000000008152600401612e6391906136df565b60405180910390fd5b8115612ece57838573ffffffffffffffffffffffffffffffffffffffff168273ffffffffffffffffffffffffffffffffffffffff167f8c5be1e5ebec7d5bd14f71427d1e84f3dd0314c0f7b2291e5b200ac8c7c3b92560405160405180910390a45b505b836004600085815260200190815260200160002060006101000a81548173ffffffffffffffffffffffffffffffffffffffff021916908373ffffffffffffffffffffffffffffffffffffffff16021790555050505050565b612f338383836130ba565b612fe757600073ffffffffffffffffffffffffffffffffffffffff168373ffffffffffffffffffffffffffffffffffffffff1603612fa857806040517f7e273289000000000000000000000000000000000000000000000000000000008152600401612f9f9190613922565b60405180910390fd5b81816040517f177e802f000000000000000000000000000000000000000000000000000000008152600401612fde929190614ad9565b60405180910390fd5b505050565b606060006001612ffb8461317b565b01905060008167ffffffffffffffff81111561301a57613019613b50565b5b6040519080825280601f01601f19166020018201604052801561304c5781602001600182028036833780820191505090505b509050600082602001820190505b6001156130af578080600190039150507f3031323334353637383961626364656600000000000000000000000000000000600a86061a8153600a85816130a3576130a2614b02565b5b0494506000850361305a575b819350505050919050565b60008073ffffffffffffffffffffffffffffffffffffffff168373ffffffffffffffffffffffffffffffffffffffff161415801561317257508273ffffffffffffffffffffffffffffffffffffffff168473ffffffffffffffffffffffffffffffffffffffff16148061313357506131328484612352565b5b8061317157508273ffffffffffffffffffffffffffffffffffffffff1661315983612556565b73ffffffffffffffffffffffffffffffffffffffff16145b5b90509392505050565b600080600090507a184f03e93ff9f4daa797ed6e38ed64bf6a1f01000000000000000083106131d9577a184f03e93ff9f4daa797ed6e38ed64bf6a1f01000000000000000083816131cf576131ce614b02565b5b0492506040810190505b6d04ee2d6d415b85acef81000000008310613216576d04ee2d6d415b85acef8100000000838161320c5761320b614b02565b5b0492506020810190505b662386f26fc10000831061324557662386f26fc10000838161323b5761323a614b02565b5b0492506010810190505b6305f5e100831061326e576305f5e100838161326457613263614b02565b5b0492506008810190505b612710831061329357612710838161328957613288614b02565b5b0492506004810190505b606483106132b657606483816132ac576132ab614b02565b5b0492506002810190505b600a83106132c5576001810190505b80915050919050565b6040518060a00160405280600081526020016000815260200160008152602001600081526020016000151581525090565b6040518060600160405280600073ffffffffffffffffffffffffffffffffffffffff16815260200160608152602001606081525090565b828054828255906000526020600020908101928215613372579160200282015b82811115613371578251825591602001919060010190613356565b5b50905061337f9190613431565b5090565b6040518060800160405280600073ffffffffffffffffffffffffffffffffffffffff1681526020016060815260200160608152602001606081525090565b604051806101600160405280600073ffffffffffffffffffffffffffffffffffffffff168152602001600081526020016060815260200160608152602001606081526020016060815260200160008152602001600081526020016000815260200160008152602001606081525090565b5b8082111561344a576000816000905550600101613432565b5090565b6000604051905090565b600080fd5b600080fd5b60007fffffffff0000000000000000000000000000000000000000000000000000000082169050919050565b61349781613462565b81146134a257600080fd5b50565b6000813590506134b48161348e565b92915050565b6000602082840312156134d0576134cf613458565b5b60006134de848285016134a5565b91505092915050565b60008115159050919050565b6134fc816134e7565b82525050565b600060208201905061351760008301846134f3565b92915050565b600073ffffffffffffffffffffffffffffffffffffffff82169050919050565b60006135488261351d565b9050919050565b6135588161353d565b811461356357600080fd5b50565b6000813590506135758161354f565b92915050565b6000819050919050565b61358e8161357b565b811461359957600080fd5b50565b6000813590506135ab81613585565b92915050565b600080604083850312156135c8576135c7613458565b5b60006135d685828601613566565b92505060206135e78582860161359c565b9150509250929050565b600081519050919050565b600082825260208201905092915050565b60005b8381101561362b578082015181840152602081019050613610565b60008484015250505050565b6000601f19601f8301169050919050565b6000613653826135f1565b61365d81856135fc565b935061366d81856020860161360d565b61367681613637565b840191505092915050565b6000602082019050818103600083015261369b8184613648565b905092915050565b6000602082840312156136b9576136b8613458565b5b60006136c78482850161359c565b91505092915050565b6136d98161353d565b82525050565b60006020820190506136f460008301846136d0565b92915050565b60008060006060848603121561371357613712613458565b5b600061372186828701613566565b935050602061373286828701613566565b92505060406137438682870161359c565b9150509250925092565b60006020828403121561376357613762613458565b5b600061377184828501613566565b91505092915050565b6137838161353d565b82525050565b600081519050919050565b600082825260208201905092915050565b6000819050602082019050919050565b6137be8161357b565b82525050565b60006137d083836137b5565b60208301905092915050565b6000602082019050919050565b60006137f482613789565b6137fe8185613794565b9350613809836137a5565b8060005b8381101561383a57815161382188826137c4565b975061382c836137dc565b92505060018101905061380d565b5085935050505092915050565b600060608301600083015161385f600086018261377a565b506020830151848203602086015261387782826137e9565b9150506040830151848203604086015261389182826137e9565b9150508091505092915050565b600060208201905081810360008301526138b88184613847565b905092915050565b6000806000606084860312156138d9576138d8613458565b5b60006138e78682870161359c565b93505060206138f88682870161359c565b925050604061390986828701613566565b9150509250925092565b61391c8161357b565b82525050565b60006020820190506139376000830184613913565b92915050565b613946816134e7565b82525050565b60a08201600082015161396260008501826137b5565b50602082015161397560208501826137b5565b50604082015161398860408501826137b5565b50606082015161399b60608501826137b5565b5060808201516139ae608085018261393d565b50505050565b600060a0820190506139c9600083018461394c565b92915050565b600082825260208201905092915050565b60006139eb826135f1565b6139f581856139cf565b9350613a0581856020860161360d565b613a0e81613637565b840191505092915050565b600061016083016000830151613a32600086018261377a565b506020830151613a4560208601826137b5565b5060408301518482036040860152613a5d82826139e0565b91505060608301518482036060860152613a7782826139e0565b91505060808301518482036080860152613a9182826139e0565b91505060a083015184820360a0860152613aab82826139e0565b91505060c0830151613ac060c08601826137b5565b5060e0830151613ad360e08601826137b5565b50610100830151613ae86101008601826137b5565b50610120830151613afd6101208601826137b5565b50610140830151848203610140860152613b1782826137e9565b9150508091505092915050565b60006020820190508181036000830152613b3e8184613a19565b905092915050565b600080fd5b600080fd5b7f4e487b7100000000000000000000000000000000000000000000000000000000600052604160045260246000fd5b613b8882613637565b810181811067ffffffffffffffff82111715613ba757613ba6613b50565b5b80604052505050565b6000613bba61344e565b9050613bc68282613b7f565b919050565b600067ffffffffffffffff821115613be657613be5613b50565b5b613bef82613637565b9050602081019050919050565b82818337600083830152505050565b6000613c1e613c1984613bcb565b613bb0565b905082815260208101848484011115613c3a57613c39613b4b565b5b613c45848285613bfc565b509392505050565b600082601f830112613c6257613c61613b46565b5b8135613c72848260208601613c0b565b91505092915050565b600080600080600080600080610100898b031215613c9c57613c9b613458565b5b6000613caa8b828c01613566565b985050602089013567ffffffffffffffff811115613ccb57613cca61345d565b5b613cd78b828c01613c4d565b975050604089013567ffffffffffffffff811115613cf857613cf761345d565b5b613d048b828c01613c4d565b965050606089013567ffffffffffffffff811115613d2557613d2461345d565b5b613d318b828c01613c4d565b955050608089013567ffffffffffffffff811115613d5257613d5161345d565b5b613d5e8b828c01613c4d565b94505060a0613d6f8b828c0161359c565b93505060c0613d808b828c0161359c565b92505060e0613d918b828c0161359c565b9150509295985092959890939650565b613daa816134e7565b8114613db557600080fd5b50565b600081359050613dc781613da1565b92915050565b60008060408385031215613de457613de3613458565b5b6000613df285828601613566565b9250506020613e0385828601613db8565b9150509250929050565b600067ffffffffffffffff821115613e2857613e27613b50565b5b613e3182613637565b9050602081019050919050565b6000613e51613e4c84613e0d565b613bb0565b905082815260208101848484011115613e6d57613e6c613b4b565b5b613e78848285613bfc565b509392505050565b600082601f830112613e9557613e94613b46565b5b8135613ea5848260208601613e3e565b91505092915050565b60008060008060808587031215613ec857613ec7613458565b5b6000613ed687828801613566565b9450506020613ee787828801613566565b9350506040613ef88782880161359c565b925050606085013567ffffffffffffffff811115613f1957613f1861345d565b5b613f2587828801613e80565b91505092959194509250565b600080600060608486031215613f4a57613f49613458565b5b6000613f5886828701613566565b935050602084013567ffffffffffffffff811115613f7957613f7861345d565b5b613f8586828701613c4d565b925050604084013567ffffffffffffffff811115613fa657613fa561345d565b5b613fb286828701613c4d565b9150509250925092565b6000608083016000830151613fd4600086018261377a565b5060208301518482036020860152613fec82826137e9565b9150506040830151848203604086015261400682826139e0565b9150506060830151848203606086015261402082826139e0565b9150508091505092915050565b600060208201905081810360008301526140478184613fbc565b905092915050565b6000806040838503121561406657614065613458565b5b600061407485828601613566565b925050602061408585828601613566565b9150509250929050565b7f4576656e7420646f6573206e6f74206578697374000000000000000000000000600082015250565b60006140c56014836135fc565b91506140d08261408f565b602082019050919050565b600060208201905081810360008301526140f4816140b8565b9050919050565b7f5469636b6574732061726520736f6c64206f7574000000000000000000000000600082015250565b60006141316014836135fc565b915061413c826140fb565b602082019050919050565b6000602082019050818103600083015261416081614124565b9050919050565b7f507269636520697320746f6f206c6f7700000000000000000000000000000000600082015250565b600061419d6010836135fc565b91506141a882614167565b602082019050919050565b600060208201905081810360008301526141cc81614190565b9050919050565b600081905092915050565b50565b60006141ee6000836141d3565b91506141f9826141de565b600082019050919050565b600061420f826141e1565b9150819050919050565b7f5472616e73666572206661696c65640000000000000000000000000000000000600082015250565b600061424f600f836135fc565b915061425a82614219565b602082019050919050565b6000602082019050818103600083015261427e81614242565b9050919050565b7f4e487b7100000000000000000000000000000000000000000000000000000000600052601160045260246000fd5b60006142bf8261357b565b91507fffffffffffffffffffffffffffffffffffffffffffffffffffffffffffffffff82036142f1576142f0614285565b5b600182019050919050565b60006143078261357b565b91506143128361357b565b925082820190508082111561432a57614329614285565b5b92915050565b60006080820190506143456000830187613913565b6143526020830186613913565b61435f6040830185613913565b61436c6060830184613913565b95945050505050565b7f4e487b7100000000000000000000000000000000000000000000000000000000600052602260045260246000fd5b600060028204905060018216806143bc57607f821691505b6020821081036143cf576143ce614375565b5b50919050565b60006060820190506143ea60008301866136d0565b6143f76020830185613913565b61440460408301846136d0565b949350505050565b7f446964206e6f742062757920616e79204e465473000000000000000000000000600082015250565b60006144426014836135fc565b915061444d8261440c565b602082019050919050565b6000602082019050818103600083015261447181614435565b9050919050565b7f416c726561647920616e204f7267616e69736572000000000000000000000000600082015250565b60006144ae6014836135fc565b91506144b982614478565b602082019050919050565b600060208201905081810360008301526144dd816144a1565b9050919050565b60008190508160005260206000209050919050565b60006020601f8301049050919050565b600082821b905092915050565b6000600883026145467fffffffffffffffffffffffffffffffffffffffffffffffffffffffffffffffff82614509565b6145508683614509565b95508019841693508086168417925050509392505050565b6000819050919050565b600061458d6145886145838461357b565b614568565b61357b565b9050919050565b6000819050919050565b6145a783614572565b6145bb6145b382614594565b848454614516565b825550505050565b600090565b6145d06145c3565b6145db81848461459e565b505050565b5b818110156145ff576145f46000826145c8565b6001810190506145e1565b5050565b601f82111561464457614615816144e4565b61461e846144f9565b8101602085101561462d578190505b614641614639856144f9565b8301826145e0565b50505b505050565b600082821c905092915050565b600061466760001984600802614649565b1980831691505092915050565b60006146808383614656565b9150826002028217905092915050565b614699826135f1565b67ffffffffffffffff8111156146b2576146b1613b50565b5b6146bc82546143a4565b6146c7828285614603565b600060209050601f8311600181146146fa57600084156146e8578287015190505b6146f28582614674565b86555061475a565b601f198416614708866144e4565b60005b828110156147305784890151825560018201915060208501945060208101905061470b565b8683101561474d5784890151614749601f891682614656565b8355505b6001600288020188555050505b505050505050565b7f5469636b657420646f6573206e6f742065786973740000000000000000000000600082015250565b60006147986015836135fc565b91506147a382614762565b602082019050919050565b600060208201905081810360008301526147c78161478b565b9050919050565b7f596f7520617265206e6f7420746865206f776e65720000000000000000000000600082015250565b60006148046015836135fc565b915061480f826147ce565b602082019050919050565b60006020820190508181036000830152614833816147f7565b9050919050565b7f5072696365206d7573742062652067726561746572207468616e207a65726f00600082015250565b6000614870601f836135fc565b915061487b8261483a565b602082019050919050565b6000602082019050818103600083015261489f81614863565b9050919050565b7f596f7520617265206e6f7420616e206f7267616e697365720000000000000000600082015250565b60006148dc6018836135fc565b91506148e7826148a6565b602082019050919050565b6000602082019050818103600083015261490b816148cf565b9050919050565b600060e082019050614927600083018a613913565b81810360208301526149398189613648565b9050818103604083015261494d8188613648565b905081810360608301526149618187613648565b90506149706080830186613913565b61497d60a0830185613913565b61498a60c0830184613913565b98975050505050505050565b600081905092915050565b60006149ac826135f1565b6149b68185614996565b93506149c681856020860161360d565b80840191505092915050565b60006149de82856149a1565b91506149ea82846149a1565b91508190509392505050565b600081519050919050565b600082825260208201905092915050565b6000614a1d826149f6565b614a278185614a01565b9350614a3781856020860161360d565b614a4081613637565b840191505092915050565b6000608082019050614a6060008301876136d0565b614a6d60208301866136d0565b614a7a6040830185613913565b8181036060830152614a8c8184614a12565b905095945050505050565b600081519050614aa68161348e565b92915050565b600060208284031215614ac257614ac1613458565b5b6000614ad084828501614a97565b91505092915050565b6000604082019050614aee60008301856136d0565b614afb6020830184613913565b9392505050565b7f4e487b7100000000000000000000000000000000000000000000000000000000600052601260045260246000fdfea264697066735822122026f2c94294b4103cbebffb37f7eb082d85995ac41708ae0ddf481428b403d56e64736f6c634300081c0033",
  "linkReferences": {},
  "deployedLinkReferences": {}
}